:020000040800F2
:1000000000370024AD0200084B3300089B2F000886
:1000100049330008250400082945000800000000B5
:100020000000000000000000000000009135000802
:1000300027040008000000004D3300089335000835
:10004000C7020008C7020008C7020008C70200086C
:10005000C7020008C7020008C7020008C70200085C
:10006000C7020008C7020008C7020008C70200084C
:10007000C7020008C7020008C7020008C70200083C
:10008000C7020008C7020008C7020008C70200082C
:10009000C7020008C7020008C7020008C70200081C
:1000A000C7020008C7020008C7020008C70200080C
:1000B000C7020008C7020008C7020008C7020008FC
:1000C000C7020008C7020008C7020008C7020008EC
:1000D000C7020008C7020008C7020008C7020008DC
:1000E000C7020008C702000800000000C70200089D
:1000F000C7020008C7020008C7020008C7020008BC
:10010000C7020008C7020008C7020008C7020008AB
:10011000C7020008C7020008C7020008C70200089B
:10012000C7020008C7020008C7020008C70200088B
:10013000C702000829040008C7020008C702000817
:1001400000000000000000000000000000000000AF
:10015000C7020008C7020008C7020008C70200085B
:10016000C7020008C7020008C7020008C70200084B
:10017000C7020008C7020008C7020008000000000C
:10018000C7020008C7020008C7020008C70200082B
:10019000C7020008C7020008C7020008C70200081B
:1001A000C7020008C7020008C7020008C70200080B
:1001B000C7020008C7020008C7020008C7020008FB
:1001C000C7020008C7020008C7020008C7020008EB
:1001D000C7020008C7020008C7020008C7020008DB
:1001E000C7020008C7020008C7020008C7020008CB
:1001F000C7020008C7020008C7020008C7020008BB
:10020000C7020008C7020008C7020008C7020008AA
:10021000C7020008C7020008C7020008C70200089A
:10022000C7020008C7020008C7020008000000005B
:10023000C7020008C702000800000000C70200084B
:10024000C7020008C7020008C7020008C70200086A
:10025000C7020008C7020008C7020008C70200085A
:10026000C7020008C7020008C7020008C70200084A
:10027000C7020008C7020008C7020008000000000B
:10028000C7020008C7020008C702000800000000FB
:1002900000000000C7020008DFF80CD000F0B0F842
:1002A00000480047CD690008003700240648804711
:1002B00006480047FEE7FEE7FEE7FEE7FEE7FEE74B
:1002C000FEE7FEE7FEE7FEE74D360008990200086C
:1002D0002DE9F05F0546002092469B46884606467B
:1002E000814640241BE0284641464746224600F00E
:1002F00076F853465A46C01A914110D31146184613
:10030000224600F05DF82D1A67EB01084F462246A1
:100310000120002100F054F817EB00094E41201E87
:10032000A4F10104DFDC484631462A464346BDE8D5
:10033000F09F40EA01039B0703D009E008C9121FA0
:1003400008C0042AFAD203E011F8013B00F8013B8F
:10035000521EF9D27047D2B201E000F8012B491EBB
:10036000FBD270470022F6E710B513460A46044652
:100370001946FFF7F0FF204610BD30B504460020B7
:10038000034600E05B1C934203D2E05CCD5C401B63
:10039000F8D030BD30B50B460146002020220124A4
:1003A00009E021FA02F59D4205D303FA02F5491B43
:1003B00004FA02F52844151EA2F10102F1DC30BD59
:1003C000202A04DB203A00FA02F100207047914015
:1003D000C2F1200320FA03F3194390407047202A0A
:1003E00004DB203A21FA02F00021704721FA02F3DF
:1003F000D040C2F1200291400843194670470000E6
:10040000064C074D06E0E06840F0010394E8070061
:1004100098471034AC42F6D3FFF742FF60BB0008A8
:1004200080BB0008FEE77047014800F05FBC000099
:100430001C01002470B5A2B0064600244FF4C3602E
:1004400001258DF80F5002238DF81D4069038DF8AA
:100450000E5009948DF81F400D9020208DF8045007
:100460008DF8325042028DF8605006914FF04051A5
:100470008DF8384002948DF861408DF81C408DF85D
:1004800028408DF862408DF80C400B948DF81E507A
:100490000F948DF8115012948DF840408DF8314032
:1004A0008DF8124014948DF85640179030461693EC
:1004B0008DF8205005928DF854408DF830408DF81D
:1004C0001050009169468DF80D408DF855401194FB
:1004D0008DF84C5000F01CFA1B9568058DF87140A2
:1004E0004FF406718DF8685019948DF880408DF89E
:1004F00070401F908DF878401D9030468DF88140F7
:10050000219119A900F0AAF922B070BD002070470E
:1005100001F096B8024810B500F034FE002010BD7E
:100520001C01002413460A460146044810B500F099
:10053000EBFD002801D04FF0FF3010BD1C0100245E
:1005400013460A460146044810B500F01DFF002876
:1005500001D04FF0FF3010BD1C0100242DE9F04701
:10056000836A00F1180592468C6800271E4655F8EC
:100570002320D2F80CC0BCF1000F73DB91F800C04F
:100580005FEA4C7C43D5D2F80CC0D1F824806FF3DD
:100590000F0C4CEA080CC2F80CC0D2F80CC04CF49A
:1005A000803CC2F80CC0D0F800C0DCF8608048F491
:1005B0008018CCF8608091F800C05FEA0C7C26D5EA
:1005C000B1F82C80D2F808C068F31F4CC2F808C0FC
:1005D000D2F80CC04CF4003CC2F80CC0D2F80CC0ED
:1005E000D1F830802CF4402C4CEA080CC2F80CC036
:1005F000D0F800C0DCF8648048F48018CCF864803F
:100600000068D0F850C04CF0806CC0F850C008783A
:10061000C0060BD59068D1F818C06FF30D0040EA02
:100620000C009060D06840F08060D060087810F0D6
:10063000140F18D0D0685B1C042B40F08040D060B1
:10064000D06840F00040D06000D31B1F012755F850
:100650002320D068002806DA55F82600C16821F06A
:100660000041C16099E0206810609068D4F804C02F
:100670006FF30D0040EA0C009060DFF8DCC17F1CD6
:10068000A0684FF0000950B1044600685060D2F8ED
:100690000880A08808EA0C0848EA004004E0C2F894
:1006A0000490906800EA0C0090600878C006D0685A
:1006B00012D5B1F8208020F4F00040EAC840D060A4
:1006C000D068D1F81C806FF3110040EA0800D060B8
:1006D000D06840F480201BE0D1F804806FF30E0056
:1006E00040EA0800D0600878C00707D0D068D1F889
:1006F000148020F4403040EA0800D060087880067A
:1007000007D5D068D1F8108020F0406040EA08009A
:10071000D0600878400707D59068D1F8288020F489
:10072000404040EA08009060D06840F00050D0603F
:10073000D06820F08040D060D06840F00040D060A9
:100740000878800774D5D068D1F80C8020F06070EC
:1007500040EA08006BE0D0685B1C042B20F080505E
:10076000D06000D31B1F55F82320D06820F0005024
:10077000D060D068002813DA55F8261000200AE06F
:10078000CA68761C042E22F00042CA6000D3361FCD
:10079000401C55F82610B842F2D30220BDE8F0877D
:1007A000A468206810609068D4F804806FF30D008E
:1007B00040EA08009060A0687F1C50B104460068C1
:1007C0005060D2F80880A08808EA0C0848EA004087
:1007D00004E0C2F80490906800EA0C009060087889
:1007E000C006D0680AD5D1F81C806FF3110040EA2A
:1007F0000800D060D06840F4802010E0D1F8048078
:100800006FF30E0040EA0800D0600878C00707D0F8
:10081000D068D1F8148020F4403040EA0800D0605D
:10082000D06840F00040D060D06820F08040D060B8
:10083000A06800288FD19068BAF1000F02D040F074
:10084000004001E020F000409060D06840F080500F
:10085000D06000202B61A1E7FFFF00C0F0B5026867
:1008600047F6020E274E4DF2010702F58052264D43
:10087000D1F800C01368254C23EA0E0343EA0C03A9
:1008800013600B79026891F80CE002F58052D1F800
:1008900008C01B0343EACE3343EA0C03D2F804C07A
:1008A0002CEA070C4CEA030CC2F804C002684F7B28
:1008B00002F580520B6A43EA0747D2F80031334011
:1008C0003B43C2F8003102680B7D02F5805291F87B
:1008D0001DC00F69D2F804611B0143EA0C332E409E
:1008E0003B431E43C2F8046100680B7F00F5805053
:1008F0008A69D0F8081142EAC37221401143C0F856
:100900000811F0BD00C0FEFFEFEFC0FFFFFFC07F8A
:10091000F0B50B790C7B0F688A68DB064D7B43EAE8
:10092000C4533A438E7B1A43CF7B91F810C042EAFE
:10093000855242EA4652BCF1000F42EA07537CD08E
:1009400000224C7C002C43EAC24278D000238E7CEB
:100950000D7F42EA43428F7FD1E9053442EA0642E5
:100960004E7F1A43224342EA0532002F42EAC62450
:1009700066D00022CD7F91F8203044EA8222002BFD
:1009800042EA45227ED0002504684B6A42EA0522ED
:1009900091F82870464D1A43CE6A236842EA07123E
:1009A00032432B401343236091F83C2091F83830B8
:1009B00091F8305091F83140520642EA036291F8C2
:1009C000326042EA854242EA4444BEB300220368F0
:1009D000384E4F6B44EA02425C683A4340F20F15CE
:1009E000344014435C60036891F840604C6CDA68F2
:1009F00044EA0624AA432243DA6091F854300A6D8F
:100A000091F84C4042EA4302ECB300240368B1F889
:100A100048504FF60D76E7011C6F47EA05452A431B
:100A2000344014431C67026891F8563091F85550D1
:100A300052F8904F43EA450303E02BE032E02BE00D
:100A40002CE024F003041C43146002688C6DD2F87F
:100A5000003D23F072032343C2F8003D91F860206B
:100A6000CC6D1AB35FF00003026891F8615091F801
:100A7000621044EA8310D2F8303D2C0144EAC101EF
:100A8000084301E00CE00FE023F07B010143C2F8D2
:100A9000301DF0BD012254E7012358E7012269E728
:100AA000012571E7012292E70124AFE70123DBE78B
:100AB000838004000080F8C07047000070B50446D1
:100AC00000F0BEFD0546601C02D0044800780444D6
:100AD00000F0B6FD401BA042FAD370BD30000024E8
:100AE000704710B500EB8104E46A0AB1042903D30E
:100AF0000121C165084610BD22602261E06840F016
:100B00008070E0602BB1A3606361E06840F000702A
:100B1000E060E06840F00040E060002010BD7047F9
:100B200000297DD00268126802F00C02CA620268D5
:100B30001268C2F3001281F828200268126802F0DD
:100B400060024A620268126842F30022521C81F875
:100B5000202002681268C2F34022CA770268126835
:100B600042F38022521C8A7702681268C2F3C022C4
:100B70004A7702681268C2F300320A770268126884
:100B800002F400528A610268126802F480424A61EB
:100B900002681268C2F300428A740268126842F363
:100BA0004042521C4A740268126842F3C042521C0E
:100BB0000A7402681268C2F30052CA7302681268AB
:100BC000C2F340528A7302681268C2F380524A73B9
:100BD00002681268C2F3C0520A730268126802F017
:100BE000E0628A6002681268C2F3C0620A71026839
:100BF000126802F0E0420A6002685268C2F30D0215
:100C00004A630268526842F30042521C81F8322063
:100C100002685268C2F3404281F83120026800E065
:100C200062E05268C2F3804281F830200268526864
:100C3000C2F3006281F8382002685268C2F344624D
:100C4000CA630268D268C2F3002281F840200268B9
:100C5000D26802F00F024A640268126FC2F34002C7
:100C600081F854200268126F42F3C012521C81F8BE
:100C70004C200268126F02F070020A650268126F5F
:100C8000120C8A640268D2F8902002F0010281F806
:100C900056200268D2F89020C2F3400281F8552015
:100CA0000268D2F8002D02F072028A650268D2F85A
:100CB000302D02F02302CA650268D2F8302DC2F34B
:100CC000C00281F862200268D2F8302DC2F300120F
:100CD00081F861200068D0F8300D40F38010401C8E
:100CE00081F86000002070470120704770B504460D
:100CF000006800F58050D0F8601149060DD5D0F895
:100D00003401400609D5204600F030FA206848F248
:100D1000400100F58050C0F86011206800F5805057
:100D2000D0F86011C9070DD0D0F83401C00709D040
:100D3000204600F027FB206848F2010100F58050B2
:100D4000C0F86011E026206800F58050D0F86011EE
:100D5000490425D5D0F83411490421D5E16D41F07D
:100D60000801E165D0F86011C9040DD5D0F8601113
:100D700041F2021211402166D0F8341121F44041B1
:100D8000C0F83411666508E0D0F860214FF4CD4119
:100D900002F4CD422266C0F860112046FFF7A0FEA3
:100DA00020680025D0F8B010C1F34131032907D1E4
:100DB000D0F8B80060666665204600F02DF96566DB
:100DC0002068D0F8B010C90608D5D0F8C00000F0EF
:100DD0006000A066204600F095F9A5662068D0F86E
:100DE000B010890608D5D0F8C00000F00F00E0660A
:100DF0002046FFF794FEE5664FF0B040D0F8A8100B
:100E0000490206D54FF48001C0F8A810204600F032
:100E1000BAFA70BDF8B5040002D0606D10B104E0FC
:100E20000120F8BD204600F0F9F8232060657048E5
:100E3000016841F002010160006800F002000090CA
:100E4000207A08B14FF4000001F042FF206800F55D
:100E50008050016841F00101016000F0F1FBE026E3
:100E600005464FF4FA7706E000F0EAFB401BB84273
:100E700001D9042049E0206800F580500068C007CF
:100E8000F2D12068D0F8000220F4706501F07EFBFA
:100E9000584A594902448A4202D245F4007516E084
:100EA000564A574902448A4202D245F440750EE040
:100EB0005449554A0144914209D35449544A08447B
:100EC000904202D245F4807501E045F480652068C7
:100ED000C0F8005201F05AFB4E4A2168B0FBF2F014
:100EE000401EC1F8DC002046FFF7A4FA206800F598
:100EF0008050D0F8001121F4E01141F40021C0F835
:100F000000116169880703D00120E065666587E705
:100F1000206847F6FE7300F58050D0F808219A4308
:100F200042EA4101C0F8081100210846E26800EBDE
:100F3000400504EB800302EBC50211605160916033
:100F4000D160401C04289A61F0D3A1620323206879
:100F500000F58050C0F82C312068E26800F5805020
:100F6000C0F814212068E26800F58050C0F8202104
:100F70005FF00002206902EB420604EB820500EB01
:100F8000C600016041608160C16001614161521C25
:100F9000042AE862EED3E16321646164E164A16440
:100FA000206800F58050C0F830312068226900F5D3
:100FB0008050C0F81C212268206902F5805200F59B
:100FC000D860C2F82801D4E900208088C2F8000364
:100FD00060682368D0F801500278102042EA0522A8
:100FE000C3F80423E1656065A0650020F8BD00003A
:100FF000F444025800D3CEFEC0E1E40040F1E9FD24
:1010000040787D0100796CFC005A6202001F0AFAE8
:1010100080F0FA0240420F007047000070B586B0C1
:10102000044614216846FFF79DF93149206888423B
:101030005CD13048016841F400410160016801F46D
:1010400000410591016841F480310160016801F4BB
:1010500080310591016841F400310160006800F4BD
:101060000030059023480830016841F00401016018
:10107000016801F004010591016841F0010101607E
:10108000016801F001010591016841F00201016070
:10109000006800240B26694600F00200059032200B
:1010A000009002251448CDE90154CDE9034600F033
:1010B0009DF986200090CDE9015410486946CDE99C
:1010C000034600F093F94FF460500090CDE90154CD
:1010D0000B486946CDE9034600F088F900223D201F
:1010E000114600F025FB3D2000F014FB06B070BD5A
:1010F00000800240D84402580008025800000258FC
:1011000000040258704700002DE9F04104460068D1
:101110001E46D0F80032DB0719D1D0F8003223F098
:10112000787343EA415121F4F81141EA024141F058
:101130000D01C0F8001200F083FA4FF47A770546EB
:1011400008E000BF00F07CFA401BB84202D9012041
:10115000BDE8F0812068D0F80002C007F2D1206815
:10116000D0F8040280B230600020F1E7704710B57B
:1011700011B1826D102A01D0012010BDFFF7C8FB0C
:10118000002010BD70B505460068D0F8000220F4BC
:10119000706401F0FBF91149114A0144914202D2F5
:1011A00044F4007416E00F4A0F4902448A4202D206
:1011B00044F440740EE00D4A0D4902448A4209D3BA
:1011C0000C4A0D491044884202D244F4807401E074
:1011D00044F480642868C0F8004270BD00D3CEFE9D
:1011E000C0E1E40040F1E9FD40787D0100796CFC4C
:1011F000005A6202001F0AFA80F0FA0210B5416D2F
:10120000102901D0012010BD232141651022016861
:1012100022230C6844F002040C6001680C6844F05E
:1012200001040C600168D1F8004D44F00104C1F8DC
:10123000004D016801F58051D1F8044144F00104EA
:10124000C1F80441016801F58051D1F8084144F02A
:101250000104C1F80841016801F58051D1F86041ED
:1012600044F48174C1F8604142658365002010BD7B
:10127000416D49B3232141651022016801F5805178
:10128000D1F8043123F00103C1F80431016801F5FC
:101290008051D1F8083123F00103C1F80831016809
:1012A0000B6823F001030B600168D1F8003D43F0A7
:1012B0000103C1F8003D01680B6823F002030B60D5
:1012C0004265826500207047012070472DE9F0419A
:1012D0009046044619B1606D102804D050E0E06DCE
:1012E00040F0010007E000222046FFF737F920B167
:1012F000E06D40F00200E06542E0A06A04EB80018E
:10130000401C04288D69A06201D3001FA062014621
:10131000206804EB810100F580508969C0F8201134
:1013200000F08EF9102706461EE0206800F5805078
:10133000D0F86001C0040CD5E06DE02140F0080059
:10134000E065206800F58050D0F860012066616596
:1013500016E0B8F1FF3F07D000F072F9811B41455C
:1013600009D8B8F1000F06D0E8680028DDDB676512
:101370000020BDE8F081E06D40F00400E0656765A5
:101380000120F6E77047704770B504460068D0F852
:101390000052ED071FD1D0F800029BB2124D20F091
:1013A0007870C5F8043240EA415020F4F81040EA61
:1013B000024020F00C00001D40F00100C5F80002C2
:1013C00000F03EF94FF47A76054606E000F038F971
:1013D000401BB04201D9012070BD2068D0F8000246
:1013E000C007F3D170BD0000008002402DE9FC4F22
:1013F00001257E4C00234FF0030A4FF0B04E4FF012
:101400000F0BEBE005FA03F637403A0077D04F6850
:10141000012F05D0022F03D0112F01D0122F1AD186
:1014200087684FEA4308D1F80CC00AFA08F927EA9E
:1014300009070CFA08FC4CEA070CC0F808C047681A
:1014400091F804C0B743CCF3001C0CFA03FC4CEA3F
:10145000070CC0F804C0C6684FEA430CD1F80880F6
:10146000E1460AFA0CF7BE43019708FA09F848EA80
:101470000608C0F80C804E68022E01D0122E12D140
:10148000DE084FEA437C00EB860600960F69366A59
:101490004FEADC6C0BFA0CF807FA0CF726EA0806A0
:1014A0003743009E37620E790768DDF804C006F006
:1014B000030606FA09F627EA0C073E4306604E6863
:1014C000F6001CD54A4E376847F002073760366889
:1014D0009F0706F00206009623F0030606F1B046C9
:1014E000B1463F0FD6F80864DFF808810BFA07FC15
:1014F000404526EA0C0603D14FF0000C41E06CE0B9
:10150000DFF8F4C0604502D14FF0010C39E0DFF89C
:10151000ECC0604502D14FF0020C32E0DFF8E0C0D1
:10152000604502D14FF0030C2BE0DFF8D8C06045D6
:1015300002D14FF0040C24E0DFF8CCC0604502D1AA
:101540004FF0050C1DE0DFF8C4C0604502D14FF03C
:10155000060C16E0DFF8B8C0604502D14FF0070C6A
:101560000FE0DFF8B0C0604502D14FF0080C08E092
:10157000DFF8A4C0604502D14FF0090C01E04FF044
:101580000A0C0CFA07FC4CEA060CC9F808C42668D9
:101590004F6826EA0206FF0300D5164326606668F8
:1015A0004F6826EA0206BF0300D516436660D1F8ED
:1015B00004C07646DEF800705FEACC2C27EA02070A
:1015C00000D517433760D1F804C077685FEA8C2CE8
:1015D00027EA020700D5174377605B1C0A681746A5
:1015E000DA407FF40FAFBDE8FC8F000080000058A8
:1015F000F44402580000025800040258000802583F
:10160000000C02580010025800140258001802582A
:10161000001C02580020025800240258426931EA96
:10162000020200D10904816170470AB181617047EB
:101630000904FBE701480068000C70470010005CDB
:10164000014880687047000030000024024881682B
:10165000027811448160704730000024032010B5E7
:1016600000F086F800F0D8FF0F4A1049146813689C
:10167000C4F3032203F00F038A5CC95C02F01F026B
:1016800001F01F01D0400A4A20FA01F11160094916
:101690000860002000F010F808B1012010BD00F033
:1016A0002BF8002010BD00001844025830B9000883
:1016B000400000243C00002470B50D4D04462878FD
:1016C000A0B14FF47A71B1FBF0F00A490968B1FB9F
:1016D000F0F001F007FB48B9102C07D20022214698
:1016E000501E00F025F800206C6070BD012070BD18
:1016F000300000243C000024054808B5016841F092
:1017000002010160006800F00200009008BD0000C6
:10171000F4440258002809DB410900F01F02890047
:10172000012001F1E0219040C1F800017047000064
:101730000E4BF0B41B680D46C3F30223C3F107063A
:10174000042E00D90426191D072901D2002300E028
:10175000DB1E012404FA06F19C40491E2940641E48
:10176000994014402143F0BC02F0F0BE0CED00E0C3
:10177000064900F0070210B54FF6FF040868044B55
:10178000204040EA02201843086010BD0CED00E044
:101790000000FA05134970B50A68D243520705D50F
:1017A000096801F00701814213D118E00A6822F0AC
:1017B000070202430A60FFF743FF0A4D4FF47A76AF
:1017C0000446083D07E000BFFFF73AFF001BB042A8
:1017D00001D9012070BD2868C0438004F4D40020E2
:1017E00070BD00000C48025810B500F0CFFE05494E
:1017F0000968054AC1F30211515C01F01F01C8409C
:1018000010BD00002044025830B90008494930B5E5
:10181000484C0B1D0A68143409681D68246802F0DE
:101820000303C5F30012C1F30531C4F3CC0400294E
:1018300014FB02F200EE102AF8EE400A75D03F4A7F
:101840009FED3D1AB7EE000A6BB1DFED3D1A012B9B
:1018500001D0022B64D002EE101A1168F8EE422A71
:1018600081EEA22A21E0334C283C23689B0612D546
:10187000344B246801EE901A1168C4F3C104F8EEE9
:10188000612AE34001EE903AC1F30801F8EE611AD3
:1018900081EEA22A0BE001EE901ADFED2B2A00BFA9
:1018A000F8EE611A116882EEA12AC1F3080101EE77
:1018B000901A1168F8EE611A40EE811A71EE800AF2
:1018C00062EE200AC1F3462101EE101AB8EE411A69
:1018D00031EE001AC0EE811ABCEEE11A80ED001A5A
:1018E0001168C1F3064101EE101AB8EE411A31EE4B
:1018F000001AC0EE811ABCEEE11A80ED011A1168DF
:10190000C1F3066101EE101AB8EE411A31EE000A79
:1019100080EE801ABCEEC10A80ED020A30BD04E000
:1019200001EE901ADFED092ABAE70021016041605B
:101930008160F3E728440258000000393844025817
:101940000024744A0090D0030024744C20BCBE4B89
:10195000494930B5484C0B1D0A681C3409681D689C
:10196000246802F00303C5F30022C1F30551C4F358
:10197000CC04002914FB02F200EE102AF8EE400A13
:1019800075D03F4A9FED3D1AB7EE000A6BB1DFED0F
:101990003D1A012B01D0022B64D002EE101A1168FF
:1019A000F8EE422A81EEA22A21E0334C283C23683B
:1019B0009B0612D5344B246801EE901A1168C4F3CB
:1019C000C104F8EE612AE34001EE903AC1F3080148
:1019D000F8EE611A81EEA22A0BE001EE901ADFED1B
:1019E0002B2A00BFF8EE611A116882EEA12AC1F31A
:1019F000080101EE901A1168F8EE611A40EE811AA2
:101A000071EE800A62EE200AC1F3462101EE101A3F
:101A1000B8EE411A31EE001AC0EE811ABCEEE11A9E
:101A200080ED001A1168C1F3064101EE101AB8EEFC
:101A3000411A31EE001AC0EE811ABCEEE11A80EDB7
:101A4000011A1168C1F3066101EE101AB8EE411ACD
:101A500031EE000A80EE801ABCEEC10A80ED020A67
:101A600030BD04E001EE901ADFED092ABAE700214B
:101A7000016041608160F3E72844025800000039AA
:101A8000404402580024744A0090D0030024744C4F
:101A900020BCBE4B2DE9FC5F044650F8241B0025FA
:101AA00000902E460801FE4FDFF8F8831DD5606ECA
:101AB00050B1B0F5801F0CD0B0F5001F0ED0B0F5BE
:101AC000401F1DD001250FE0386840F40030386019
:101AD00016E00221201D01F03BFC03E000980221EA
:101AE00001F0C6FC05000BD02E462088C00523D58A
:101AF000606D05281ED2DFE800F00C11161B1B00DC
:101B0000626ED8F8001021F440111143C8F800109B
:101B1000EBE7386840F40030386009E00021201D10
:101B200001F016FC03E00098002101F0A1FC05463D
:101B30006DB100E001252E462088800528D5A06DD6
:101B400080281ED00CDC90B140280ED114E0626DCC
:101B5000D8F8001021F007011143C8F80010EBE796
:101B6000C02813D0B0F5807F10D001250FE0386871
:101B700040F40030386009E00021201D01F0E8FB4E
:101B800003E00098002101F073FC054695B12E4654
:101B90002088DFF81093400509F108092CD5D4F806
:101BA000A400B0F5800F20D00DDCA0B1B0F5001F6F
:101BB0000FD115E0A26DD8F8001021F4E0711143A7
:101BC000C8F80010E4E7B0F5C00F13D0B0F5000F6F
:101BD00010D001250FE0386840F40030386009E08B
:101BE0000021201D01F0B4FB03E00098002101F06A
:101BF0003FFC054675B12E46208800052DD5D4F84A
:101C0000A800B0F1007F21D00EDCA8B1B0F1807F38
:101C100010D116E0D4F8A420D9F8001021F4600106
:101C20001143C9F80010E7E7B0F1407F13D0B0F1DD
:101C3000806F10D001250FE0386840F40030386024
:101C400009E00021201D01F083FB03E00098002142
:101C500001F00EFC05468DB12E462068DFF844B237
:101C60008001ABF1040B1FD5A06CD8B110280FD0A8
:101C7000202812D0302815D0012514E0D4F8A8204F
:101C8000D9F8001021F0E0611143C9F80010E4E731
:101C9000386840F40030386004E00221201D01F073
:101CA00057FB05466DB12E462088C0042BD5E06D4C
:101CB000B0F5005F20D00DDCA0B1B0F5805F0FD192
:101CC00015E0A26CDBF8001021F030011143CBF8D5
:101CD0000010E9E7B0F5405F13D0B0F5804F10D0A9
:101CE00001250FE0386840F40030386009E0002139
:101CF000201D01F02DFB03E00098002101F0B8FB4E
:101D0000054685B12E462088800429D5206EB0F581
:101D1000403F23D010DC08B3B0F5803F14D0B0F5BD
:101D2000003F0FD115E0E26DD8F8001021F4E0413A
:101D30001143C8F80010E6E7B0F5802F0ED0B0F5DB
:101D4000A02F0BD001250AE00121201D01F000FB8E
:101D500003E00098012101F08BFB05468DB12E4672
:101D6000208840042AD5D4F8AC00B0F1405F23D0DD
:101D700010DC08B3B0F1805F14D0B0F1005F0FD178
:101D800015E0226ED8F8001021F4E0211143C8F8C4
:101D90000010E5E7B0F1804F0ED0B0F1A04F0BD0AE
:101DA00001250AE00121201D01F0D2FA03E000988C
:101DB000012101F05DFB05466DB12E46208800042F
:101DC0001FD5E06ED8B1B0F1805F0ED0B0F1005FEA
:101DD00010D0012514E0D4F8AC20D9F8001021F07F
:101DE000E0411143C9F80010E8E7386840F40030DA
:101DF000386004E00121201D01F0AAFA05466DB10A
:101E00002E462068C0011ED5606CD0B101280ED0CE
:101E1000022811D0032814D0012513E0E26ED8F86F
:101E2000001021F040511143C8F80010E9E738686C
:101E300040F40030386004E00221201D01F088FAEF
:101E4000054665B12E462068400257D51648016800
:101E500041F480710160FFF7F3FB82460EE0626C93
:101E6000DBF8001021F003011143CBF80010EAE782
:101E7000FFF7E6FBA0EB0A0064283DD80A4800689B
:101E8000C005F5D57DBBDFF81CA0B4F8B0100AF191
:101E9000200ADAF8000001F4407100F4407005E017
:101EA0002C4402585044025800480258884211D02D
:101EB000DAF80010DAF8002021F4407142F48032A0
:101EC000CAF80020DAF8002022F48032CAF8002094
:101ED000CAF80010D4F8B000B0F5807F21D1FFF728
:101EE000AFFB019019E008E0FFF7AAFB0199411A46
:101EF00041F28830814210D903252E462078DFF840
:101F00000CA4C0073DD0A06F182838D026DC80B3C1
:101F1000082829D0102825D12CE0DAF80000800705
:101F2000E2D5D4F8B010C1F301200328F8480DD051
:101F3000016821F47C510160B4F8B020DAF8001097
:101F4000C2F30B021143CAF80010D7E7F14A036845
:101F500002EA111223F47C511143ECE720280ED041
:101F600028280CD001250BE00121201D01F0F0F9FB
:101F700004E004E00098012101F07AFA05465DB121
:101F80002E46207880071ED5606F062819D2DFE81C
:101F900000F0160C11161616A26FDAF8001021F0D8
:101FA00038011143CAF80010EBE70121201D01F0B0
:101FB000CFF903E00098012101F05AFA054675B106
:101FC00000E001252E46207840071FD5D4F8900068
:101FD000062819D2DFE800F0160C11161616626FEB
:101FE000DAF8001021F007011143CAF80010EAE7FF
:101FF0000121201D01F0ACF903E00098012101F05E
:1020000037FA05469DB100E001252E46207880066E
:102010002BD5D4F88C00B0F1405F24D011DC10B384
:10202000B0F1805F15D0B0F1005F10D116E0D4F8A8
:102030009020D9F8001021F007011143C9F80010D1
:10204000E4E7B0F1804F0ED0B0F1A04F0BD00125E6
:102050000AE00021201D01F07BF903E00098022135
:1020600001F006FA05468DB12E46207840062BD5A4
:10207000D4F89800B0F5406F24D011DC10B3B0F55F
:10208000806F15D0B0F5006F10D116E0D4F88C2019
:10209000DAF8001021F0E0411143CAF80010E4E73B
:1020A000B0F5805F0ED0B0F5A05F0BD001250AE03F
:1020B0000021201D01F04CF903E00098022101F0FD
:1020C000D7F905468DB12E46207800062BD5D4F8D9
:1020D0009C00B0F5C04F24D011DC10B3B0F5005F08
:1020E00015D0B0F5804F10D116E0D4F89820D9F86B
:1020F000001021F4E0511143C9F80010E4E7B0F5F5
:10210000004F0ED0B0F5204F0BD001250AE0002182
:10211000201D01F01DF903E00098022101F0A8F94B
:1021200005464DB12E46207800071ED5D4F8800014
:10213000B0F5805F0AD00FE0D4F89C20D9F80010E9
:1021400021F460411143C9F80010ECE70098022126
:1021500001F08EF900B10126D4F88020DAF80010E1
:1021600021F440511143CAF800102078C00613D55D
:10217000D4F89400B0F5807F05D10098022101F0D9
:1021800077F900B10126D4F89420D9F8001021F491
:1021900040711143C9F800102068000316D5D4F827
:1021A000A00038B1B0F5803F09D0B0F5003F0BD0AA
:1021B00001250AE00021201D01F0CAF803E0009883
:1021C000022101F055F9054685B12E4620684003ED
:1021D00022D5D4F88400B0F5801F11D0B0F5001FCF
:1021E00013D0B0F5401F15D0012514E0D4F8A0207D
:1021F000D9F8001021F440311143C9F80010E5E787
:10220000386840F40030386004E00098012101F0A3
:102210002FF9054655B12E462068C0031CD5E06C49
:1022200070B1B0F5803F10D0012514E0D4F88420BF
:10223000DAF8001021F440111143CAF80010EBE75E
:10224000386840F40030386004E00221201D01F0BD
:102250007FF80546CDB12E462068800005D5009850
:10226000022101F005F900B10126206880031BD589
:10227000E06FB8B1B0F5807F10D0B0F5007F11D01D
:10228000B0F5407F0ED001250DE0E26CDBF80010C8
:1022900021F480311143CBF80010DDE7386840F4B9
:1022A00000303860C5B32E462068C00207D5226FC3
:1022B000D8F8001021F000411143C8F80010206840
:1022C000800207D5A26ED8F8001021F0807111436A
:1022D000C8F800102068400009D50D48016821F4B5
:1022E000004101600168D4F8B82011430160206802
:1022F000002807DA226DDBF8001021F0405111436D
:10230000CBF8001096B10120BDE8FC9F5444025860
:1023100010440258CFFFFF00FFE7E26FDAF8001029
:1023200021F440711143CAF80010BDE70020EBE72B
:102330002DE9F05F04000F467ED0DFF83882D8F830
:10234000000000F00F00B8420CD2D8F8001021F0C5
:102350000F013943C8F80010D8F8000000F00F0052
:10236000B84269D12078844D40070AD52069296890
:1023700001F07001884204D9296821F070010143FD
:10238000296020787C4E361D00070AD560693168C7
:1023900001F07001884204D9316821F070010143D5
:1023A00031602078C0060AD5A069316801F4E06187
:1023B000884204D9316821F4E0610143316020781A
:1023C000DFF8B4B180060BF1080B0CD5E169584673
:1023D000DBF8002002F07002914204D9026822F07A
:1023E00070020A430260207880070AD5E0682968F5
:1023F00001F00F01884204D9296821F00F0101433F
:1024000029602078C0073ED05B49A2682868183947
:1024100020F47060104328606068022818D00328F8
:1024200019D00968012819D0490700294ADADFF8CC
:1024300048A1AAF1080A00E044E0DAF8002022F0FE
:1024400007020243CAF80020FFF7FAF8814612E0BB
:1024500009688903E9E709688901E6E7C905E4E74E
:10246000FFF7EEF8A0EB090141F28830814202D972
:102470000320BDE8F09F6168DAF8000000F0380042
:10248000B0EBC10FECD1207880070AD5E06829684D
:1024900001F00F01884204D2296821F00F010143A5
:1024A0002960D8F80010404601F00F01B9420BD95D
:1024B000016821F00F0139430160006800F00F004E
:1024C000B84201D00120D4E7207840070AD520691E
:1024D000296801F07001884204D2296821F0700156
:1024E00001432960207800070AD56069316801F04E
:1024F0007001884204D2316821F0700101433160DB
:102500002078C0060AD5A069316801F4E0618842EC
:1025100004D2316821F4E061014331602078800603
:102520000CD5E1695846DBF8002002F070029142B8
:1025300004D2026822F070020A43026000F06CF8D4
:102540000E492A682B68C2F3032203F00F038A5C4A
:10255000C95C02F01F0201F01F01D040084A20FAB6
:1025600001F111600749086007480068BDE8F05FA5
:10257000FFF7A2B8002000521844025830B90008F2
:10258000400000243C0000243400002430B500F05A
:1025900043F80B4A0B490C4B15681468C5F303222A
:1025A00004F00F048A5C095D02F01F0201F01F01B4
:1025B000D040064A20FA01F119601060084630BD8B
:1025C0001844025830B90008400000243C000024A0
:1025D00000B5FFF7DBFF05490968054AC1F30211A1
:1025E000515C01F01F01C84000BD00001C440258AE
:1025F00030B9000800B5FFF7C9FF05490968054A69
:10260000C1F30221515C01F01F01C84000BD000070
:102610001C44025830B90008454970B5454809685E
:10262000434B103B11F0380208D00111082A03D0A7
:10263000102A0BD0182A0BD0084670BD19688906DD
:10264000FBD51968C1F3C101C84070BD3A4870BDDF
:102650003749374D18310C1D24350A68096826683A
:102660002D6802F0030406F00102C1F30511C5F361
:10267000CC0515FB02F200EE102AB8EE400AE9B3D1
:102680002F4ADFED2E0AB7EE001A6CB1DFED2D1ADE
:10269000012C01D0022C43D002EE101A1068F8EE83
:1026A000422A81EEA22A1EE01C68A40611D51B68EE
:1026B00001EE901A1168C3F3C103F8EE612AD84005
:1026C00001EE900AC1F30800F8EE611A81EEA22A29
:1026D0000BE001EE901ADFED1C2A00BFF8EE611A44
:1026E000106882EEA12AC0F3080001EE900AF8EE0D
:1026F000611A40EE201A31EE810A00E015E022EE68
:10270000000A1068C0F34620401C00EE900AF8EE64
:10271000600A80EE201ABCEEC10A10EE100A70BDED
:1027200001EE901ADFED092AD8E7002070BD000005
:10273000104402580090D00340787D010000003919
:10274000304402580024744A0024744C20BCBE4B10
:10275000F0B50D461F49204C002887B016464FF0B3
:1027600000004FF002020F684FF0030319D047F04A
:1027700004070F60096801F004010591110200913E
:10278000CDE90120CDE9033014486946FEF72EFE5D
:10279000206845EAC61120F07E400843206007B05B
:1027A000F0BD47F001070F60096801F001010591D4
:1027B0004FF480710091CDE90120CDE90330084844
:1027C0006946FEF713FE2068354320F0FE7028436B
:1027D000E4E70000E04402581044025800080258A0
:1027E000000002582DE9F05F04007CD0FF4F2078F4
:1027F000FE4D1837DFF8F493103DC00748D0D9F8E4
:102800000000396800F03800102815D0182803D1CE
:1028100001F0030002280FD06068B0F5803F12D0AD
:1028200010B1B0F5A02F18D0286820F480302860AF
:10283000286820F4802009E02868800328D5606893
:102840000028D2D024E0286840F4803028606068F6
:1028500088B1FEF7F5FE064609E0286840F48020BE
:102860002860F0E7FEF7ECFE801B64287ED828681D
:102870008003F7D50CE0FEF7E3FE064605E000BF57
:10288000FEF7DEFE801B6428F0D828688003F7D4AA
:10289000207841F20308D54E0C3E80074BD5D9F87D
:1028A0000000396810F038000ED0182801D18807D0
:1028B0000AD0E06868B3296821F019010143296052
:1028C000FEF7BEFE824619E02868400702D5E068A0
:1028D00000288AD0FEF7AEFE404513D82069316843
:1028E00021F47C3100E0BEE041EA0030306022E0BB
:1028F000FEF7A6FEA0EB0A000228B7D8286840071A
:10290000F6D5E7E7207C316821F0FE4141EA00601E
:10291000ECE7286820F001002860FEF791FE82466F
:1029200006E000BFFEF78CFEA0EB0A0002289DD84F
:1029300028684007F6D42078C00659D5D9F8000099
:10294000DFF8A8B2396800F03800ABF1040B0828B2
:1029500012D0182803D101F0030001280CD0E0693F
:102960000028286834D040F0800000E0DCE02860D7
:10297000FEF766FE824623E02868C00523D5E0699D
:10298000802870D11FE000BF94F82000316821F04A
:10299000F84141EA806030602AE000BF94F82010DE
:1029A000DBF8002022F07C5242EA0161CBF80010F3
:1029B0001EE000BFFEF744FEA0EB0A0002289CD8F0
:1029C0002868C005F6D5FEF735FE4045E6D8DBE7BA
:1029D00020F080002860FEF733FE064605E000BFC9
:1029E000FEF72EFE801B022887D82868C005F7D482
:1029F0002078000729D57D48616964300029804628
:102A0000016811D041F001010160FEF719FE064690
:102A100005E000BFFEF714FE801B022887D8D8F817
:102A200000008007F6D510E021F001010160FEF7FB
:102A300007FE064605E000BFFEF702FE801B0228E7
:102A400072D8D8F800008007F6D42078800623D505
:102A5000A0690028286810D040F480502860FEF754
:102A6000EFFD064605E02EE1FEF7EAFD801B022899
:102A70005AD828688004F7D50EE020F480502860EA
:102A8000FEF7DEFD064604E0FEF7DAFD801B0228B5
:102A90004AD828688004F7D4207840074FD5DFF85B
:102AA0005081D8F8001041F48071C8F80010FEF78A
:102AB000C7FD064605E000BFFEF7C2FD801B642887
:102AC00032D8D8F80000C005F6D5484EA068603668
:102AD00001280AD008B1052813D0306820F0010081
:102AE0003060306820F0040002E0306840F00100FF
:102AF0003060A06841F2883A90B1FEF7A1FD8046AF
:102B00000AE0306840F004003060EEE7FEF798FD20
:102B1000A0EB0801514507D830688007F6D50EE0D4
:102B2000FEF78EFD804607E084E000BFFEF788FDDB
:102B3000A0EB080151457DD830688007F6D4606A63
:102B4000F0B3DFF8A880D9F8001008F12008C1F32D
:102B5000C20103296FD00228286820F08070286005
:102B600003D0FEF76DFD044682E0FEF769FD0646E0
:102B700005E000BFFEF764FD801B022875D82868B9
:102B80008001F7D4E26A40F2F331386854F8283F04
:102B9000884340EA021018433860217B4FF4FE0C52
:102BA00022894FF0FE47208A4902267D521E401E90
:102BB000A1F5007189B20CEA0040C2F3080200E0FE
:102BC00083E01143761E0143084807EA0662114379
:102BD000064A1C30C8F800102432016821F00101B7
:102BE000016011684FF6F876B14303E010440258D3
:102BF00000480258236A41EAC30111600168A269D2
:102C000021F00C01114301600168E26921F0020129
:102C100011430160016841F480310160016841F4B1
:102C200000310160016841F480210160016841F0D8
:102C3000010101E019E01FE00160286840F08070A8
:102C40002860FEF7FDFC044605E000BFFEF7F8FC37
:102C5000001B022809D828688001F7D535E000BF9D
:102C6000FEF7EEFC001B022802D90320BDE8F09F0E
:102C700028688001F4D428E039680128D8F80000D9
:102C800021D0A26A01F0030393421CD1E26AC1F38E
:102C900005118A4217D1216BC0F30802491E8A42EE
:102CA00011D1616BC0F34622491E91420BD1A16B39
:102CB000C0F30642491E914205D1E16BC0F30660A4
:102CC000491E814201D00120D0E70020CEE700005C
:102CD00003490A6822F4600202430A607047000058
:102CE00004040058401EB0F1807F10B501D30120CC
:102CF00010BD4FF0E02460610F21601701F026FC49
:102D00000020A0610721216110BD30B590F87C1032
:102D1000012918D0012280F87C202421C0F88010DD
:102D20000022202450F8601B0B680D6823F000532C
:102D300025F001050D60426050F8601C0B600462D4
:102D40000277104630BD022030BD70B5044690F8C1
:102D50007C0001281DD0012284F87C202420C4F8A6
:102D6000800020680568026822F001020260206885
:102D7000826822F060620A438260204600F0B4FC60
:102D80002268202100201560C4F8801084F87C009F
:102D900070BD022070BD70B5044690F87C0001281B
:102DA0001DD0012284F87C202420C4F880002068F3
:102DB0000568026822F0010202602068826822F041
:102DC00060420A438260204600F08EFC2268202187
:102DD00000201560C4F8801084F87C0070BD0220CB
:102DE00070BD10B5040003D0D4F8800010B107E026
:102DF000012010BD002084F87C00204600F026F859
:102E00002420C4F880002068016821F001010160DD
:102E1000204600F02FFD0128EBD0A06A10B120461B
:102E200000F094FC2068416821F4904141602068E2
:102E3000816821F02A0181602068016841F0010168
:102E400001602046BDE8104000F0E4BC70B586B0DB
:102E5000044614216846FDF785FA1C49206888421B
:102E600031D11B48016841F400310160006800F471
:102E70000030059016480838016841F001010160F2
:102E8000016801F001010591016841F0080101604C
:102E9000006800240726694600F008000590082015
:102EA000009002250B48CDE90154CDE90346FEF719
:102EB0009DFA20200090CDE9015407486946CDE9EC
:102EC0000346FEF793FA06B070BD000000440040D0
:102ED000E844025800000258000C02582DE9F8435B
:102EE0000446D0F880001F4616460D46202852D1D1
:102EF000DDB1D6B194F87C0001284CD0012284F8D1
:102F00007C2021214FF00008C4F88880C4F880108C
:102F10001834FEF795FB814654F8100CA687E68717
:102F2000183CB0F5805F03D004E00120BDE8F883D1
:102F3000206910B12E46002510E000260EE0802109
:102F4000204601F09FFAB8B9C6B116F8010B216806
:102F50008862B4F85600401EA4F85600B4F8560033
:102F60004B464FF0000200970028E8D14FF0400197
:102F7000204601F087FA38B10320D7E735F8020B75
:102F80002168C0F30800E3E72021C4F88010002086
:102F900084F87C80CAE70220C8E7FEE738B504461B
:102FA0006A46002000900121636920689847002844
:102FB0006FF0040525DB6369012120686A469847A4
:102FC00000281EDB0098400701D4012038BD63694A
:102FD000002120686A469847002812DB0098C10447
:102FE00008D44FF4045181431CD081041CD4C00583
:102FF0001CD415E063691F2120686A4698470028A1
:1030000001DA284638BD0098C10401D4062038BD35
:10301000C0F38200062805D0022805D0052805D077
:10302000052038BD022038BD032038BD042038BD3E
:103030002DE9F8430446002000900646606800250C
:10304000A8BBA06800B18047202020606FF0040773
:10305000636912216A4630469847002801DA3D46E6
:1030600007E0009800F01F00B04202D10025266062
:1030700002E0761C1F2EEBD920681F2802D96FF0C2
:10308000020530E07DBB236900214FF400429847E0
:10309000002830DB6369002120686A4698470028D1
:1030A00027DBA06980474FF4FA7806460CE00EE073
:1030B000A0698047801B404518D8636900212068BB
:1030C0006A469847002814DB00980004F0D4A069F1
:1030D00080474FF4FA670646A0698047801BB842D4
:1030E000FAD9012060602846BDE8F8836FF0010539
:1030F000F9E73D46F7E76FF00305F4E788B1CA68E2
:103100007AB18A686AB10A695AB10A6882604A6803
:10311000C260CA6842618A680261096981610020EF
:1031200070474FF0FF3070472DE9F04387B014210E
:103130006846FDF717F93148016841F080010160E8
:10314000016801F080010591016841F0040101600E
:10315000016801F004010591016841F0010101607D
:10316000016801F001010591016841F0020101606F
:10317000016801F002010591016841F00801016058
:10318000016801F008010591016841F0100101603A
:10319000006844F20107DFF86880002200F01000A8
:1031A000394605904046FEF740FADFF85890002275
:1031B00002214846FEF739FA0024009701256946A6
:1031C00003260396CDE901544046FEF70FF9280285
:1031D000009002270C48CDE90174694603940494D9
:1031E000FEF704F90097694603964846CDE9015475
:1031F000FEF7FCF807B0BDE8F0830000E044025899
:10320000000402580010025800000258FEB503F0F6
:10321000CDFB2F4B0026DFF8BCC0191D2E4F0A1D19
:103220001868DB7805BA90FA80FE46EA030400BA13
:1032300005F47F452406184344EA05240EF47F056F
:10324000A1F1100344EA152444EA106018600868EC
:10325000C97805BA04BA00BA0B06084304F47F44DF
:1032600005F47F05A2F1100143EA042343EA152384
:1032700043EA106008601068D17803BA04BA00BA53
:103280000A060843124903F47F43091F04F47F042C
:1032900042EA03220B4642EA142242EA1060086026
:1032A0000A1F0E488DE8C010083903F027FF0B48AD
:1032B00003F0C8FF094890F82B004007074803D5E2
:1032C000BDE8FE4004F011B8BDE8FE4003F0C0BF09
:1032D0000C000024F95300081D560008EC000024DF
:1032E0001848002110B5164C0C224FF4E13304604D
:1032F000C0E90131C160C0E904128161C1610162AC
:1033000041628162FFF76DFD08B1FDF7D5FB0D4805
:103310000021FFF740FD08B1FDF7CEFB0948002171
:10332000FFF713FD08B1FDF7C7FB0648FFF7EDFCFB
:10333000002803D0BDE81040FDF7BEBB10BD000063
:1033400000440040AC020024FEE7704770470000D4
:103350002DE9F047454D044689464FF0000A28689C
:10336000C04380070AD0414E283E306820F080607C
:103370003060FEF765F90746B04608E00120BDE879
:10338000F08700BFFEF75CF9C01B022867D8D8F8A9
:1033900000000001F6D4206829684FF4FE0721F4EC
:1033A0007C313E0241EA00302860207AA389B4F8DB
:1033B00004C040022D4D2D495B1E227CACF1010C56
:1033C0001035091DA0F5007080B2521ECCF3080C18
:1033D00007EA034340EA0C00184306EA026210437E
:1033E00028600868626920F0C000104308600A681D
:1033F000A06922F0200202430A60281D0A6822F018
:1034000010020A6002684FF6F873E4699A4342EAD0
:10341000C40202600868B9F1000F40F010020A60AF
:1034200011D00868B9F1010F11D040F40010086004
:10343000D8F80000444640F08060C8F80000FEF76D
:10344000FFF805460DE0086840F40020EFE740F47F
:103450008010ECE7FEF7F4F8401B022801D90320A6
:103460008DE720680001F5D5504688E728440258CA
:103470002DE9F047454D044689464FF0000A28687B
:10348000C04380070AD0414E283E306820F080506B
:103490003060FEF7D5F80746B04608E00120BDE8E9
:1034A000F08700BFFEF7CCF8C01B022867D8D8F819
:1034B00000008000F6D4208829684FF4FE0721F030
:1034C0007C713E0241EA00502860207AA389B4F85A
:1034D00004C040022D4D2D495B1E227CACF1010C35
:1034E0001835091DA0F5007080B2521ECCF3080CEF
:1034F00007EA034340EA0C00184306EA026210435D
:1035000028600868626920F44060104308600A6817
:10351000A06922F4007202430A60281D0A6822F49E
:1035200080720A6002684FF6F873E4699A4342EACF
:10353000C40202600868B9F1000F40F480720A60AA
:1035400011D00868B9F1010F11D040F08070086007
:10355000D8F80000444640F08050C8F80000FEF75C
:103560006FF805460DE0086840F48000EFE740F48E
:103570000000ECE7FEF764F8401B022801D90320A5
:103580008DE720688000F5D5504688E7284402582A
:103590007047FEF75BB8000030B5CBB04C212FA8C8
:1035A000FCF7E0FE202142A8FCF7DCFEBC216846C7
:1035B000FCF7D8FE0220FEF7EDF8224922480A68FF
:1035C00022F001020A6009680168002421F44041E8
:1035D00041F480410160016801F440414A91016871
:1035E0008904FCD5402202252F950123CDE93232F2
:1035F0000C2004213A91CDE93854CDE93B058A02EB
:103600003D953E954192CDE93F042FA8FFF7EAF89A
:1036100042AA3F20032182E813000121459442A8D9
:103620004694479448944994FEF782FE6846009574
:103630001D94FEF72FFA00216A040846FFF788F868
:103640004BB030BD2C04005818480258214A30B500
:10365000214914680020204B44F470041460103396
:103660000A681E4D42F001020A6018600A681A4B8F
:103670002A400A6018331C1D251D174A186028327D
:103680002060131D28601C1D251D10602A1D186058
:10369000131D20601C1D2860251D1060186020600F
:1036A00028600A680C4B0E4C22F4802260330A60BA
:1036B000186020686FF30F00B0F1005F03D2094972
:1036C0000120C1F808014FF000600249803908600C
:1036D00030BD000088ED00E0004402587FEDF6EABE
:1036E0000010005C008000513FB514A1D1E9002317
:1036F00014A1CDE90023D1E90021CDE90221416ED9
:10370000B9B1016802AC8A688968C2F34262490FA4
:103710001DF80150615CED00B5FBF1F1A0F86A10F5
:103720001DF80210A25CC900B1FBF2F1A0F868100C
:103730003FBD0121A0F86A10F8E700000101010374
:1037400007010000080402040801010190F8281094
:10375000C90706D00168C36A4A6822F400321A43D6
:103760004A6090F82810890706D50168036B4A68FB
:1037700022F480321A434A6090F82810490706D58F
:103780000168436B4A6822F480221A434A6090F829
:103790002810090706D50168836B4A6822F40042A5
:1037A0001A434A6090F82810C90606D50168C36B11
:1037B0008A6822F480521A438A6090F82810890699
:1037C00006D50168036C8A6822F400521A438A60A5
:1037D00090F82810490611D50168436C4A6822F414
:1037E00080121A434A60416CB1F5801F06D101680E
:1037F000836C4A6822F4C0021A434A6090F8281089
:10380000090606D50168C26C486820F40020104300
:1038100048607047F8B500260446C0F88860FDF798
:103820000FFF054620686FF07E470068000708D547
:1038300000222B464FF400112046009700F022FE94
:1038400060B92068006840070AD500222B464FF473
:1038500080012046009700F015FE08B10320F8BD56
:103860002020C4F8800084F87C60C4F88400002024
:10387000F8BD00002DE9F04F04468068F94E87B08E
:103880002168D4E90457E269636E28430D68174341
:103890003843F54A03434FF0000835401D430D609F
:1038A0002068E368416821F440511943416023686E
:1038B000A069934201D0216A08439D68EB4FEC4E0A
:1038C000EC493D4005439D602068656AC36A23F06A
:1038D0000F032B43C3622068B0420ED1096801F088
:1038E0003801182973D047DCB9B3082979D01029D9
:1038F0006FD178E028297ED17BE0DF4B984209D157
:10390000096801F00701062975D2DFE801F0546A61
:103910006C6E7072D94B984209D1096801F00701A9
:10392000062968D2DFE801F0475D5F616365D44B2B
:10393000984209D1096801F0070106295BD2DFE846
:1039400001F03A5052545658CE4B98420BD1096868
:1039500001F0070106294ED200E010E0DFE801F097
:103960002B4143454749C84B98420AD1096801F0A9
:103970003801182939D0B7DD2029BBD137E001271C
:103980003AE0C24B984209D1096801F007010629C3
:1039900031D2DFE801F01026282A2C2EBC4B9842A9
:1039A0000BD1096801F00701062924D2DFE801F0F4
:1039B00003191B1D1F2100271EE090421BD1AD499A
:1039C000091D096801F00701062914D202E00CE084
:1039D00007E010E0DFE801F0030507090B0D0227FF
:1039E0000AE0042708E0082706E0102704E0202763
:1039F00002E0402700E08027DFF898A2DFF898B2C5
:103A000090424FF480754FF000097AD1102F51D0B9
:103A100006DC022F09D0042F27D0082F72D12DE009
:103A2000202F70D0402F6DD1F0E0FDF7DDFE014674
:103A3000606A1FE0012827D0022827D0032827D05A
:103A4000042827D0052827D0062827D0072827D0E4
:103A5000082827D0092827D00A2827D00B2827D0C4
:103A60000AE000BFB1FBF0F07EE06846FDF7CEFE55
:103A7000606A01990028DDD10120F3E703A8FDF772
:103A800067FF606A0499F5E70220EBE70420E9E7A5
:103A90000620E7E70820E5E70A20E3E70C20E1E756
:103AA0001020DFE72020DDE74020DBE78020D9E79A
:103AB0002846D7E7DBF8000059468006606A39D50A
:103AC0000968C1F3C1012AFA01F2A8B101281BD08B
:103AD00002281BD003281BD004281BD005281BD08C
:103AE00006281BD007281BD008281BD009281BD06C
:103AF0000A281BD00B281BD05FF00100B2FBF0F0AE
:103B000032E033E2A2E050E00220F7E70420F5E7DC
:103B10000620F3E70820F1E70A20EFE70C20EDE7A5
:103B20001020EBE72020E9E74020E7E78020E5E7E9
:103B30002846E3E7A8B1012821D0022821D0032894
:103B400021D0042821D0052821D0062821D00728FB
:103B500021D0082821D0092821D00A2821D00B28DB
:103B600021D00120BAFBF0F000286ED0666806EB89
:103B7000460181426AD8B0EB063F67D89DE002203B
:103B8000F0E70420EEE70620ECE70820EAE70A2049
:103B9000E8E70C20E6E71020E4E72020E2E74020F9
:103BA000E0E78020DEE72846DCE7606AA8B101286C
:103BB00016D0022816D0032816D0042816D00528BF
:103BC00016D0062816D0072816D0082816D009289F
:103BD00016D00A2816D00B2816D001202F4941E70D
:103BE0000220FBE70420F9E70620F7E70820F5E7C5
:103BF0000A20F3E70C20F1E71020EFE72020EDE7A3
:103C00004020EBE78020E9E72846E7E7606AA8B1B3
:103C1000012818D002281AD003281AD004281AD054
:103C200005281AD006281AD0072839D0082839D0F4
:103C3000092839D00A2839D00B2839D05FF0010083
:103C40004FF400410EE70220FAE77CE232E0042064
:103C5000F6E70620F4E70820F2E70A20F0E70C2058
:103C6000EEE70000F369FFCF000C0058FFF4FF11EE
:103C700000100140544402580044004000480040F5
:103C8000004C00400050004000140140007800400B
:103C9000007C00400090D0030044025800093D0021
:103CA0001020CDE72020CBE74020C9E78020C7E7E0
:103CB0002846C5E74FF0010845E2102F7FD023DCEE
:103CC000022F4ED0042F75D0082FF3D103A8FDF793
:103CD0003FFE0499606AA8B1012846D0022846D068
:103CE000032846D0042846D0052846D0062846D0CA
:103CF000072846D0082846D0092846D00A2846D0AA
:103D00000B2845D0012543E0202F7DD0402FD1D175
:103D1000606AA8B1012878D0022877D0032876D02D
:103D2000042875D0052874D0062873D0072872D0CF
:103D3000082871D0092870D00A286FD00B2800D02D
:103D400001254F4600232A464FF400400021FCF78E
:103D5000BFFA02467008130E1202101843EA01213E
:103D60006AE0FDF741FD0146B4E7022510E00425B5
:103D70000EE006250CE008250AE00A2508E00C25DF
:103D800006E0102504E0202502E0402500E0802523
:103D90004E4600232A4608461946FCF799FA6268FF
:103DA0000902030241EA106150081818714145E008
:103DB00005E0FFE76846FDF729FD01998AE7DBF892
:103DC00000105846890656D50068C0F3C1002AFA8B
:103DD00000F1606AA8B1012839D0022839D003283F
:103DE00039D0042839D0052839D0062839D00728F9
:103DF00039D0082839D0092839D00A2839D00B28D9
:103E000000D001252A460AE067E099E09AE09BE0AD
:103E10009CE09DE09EE09FE0A0E0A1E0A2E0002306
:103E20004F4608461946FCF753FA09020346720842
:103E30000002801841EA1361324679410023FCF701
:103E400047FAFA49A0F540728A426ED932E7022554
:103E5000D8E70425D6E70625D4E70825D2E70A25C2
:103E6000D0E70C25CEE71025CCE72025CAE7402572
:103E7000C8E78025C6E7606AA8B1012819D00228E2
:103E800019D0032819D0042819D0052819D00628DC
:103E900019D0072819D0082819D0092819D00A28BC
:103EA00019D00B2800D001254F4600232A46504642
:103EB0004CE70225F8E70425F6E70625F4E7082590
:103EC000F2E70A25F0E70C25EEE71025ECE72025C0
:103ED000EAE74025E8E78025E6E7606AA8B101281F
:103EE00019D0022819D0032819D0042819D0052880
:103EF00019D006281AD007281AD008281AD009285D
:103F00001AD00A281AD00B2800D00125C84800234F
:103F10004F462A461AE70225F8E70425F6E7062564
:103F2000F4E70825F2E70A25F0E71DE00C25EDE7A8
:103F30001025EBE72025E9E74025E7E78025E5E7C1
:103F40000225FEE60425FCE60625FAE60825F8E645
:103F50000A25F6E60C25F4E61025F2E62025F0E623
:103F60004025EEE68025ECE62168EBE0E0694FF4C1
:103F700000414FF6EF7688426FD1082F65D00BDCF9
:103F80006FB3012F5CD0042F7FF460AF6846FDF75C
:103F90003DFC606A01995DE0102F5FD0202F7DD03D
:103FA000402FF1D1606AA8B1012878D0022877D0DB
:103FB000032876D0042875D0052874D0062873D03D
:103FC000072872D0082871D0092870D00A286FD02D
:103FD0000B2800D001256068B1FBF5F1A0E0FEF7E9
:103FE000F7FA2FE0012815D0022815D0032815D0A4
:103FF000042815D0052815D0062815D0072815D077
:10400000082815D0092815D00A2815D00B2814D057
:10401000012512E0022510E004250EE006250CE043
:1040200008250AE00A2508E00C2506E0102504E032
:10403000202502E0402500E08025B1FBF5F13EE0BF
:10404000FEF7D8FA0146606A04E003A8FDF780FC99
:10405000606A04990028DBD0C4E7D8E0DBF80000F0
:1040600059468006606A40D50968C1F3C1012AFA41
:1040700001F208B3012824D0022824D0032824D038
:10408000042824D0052824D0062824D0072824D0AA
:10409000082824D0092824D00A280AE074E0A2E0E5
:1040A000A3E0A4E0A5E0A6E0A7E0A8E0A9E0AAE0DC
:1040B000ABE018D00B2800D00125B2FBF5F1606809
:1040C0002EE00225F9E70425F7E70625F5E70825A0
:1040D000F3E70A25F1E70C25EFE71025EDE72025AA
:1040E000EBE74025E9E78025E7E7A8B1012837D0CD
:1040F000022837D0032837D0042837D0052837D0F6
:10410000062837D0072837D0082837D0092837D0D5
:104110000A2837D00B2800D001256068BAFBF5F1DA
:10412000490001EB5001B1FBF0F080B2A0F11001A9
:10413000B1423FF68BAE4FF6F0732168C0F34202F6
:1041400018401043C8600121A4F86A104046A4F842
:104150006810C4F86C90C4F8709007B0BDE8F08F98
:104160000225DAE70425D8E70625D6E70825D4E7AF
:104170000A25D2E70C25D0E71025CEE72025CCE78D
:104180004025CAE78025C8E7606AA8B1012816D093
:10419000022816D0032816D0042816D0052816D0D9
:1041A000062816D0072816D0082816D0092816D0B9
:1041B0000A2816D00B2800D001251D490BE702253F
:1041C000FBE70425F9E70625F7E70825F5E70A25C3
:1041D000F3E70C25F1E71025EFE72025EDE7402573
:1041E000EBE78025E9E70225F5E60425F3E6062559
:1041F000F1E60825EFE60A25EDE60C25EBE61025AD
:10420000E9E62025E7E64025E5E68025E3E6082FF8
:104210006AD00FDC8FB3012F61D0042F7FF416AE6C
:104220006846FDF7F3FA606A019962E0FFFC0F004F
:1042300000093D00102F5FD0202F7DD0402FEDD101
:10424000606AA8B1012878D0022877D0032876D0F8
:10425000042875D0052874D0062873D0072872D09A
:10426000082871D0092870D00A286FD00B2800D0F8
:1042700001256068B1FBF5F1A0E0FFE7FEF7A8F9C2
:104280002FE0012815D0022815D0032815D00428C6
:1042900015D0052815D0062815D0072815D00828D0
:1042A00015D0092815D00A2815D00B2814D00125BF
:1042B00012E0022510E004250EE006250CE008259A
:1042C0000AE00A2508E00C2506E0102504E0202578
:1042D00002E0402500E08025B1FBF5F13DE0FEF76E
:1042E00089F90146606A04E003A8FDF731FB606AC2
:1042F00004990028DBD0C4E7DBF8000059468006AB
:10430000606A40D50968C1F3C1012AFA01F208B315
:10431000012824D0022824D0032824D0042824D023
:10432000052824D0062824D0072824D0082824D003
:10433000092824D00A280AE05FE08DE08EE08FE0B3
:1043400090E091E092E093E094E095E096E018D060
:104350000B2800D00125B2FBF5F160682EE00225A4
:10436000F9E70425F7E70625F5E70825F3E70A2529
:10437000F1E70C25EFE71025EDE72025EBE74025D9
:10438000E9E78025E7E7A8B1012822D0022822D05A
:10439000032822D0042822D0052822D0062822D0A3
:1043A000072822D0082822D0092822D00A2822D083
:1043B0000B2800D001256068BAFBF5F101EB500134
:1043C000B1FBF0F080B2A0F11001B1427FF6CCADAC
:1043D00070E40225EFE70425EDE70625EBE7082565
:1043E000E9E70A25E7E70C25E5E71025E3E72025BF
:1043F000E1E74025DFE78025DDE7606AA8B1012815
:1044000016D0022816D0032816D0042816D0052866
:1044100016D0062816D0072816D0082816D0092846
:1044200016D00A2816D00B2800D00125144920E701
:104430000225FBE70425F9E70625F7E70825F5E758
:104440000A25F3E70C25F1E71025EFE72025EDE736
:104450004025EBE78025E9E702250AE7042508E780
:10446000062506E7082504E70A2502E70C2500E7EC
:104470001025FEE62025FCE64025FAE68025F8E634
:1044800000093D002DE9F0479A4617460E460446BE
:10449000089D4FF000094FF0200839E0681C37D024
:1044A000FDF7CEF8A0EB0A00A84222D80DB3206891
:1044B000016849072CD5C069C043000528D423688A
:1044C0004FF40061196221680B6823F4D0730B600C
:1044D00021688B6823F001038B60C4F88080C4F8E6
:1044E0008480C4F8888000BF032084F87C90BDE8F5
:1044F000F08721680B6823F4D0730B6021688B6808
:1045000023F001038B60C4F88080C4F88480EBE75B
:104510002068C06936EA000004D00020B842BDD04F
:104520000020E4E70120F9E7FEE700000FB4054BA7
:1045300010B503A9044A029800F028F810BC5DF8F1
:1045400014FB0000A5560008E80000240907002815
:104550004FEA116104DB00F1E02080F8001470479D
:1045600000F00F0000F1E02080F8141D704702E019
:1045700008C8121F08C1002AFAD1704770470020EE
:1045800001E001C1121F002AFBD170472DE9FF4F46
:104590008BB09A460F460546002606E025280BD02C
:1045A00052460D9990476D1C761C28780028F5D14D
:1045B0000FB03046BDE8F08F0024A04601226049CC
:1045C00000E0044315F8013F203B02FA03F00842E3
:1045D000F7D128782E2817D115F8010F44F00404DC
:1045E0002A280ED06FF02F022878A0F13001092977
:1045F0000AD808EB880102EB410100EB01086D1CB1
:10460000F2E757F8048B6D1C287869283ED006DC49
:104610000028CDD063280BD0642804D136E073285D
:1046200010D075284BD052460D999047761C85E0E6
:1046300017F8040B8DF8000000208DF80100E94602
:10464000012003E057F8049B4FF0FF3061074FF063
:10465000000401D40AE0641C44450DDA8442FADB0C
:1046600019F804100029F6D106E0641C8442FCDB32
:1046700019F804100029F8D1264404E019F8010BB8
:1046800052460D999047641EF8D257E001CF4FF083
:104690000A0B002802DA40422D2102E0210504D550
:1046A0002B218DF82410012103E0E10705D0202102
:1046B000F7E70DF1200908910CE00021F9E701CF9F
:1046C0004FF00A0BF9E75946FBF764FE01F130029F
:1046D00009F8012D0028F6D1ADEB090000F1200BFF
:1046E000600701D44FF00108D84502DDA8EB0B00AC
:1046F00000E000208046002406E009A85246005D44
:104700000D999047641C761C08988442F5DB04E000
:10471000302052460D999047761CB8F10001A8F15F
:104720000108F5DC05E019F8010B52460D99904798
:10473000761CBBF10001ABF1010BF4DC6D1C34E71E
:104740000928010010B504464068804720682246C9
:10475000BDE81040014903F049BD0000454700088D
:1047600070B50C460546880706D006A34FF4CE72F6
:1047700010A118A0FFF7DAFEA86800682060A868FA
:10478000046070BD2E2E2F4D6964646C6577617274
:1047900065732F54686972645F50617274792F4C2D
:1047A0007749502F7372632F636F72652F6D656D3C
:1047B000702E63006D656D705F667265653A206D81
:1047C000656D2070726F7065726C7920616C6967BD
:1047D0006E656400417373657274696F6E20222583
:1047E0007322206661696C6564206174206C696E57
:1047F0006520256420696E2025730A0010B5806845
:104800000468002C0CD02168A207016006D005A323
:104810004FF4A4720FA118A0FFF788FE204610BD28
:10482000002010BD2E2E2F4D6964646C6577617277
:1048300065732F54686972645F50617274792F4C8C
:104840007749502F7372632F636F72652F6D656D9B
:10485000702E63006D656D705F6D616C6C6F633A97
:10486000206D656D702070726F7065726C7920615B
:104870006C69676E65640000417373657274696F7B
:104880006E2022257322206661696C656420617444
:10489000206C696E6520256420696E2025730A00EE
:1048A00070B50A4D0024064604EB440005EBC00039
:1048B000017D29B18068B04202D1204600F034F970
:1048C000641CE4B20A2CEFD370BD00000C3200244B
:1048D0002DE9F74F84B04FF00A0B00240646DA4664
:1048E0005F46D94602940194009404EB44004F497A
:1048F0000A2F039001EBC00898F8145016D0002D31
:1049000024D0012D08D0022D06D249A340F2251251
:1049100055A165A0FFF70AFE66B13168D8F804001A
:10492000814207D160B207B0BDE8F08F002DE8D119
:1049300067B20BE0012D17D0022D07D3B8F8120093
:104940000099884202D34FFA84FA0090641CE4B2C2
:104950000A2CCAD3059881074FF0FF30E3D40A2F01
:1049600018D01ADAFCB242E03048039950F831000E
:104970000028B8F8120006D002998842E6D34FFA10
:1049800084F90290E2E701998842DFD34FFA84FB71
:104990000190DBE70599C907C5D0BAF10A0F0FDA14
:1049A0000AF0FF04214804EB440150F8310090B1B3
:1049B0001FA340F26F1246A13BA0FFF7B7FD0AE02C
:1049C000BBF10A0F02DA0BF0FF0404E0B9F10A0FA1
:1049D000A9DA09F0FF040A2C06D315A340F28112CC
:1049E00041A131A0FFF7A2FD204600F09DF80A2C5E
:1049F00006D30FA340F285123BA12BA0FFF796FD33
:104A00000A4804EB440100EBC105287D30B108A33E
:104A10004FF4C37239A124A0FFF788FD0EB13068AE
:104A20006860002160B269827DE700000C320024DA
:104A30002E2E2F4D6964646C6577617265732F54F7
:104A4000686972645F50617274792F4C7749502F96
:104A50007372632F636F72652F697076342F65747C
:104A6000686172702E6300007374617465203D3D4F
:104A7000204554484152505F53544154455F50457E
:104A80004E44494E47207C7C207374617465203EFF
:104A90003D204554484152505F53544154455F5363
:104AA0005441424C45000000417373657274696F54
:104AB0006E2022257322206661696C656420617412
:104AC000206C696E6520256420696E2025730A00BC
:104AD0006172705F7461626C655B695D2E71203D0F
:104AE0003D204E554C4C000069203C204152505F07
:104AF0005441424C455F53495A4500006172705F12
:104B00007461626C655B695D2E7374617465203DD0
:104B10003D204554484152505F53544154455F45F0
:104B20004D5054590000000070B5074C00EB400593
:104B3000002654F8350018B103F03AF844F835600F
:104B400004EBC500067570BD0C3200242DE9F0435E
:104B50000D00074685B009D07C684FF48078208826
:104B6000404539D12079062836D109E01CA34FF4FD
:104B7000227229A12CA0FFF7D9FC05B0BDE8F08373
:104B80006079042828D16088082825D1D4F80E003F
:104B900004906868A16920B1814202D101263346A0
:104BA00001E000260223284604F1080204A99146E8
:104BB00000F094FBE08840450ED16EB102222846F9
:104BC00004AB291DCDE90232CDE9001905F1250319
:104BD0004A46194600F084FA384602F0E9FFCCE76D
:104BE0002E2E2F4D6964646C6577617265732F5446
:104BF000686972645F50617274792F4C7749502FE5
:104C00007372632F636F72652F697076342F6574CA
:104C1000686172702E6300006E6574696620213DC4
:104C2000204E554C4C000000417373657274696FDF
:104C30006E2022257322206661696C656420617490
:104C4000206C696E6520256420696E2025730A003A
:104C5000FEB5040015460E4606D141A340F21B32B4
:104C60004DA151A0FFF762FC36B93DA34FF4477246
:104C700057A14DA0FFF75AFC35B939A340F21D32B8
:104C800056A149A0FFF752FC2868214600F0AAFE71
:104C900008B1564B3CE02868C0F303110E2922D01E
:104CA000D4E901210A400140914208D080B2A0F528
:104CB0007E41A93903D0E068A0B304F10C054C4A49
:104CC0004C49107800EB400301EBC3031F7D022F1A
:104CD0002CD32F685B689F4228D10246314620467C
:104CE00000F08AF8FEBD01228DF8042000208DF826
:104CF00005005E218DF80610687801AB00F07F009A
:104D00008DF80700A8788DF80800E8788DF809007C
:104D10004FF4006004F1250231460090204600F077
:104D200001FCFEBDFFE76FF00300FAE75FF0000053
:104D300000EB400301EBC3031F7D022F06D32F6856
:104D40005B689F4202D1C0B21070C6E7401C40B2FF
:104D50000A28EDDB32462946204600F0D5F8E0E788
:104D60002E2E2F4D6964646C6577617265732F54C4
:104D7000686972645F50617274792F4C7749502F63
:104D80007372632F636F72652F697076342F657449
:104D9000686172702E6300006E6574696620213D43
:104DA000204E554C4C000000417373657274696F5E
:104DB0006E2022257322206661696C65642061740F
:104DC000206C696E6520256420696E2025730A00B9
:104DD0007120213D204E554C4C00000069706164EB
:104DE000647220213D204E554C4C000040B9000813
:104DF000DC0000240C3200242DE9F84315468846D7
:104E000006461C4802EB450100EBC104207D022848
:104E100006D219A34FF43B7225A131A0FFF786FB00
:104E2000144A05EB4501207D02EBC1050C35022833
:104E300013D1608A0327B0F58E7F04D9211D304637
:104E400000F006FA07E0B0F5877F06D3211D2A4659
:104E5000304600F003FA00B927754FF4006006F100
:104E600025022B4641460090304600F05BFBBDE832
:104E7000F88300000C3200242E2E2F4D6964646CE0
:104E80006577617265732F54686972645F506172EF
:104E900074792F4C7749502F7372632F636F72654B
:104EA0002F697076342F6574686172702E6300000C
:104EB0006172705F7461626C655B6172705F69647E
:104EC000785D2E7374617465203E3D2045544841E1
:104ED00052505F53544154455F535441424C450036
:104EE000417373657274696F6E2022257322206688
:104EF00061696C6564206174206C696E652025644D
:104F000020696E2025730A002DE9FC5F8246144655
:104F100025300190086888464FF0FF364FF0000BAF
:104F2000514600F05FFD002828D1D8F80000C0F3FA
:104F300003110E2922D0B8F1000F1FD000281DD078
:104F4000012152464046FFF7C3FC070018D43949F7
:104F500007EB470901EBC905287D002812D001287D
:104F600008D0022806D234A340F2C73240A14AA09A
:104F7000FFF7DCFABBF1000F0AD108E06FF00F0079
:104F8000BDE8FC9FC5F808A00121297500E034B9EF
:104F90004146504600F05CF9002C0646F0D0287DD2
:104FA000DFF8908002280DD345484FF4006105F1E9
:104FB0000C0307705046019A0091214600F0B2FAA6
:104FC000064635E0012833D14FF47B7625466889C3
:104FD0002989884207D1286828B117A3324639A108
:104FE0002DA0FFF7A3FA287B01280ED029890022E3
:104FF000022002F089F9050018D0214602F054FC85
:1050000058B1284602F0D4FD10E02D68002DDED105
:105010002546204602F0E4FF45B158F8390008B1B2
:1050200002F0C6FD002648F8395001E04FF0FF3687
:105030003046A5E70C3200242E2E2F4D6964646C97
:105040006577617265732F54686972645F5061722D
:1050500074792F4C7749502F7372632F636F726589
:105060002F697076342F6574686172702E6300004A
:105070006172705F7461626C655B695D2E737461EF
:105080007465203D3D2050454E44494E47206F7287
:1050900020535441424C4500417373657274696FEB
:1050A0006E2022257322206661696C65642061741C
:1050B000206C696E6520256420696E2025730A00C6
:1050C000DC0000246E6F207061636B657420717565
:1050D0006575657320616C6C6F77656421000000F5
:1050E0002DE9FF4F81B0984606004FF00007DDE93B
:1050F0000FA9DDF838B006D12BA34FF48B6238A18D
:105100003BA0FFF713FA00221C21022002F0FCF85A
:10511000050046D068891C2806D223A340F26342CA
:105120003DA133A0FFF702FA6C68119801F03CFC36
:10513000E08096F82400062806D044491AA32CA043
:1051400040F26A42FFF7F2F9D8F800100623A16096
:105150004FF48071B8F80400A081DAF80020C4F898
:1051600012200822BAF80400E082DBF80000C4F83C
:105170000E00D9F80000A0610420218040F606014D
:105180006280237160713046DDE902230091294677
:1051900000F0C8F9284602F00BFD384605B0BDE81E
:1051A000F08F4FF0FF30F9E72E2E2F4D6964646CBD
:1051B0006577617265732F54686972645F506172BC
:1051C00074792F4C7749502F7372632F636F726518
:1051D0002F697076342F6574686172702E630000D9
:1051E0006E6574696620213D204E554C4C000000D0
:1051F000417373657274696F6E2022257322206675
:1052000061696C6564206174206C696E6520256439
:1052100020696E2025730A00636865636B207468DB
:1052200061742066697273742070627566206361B0
:105230006E20686F6C64207374727563742065747B
:10524000686172705F686472000000001CBB000837
:10525000014A00F003B8000040B900087FB5064DD0
:105260000124031DCDE90214CDE90035213319468F
:10527000FFF736FF04B070BD46B9000870B5164D93
:105280005FF0000404EB440005EBC001087DF0B1C1
:105290004A8A521C92B24A82B2F5967F0AD20128FB
:1052A00006D003280AD004280AD001280BD00EE02B
:1052B000052A08D32046FFF737FC08E0042000E069
:1052C0000220087503E08868091DFFF7C1FF641C10
:1052D000E4B20A2CD6D370BD0C320024F8B50446D3
:1052E00090F824001F46154606280E4606D020A337
:1052F00040F2AB122CA135A0FFF718F99EB330682D
:1053000088B3214600F06EFB68BB3078C0F3031011
:105310000E2829D0224639463046FFF7D9FA002810
:1053200020DB344A00EB4001022302EBC10003758D
:10533000002384602E68C660AE880682438252F8DD
:10534000316076B142F831304FF400602B4604F101
:10535000250231460090204600F0E4F8304602F085
:1053600027FC0020F8BDFFE76FF00F00FAE7000010
:105370002E2E2F4D6964646C6577617265732F54AE
:10538000686972645F50617274792F4C7749502F4D
:105390007372632F636F72652F697076342F657433
:1053A000686172702E6300006E657469662D3E68D8
:1053B00077616464725F6C656E203D3D20455448A2
:1053C0005F4857414444525F4C454E0041737365FA
:1053D0007274696F6E2022257322206661696C6584
:1053E00064206174206C696E6520256420696E20DC
:1053F00025730A000C32002470B5044640890D461E
:105400000E283CD9606801788689CA0714D0012922
:1054100005D020490622FAF7B0FF48B10CE04178E8
:1054200051B980785E2807D1607B40F0100002E01F
:10543000607B40F008006073082E6FF00D0103D010
:10544000B6F5C16F1BD10FE095F82B00000716D5FC
:1054500060890E2813DB204602F05EFC78B92946ED
:10546000204600F001FC12E095F82B00000706D55D
:1054700060890E2803DB204602F04EFC18B120465E
:1054800002F096FB03E029462046FFF75FFB002071
:1054900070BD000040B9000870B5002506462048E0
:1054A0009AB02C46FDF77AFD96F82B1049070DD5DA
:1054B000012809D81A48A438FBF7DAFE304601F073
:1054C000C7FE304601F0F6FE1AB070BD0128FBD9C8
:1054D00002284FF400514FF4804206D0032805D033
:1054E000042805D00528EFD103E00C46154600E05E
:1054F0000C460B486946A438FBF712FB084869467E
:10550000CDE90554A438FBF732FE0548A438FBF773
:1055100075FE304601F0E9FE304601F0D4FED3E7D7
:10552000C00100242DE9F0411F4690460E46044676
:10553000069801F039FA0E210546304602F0ECFBE0
:1055400018B16FF00100BDE8F0817068858139689D
:105550000160B9888180D8F80020C0F80620B8F82A
:105560000410418194F82400062806D006A340F2D6
:105570002B1213A11FA0FEF7D9FFA26931462046C6
:10558000BDE8F041104700002E2E2F4D6964646C79
:105590006577617265732F54686972645F506172D8
:1055A00074792F4C7749502F7372632F6E6574692D
:1055B000662F65746865726E65742E630000000066
:1055C0006E657469662D3E6877616464725F6C65B0
:1055D0006E206D757374206265203620666F7220B0
:1055E00065746865726E65745F6F7574707574212B
:1055F00000000000417373657274696F6E2022258C
:105600007322206661696C6564206174206C696E28
:105610006520256420696E2025730A0010B50400FA
:1056200006D10BA34FF4F6720EA112A0FEF77EFF77
:105630001A49732061611A49A161742184F82C0010
:10564000204684F82D1001F0F1F8002010BD000074
:105650002E2E2F5372632F65746865726E657469A0
:10566000662E63006E6574696620213D204E554CA0
:105670004C000000417373657274696F6E202225BF
:105680007322206661696C6564206174206C696EA8
:105690006520256420696E2025730A00514C00089E
:1056A0003D69000813B50C4801224FF47A7369462E
:1056B000FDF714FC094900980968C90705D0074A95
:1056C000803A11051268D20701D11CBD00BF0A68DB
:1056D000002AFBD008701CBDAC020024800E00E044
:1056E0000A46032100F0F4B82DE9FE4F8A464449EA
:1056F0000446D1F8088098F800000007870E142FA0
:1057000078D36089042875D360680078002871D048
:1057100008286FD1486901F11405C0F303120E2A5D
:1057200068D08946096800F05DF9002862D12089B7
:1057300008285FD307F10E0120460E4602F0ECFA6E
:1057400000282DD020890022384481B2022001F0A7
:10575000DBFD06004ED0718907F10800814216D3A7
:1057600070683A464146FAF7E4FD7942304602F065
:10577000D3FA002806D0AF2222A330A13DA0FEF725
:10578000D5FE04E02146304602F08EF818B13046CE
:1057900002F00EFA2EE0204602F00AFA34460CE03F
:1057A0007142204602F0B8FA002806D0C02215A3A4
:1057B0003AA130A0FEF7BAFE1CE0666839462046E2
:1057C00002F0AAFAB0B9606800212A68FF27C26017
:1057D0000A46D9F8103003610123317071800772D5
:1057E00041812046CDE900133B462946CDF808A06B
:1057F00000F00CFB2046BDE8FE4F02F0D9B90000D6
:10580000380300242E2E2F4D6964646C6577617215
:1058100065732F54686972645F50617274792F4C9C
:105820007749502F7372632F636F72652F6970769B
:10583000342F69636D702E630000000069636D7022
:105840005F696E7075743A206D6F76696E6720724D
:105850002D3E7061796C6F616420746F2069636D97
:105860007020686561646572206661696C65640AB0
:1058700000000000417373657274696F6E20222509
:105880007322206661696C6564206174206C696EA6
:105890006520256420696E2025730A0069636D7098
:1058A0005F696E7075743A20726573746F72696E99
:1058B00067206F726967696E616C20702D3E706140
:1058C000796C6F6164206661696C65640A00000030
:1058D0002DE9FF47924689460022064624210120F1
:1058E00001F012FD050031D06889242806D218A3E2
:1058F00040F2611224A12FA0FEF718FE6C684FF051
:10590000000877681C2284F8009084F801A0A4F8AD
:105910000480A4F80680686871680830FAF709FD09
:10592000F868039003A800F013FC60B1A4F80280AB
:105930000122CDF80080FF23CDE901200021284677
:1059400003AA00F063FA284602F032F9BDE8FF87A7
:105950002E2E2F4D6964646C6577617265732F54C8
:10596000686972645F50617274792F4C7749502F67
:105970007372632F636F72652F697076342F69635A
:105980006D702E6300000000636865636B207468AF
:105990006174206669727374207062756620636139
:1059A0006E20686F6C642069636D70206D65737321
:1059B00061676500417373657274696F6E2022259B
:1059C0007322206661696C6564206174206C696E65
:1059D0006520256420696E2025730A000A460B2184
:1059E000FFF776BF421C12D088B191F82B209207A6
:1059F0000BD54A68824208D089680A4000EA010350
:105A0000934202D10143491C01D00020704701207C
:105A1000704700002DE9F74F86B004460025AE1F01
:105A200007981427408C1438C11700EB5170C0F34D
:105A3000CF0B60680590017801F00F01052904D0B3
:105A400056A340F2E12264A10BE0C08800F0ACFF55
:105A50008104C0F30C0002900AD550A340F2E62264
:105A600067A16EA0FEF762FD304609B0BDE8F08F79
:105A7000208914381FFA80F880E000BFB8EBCB0F04
:105A800001D34FEACB0080B2039000221421022000
:105A900001F03AFC5FEA000A78D06089142806D247
:105AA0003EA34FF4427267A15CA0FEF73FFDDAF817
:105AB000040014220599FAF73CFCDAF80400039E6E
:105AC00004902BE06089C01B85B2AE4200D23546FF
:105AD00015B3052001F0C0FA5FEA000953D06068F1
