:020000040800F2
:10000000A804002045010008032100081D14000871
:1000100001210008DD010008A52100080000000002
:1000200000000000000000000000000007210008A0
:10003000DF01000800000000052100080921000878
:100040005F0100085F0100085F0100085F01000810
:100050005F0100085F0100085F0100085F01000800
:100060005F0100085F0100085F0100085F010008F0
:100070005F0100085F0100085F0100085F010008E0
:100080005F0100085F0100085F0100085F010008D0
:100090005F0100085F0100085F0100085F010008C0
:1000A0005F0100085F0100085F0100085F010008B0
:1000B0005F0100085F0100085F0100085F010008A0
:1000C0005F0100082D140008211400085F010008DA
:1000D0005F0100085F0100085F0100085F01000880
:1000E0005F0100085F0100085F0100085F01000870
:1000F0005F0100085F0100085F0100085F01000860
:100100005F0100085F0100085F0100085F0100084F
:100110005F0100085F0100085F0100085F0100083F
:100120005F0100085F0100085F0100085F0100082F
:10013000DFF80CD000F040F80048004785230008A5
:10014000A80400200648804706480047FEE7FEE76F
:10015000FEE7FEE7FEE7FEE7FEE7FEE7FEE7FEE777
:100160005D21000831010008D2B201E000F8012B46
:10017000491EFBD270470022F6E710B513460A4627
:1001800004461946FFF7F0FF204610BD30B50B4678
:10019000014600202022012409E021FA02F59D42B7
:1001A00005D303FA02F5491B04FA02F52844151E8B
:1001B000A2F10102F1DC30BD064C074D06E0E0681B
:1001C00040F0010394E8070098471034AC42F6D39E
:1001D000FFF7B2FF9C240008BC240008FEE770472C
:1001E000704700002DE9F05F90F8211000240229EB
:1001F00003D004218163012485E001680A6822F0AC
:100200000E020A6001680A6822F001020A603F4E8D
:100210003E4FB215DFF8F4C0DFF8F090DFF8ECA045
:10022000DFF8E8B0DFF8E4E00168783F1301150279
:10023000ACF1640CA9F15009AAF13C0AABF1280B0E
:10024000AEF1140E4FF48018B14227D9B9420ED046
:10025000614512D049451DD0514518D0594518D097
:10026000714501D1424615E0294EB14201D101222A
:1002700010E0274E1436B14201D110220AE0244E7C
:100280002836B14206D0224A3C32914201D11A4668
:1002900000E02A461E49091F0A602BE0B94213D02C
:1002A000614517D0494522D051451DD059451DD033
:1002B000714501D142461AE0B14202D14FF080723D
:1002C00015E0134EB14201D1012210E0104E143658
:1002D000B14201D110220AE00D4E2836B14206D0BB
:1002E0000B4A3C32914201D11A4600E02A460749A6
:1002F00080394A60012180F82110002180F8201007
:10030000416B01B188472046BDE8F09F8000024064
:100310000804024090F821007047000070B50446C0
:1003200000F010F90546601C02D00448007804442F
:1003300000F008F9401BA042FAD370BD0000002075
:100340002DE9F84FDFF8C891002409F1040A0AF1F9
:10035000040B23460F270BF1040ED1E00125A54025
:1003600006EA0502AA4276D1DFF8A8C14E68A6EBDC
:100370000C0866452BD00DDC032E34D005DC36B3DB
:10038000012E19D0022E2FD11BE0112E16D0122EC5
:100390002AD119E0B8F5881F19D006DCB8F5803FDE
:1003A00015D0B8F5801F1FD111E0B8F5001F0ED091
:1003B000B8F5041F18D10AE0CB6815E0CB681B1D07
:1003C00012E0CB6808330FE0CB680C330CE08B688D
:1003D0002BB1012B4FF0080303D0456104E0042347
:1003E00002E0056100E00023FF2A01D8064601E093
:1003F00000F104064FEA840501D9A5F12005D6F8DD
:10040000008007FA05FC28EA0C0803FA05F548EA1B
:100410000508C6F800804D68ED0070D53E4DAE6908
:1004200046F00106AE61AD6924F0030605F0010552
:1004300000953A4D06EB050CDCF80850A607360F80
:1004400007FA06F825EA0805DFF8D480404503D10D
:100450004FF0000825E052E0DFF8C880404502D1A7
:100460004FF001081DE0DFF8C080404502D14FF099
:10047000020816E0DFF8B480404502D14FF00308CF
:100480000FE0DFF8AC80404502D14FF0040808E0EF
:10049000DFF8A080404502D14FF0050801E04FF0A1
:1004A000060808FA06F848EA0508CCF808804D68FE
:1004B000D9F80060ED034D4601D5164300E09643A0
:1004C0002E604D68DAF80060AD03554601D516433D
:1004D00000E096432E604D68DBF80060ED025D465B
:1004E00001D5164300E096432E604D68DEF80060AB
:1004F000AD02754601D5164300E096432E60641C9C
:100500000A681646E2407FF429AFBDE8F88F000084
:1005100000040140000011100010024000000140E2
:1005200000080140000C014000100140001401408F
:1005300000180140001C01400AB101617047090424
:10054000FBE70000014880687047000000000020C1
:10055000704770472DE9F0410446006841694668DC
:100560000025CF43F9050BD4F143C90508D46FF436
:100570008071012541612068016841F400410160FA
:10058000B80508D4F043C00505D421686FF40070A5
:1005900045F002054861780527D4F043C00524D40E
:1005A00094F83E30628D94F83D00216B202B08D1E9
:1005B0003AB9212810D029280ED0282801D1212984
:1005C0000AD021686FF48060486194F83E0045F0DD
:1005D0000405102804D008E0204601F04BFB04E09D
:1005E0002068016841F400710160380508D4F043C7
:1005F000C00505D421686FF4006045F00805486126
:10060000002D07D0206C284320642046BDE8F0412F
:1006100000F052BFBDE8F0812DE9F04102680024EE
:100620005168C56A90F83E3090F83D60102B1CD0A0
:10063000402B1AD0036C002B7ED053694FF0280555
:10064000DB439F0779D4CF43BF0576D4016C01B15A
:10065000946990F83D3000219D430B467FD0C91E20
:10066000516180F83C30BDE8F081946953694FF4E2
:100670002A07DB435FEAC37C4FF02A4604D0BD4221
:10068000F1D0B542EFD010E0CD43AD050DD4C16A35
:10069000B94201D1012103E0C16AB14201D108216F
:1006A000C162BDE8F04101F0E1B91D0716D4CD43A8
:1006B000AD0513D4416CC9B21161416B11B9826BA4
:1006C000002AD0D0896A19B9816B896A0029CAD0F9
:1006D0000068416841F400614160C4E79D0706D4A9
:1006E000CD43AD0503D4BDE8F04101F013B9E443B7
:1006F000526864074FEA025215D4002AB3DB1A0687
:1007000008D4CA43520505D45A0705D5BDE8F041BF
:1007100001F07EB85A07A6D4C9438905A3D4BDE821
:10072000F04101F033B8002A9DDB5A060CD4CA43CD
:10073000520509D45A0702E00FE023E00FE005D587
:10074000BDE8F04100F0D8BF5A078CD4C9438905F1
:1007500089D4BDE8F04100F066BF94696DE7556843
:1007600025F480655560E243540700D50121120647
:1007700001D5828900E0028B80F83C3092B2FFF70D
:10078000E8FE70E7DC0606D4CC43A40503D4BDE83C
:10079000F04101F0B1BA212E27D0292E25D05C06D8
:1007A00055D4CC43640552D45B0752D590F83D1024
:1007B000438D002B91D01269436A1A70426A521C11
:1007C0004262428D521E4285428D002A85D12A29DD
:1007D000D7D101684A6822F480624A60222101630D
:1007E00080F83D5000F000FB3DE71C0623D4CC43CD
:1007F000640520D45B0720D590F83D10438D002B75
:10080000BFD0436A1B781361426A521C4262428D18
:10081000521E4285428D002AB3D12929B1D10168E7
:100820004A6822F480624A602121016380F83D50C9
:1008300000F0DBFA17E75B07A3D4C9438905A0D40E
:10084000418D00299DD0416A097811610AE05B075A
:1008500097D4C943890594D4418D002991D0116959
:10086000426A1170416A491C4162418D491E4185AD
:10087000F9E6704770B504001BD094F83D000025E0
:1008800020B984F83C50204600F06EFA242084F809
:100890003D002068016821F00101016000F0D4FBF7
:1008A0004D4A6168914201D84C4900E04C49884268
:1008B00001D2012070BD4B492368B0FBF1F15E68A5
:1008C00026F03F060E435E606368934206D94FF4FC
:1008D000967359434FF47A73B1FBF3F12368491CC3
:1008E0001E6A26F03F06314319626168914210D8B2
:1008F0004900401EB0FBF1F2521CC2F30B02042A65
:1009000001D2042022E0B0FBF1F0401CC0F30B0048
:100910001CE0A368F3B301EBC10202EB0116421E17
:10092000B2FBF6F2521C42F48042120549D093B356
:1009300001EBC10202EB0111401EB0FBF1F0401CC3
:10094000C0F30B0040F4804040F400402168CA69C5
:100950004CF6FF739A431043C861D4E9070108437A
:1009600021680A6822F0C00210430860D4E903013C
:1009700001432068826848F2FF339A431143816043
:10098000D4E9050108432168CA6822F0FF02104338
:10099000C86001E00EE016E02068016841F0010146
:1009A00001602564202084F83D00256384F83E50D2
:1009B000002070BD01EB4106421EB2FBF6F2521C54
:1009C000B3E70120C2E701EB4101401EB0FBF1F0AB
:1009D000401CC0F30B00B7E7A086010080841E0016
:1009E00000093D0040420F00704770477047704754
:1009F000704700002DE9FF4F83B00446DDE9118701
:100A00009A469346414682A0DDF8409001F0CCFB27
:100A1000FFF798FD054694F83D0020286FD1192373
:100A2000012282492046009501F03AFA0028F5D1CA
:100A300094F83C00012862D0012084F83C00206832
:100A40000168C90703D1016841F001010160216813
:100A5000086820F400600860222084F83D004020EF
:100A600084F83E0000262664C4F82490A4F82A8066
:100A7000608D20856E48E062CDE9007553465A4688
:100A80002046049901F039F800287DD1208DDFF847
:100A9000A48168B1012814D0022820D02068016800
:100AA00041F4806101602068416980690090A0E0A4
:100AB0002068416981690091016841F40071016019
:100AC00097E02068016821F48061016072B62068B7
:100AD000416981690091016841F400710CE021686D
:100AE000086840F40060086072B620684169816956
:100AF0000091016821F48061016062B679E084E0D0
:100B000003284FD801280BD002283B464FF00002A3
:100B10004146204600950ED001F0C2F9A0BB0FE07F
:100B20002A463946204601F03AFA68BB2068006937
:100B3000616A087054E001F0B3F928BB72B61AE09C
:100B40002068016821F48061016072B62068006944
:100B5000616A0870606A401C6062208D401E2085BA
:100B6000608D401E60853B46002241462046009530
:100B700001F096F940B92068016841F40071016004
:100B800020680069616A00E012E00870606A401C39
:100B90006062218D491E2185618D491E618562B685
:100BA00021681BE02A463946204601F0F8F918B1C1
:100BB000012007B0BDE8F08F20680069616A087005
:100BC000606A401C6062218D491E2185618D491E2D
:100BD000618521684A69D24352070AD409690170C4
:100BE000606A401C6062208D401E2085608D401E22
:100BF0006085208D002883D1202084F83D0084F872
:100C00003E6084F83C600020D3E70220D1E700007A
:100C100048414C5F4932435F4D656D5F5265616489
:100C2000202073697A653A25640A000002001000EA
:100C30000000FFFF040001002DE9FF4F83B09A463A
:100C4000DDE9119793460446DDF84080FFF77AFC12
:100C5000054694F83D0020287FD119230122404900
:100C60002046009501F01CF9002876D194F83C004C
:100C7000012872D0012084F83C0020680168C9076F
:100C800003D1016841F0010101602068016821F48D
:100C900000610160212084F83D00402084F83E007E
:100CA00000262664C4F82480A4F82A90608D20854C
:100CB0002C48E062CDE9007553465A462046049917
:100CC00000F08EFF70B930E02A463946204601F028
:100CD00099F958B1206C042804D12068016841F4C6
:100CE00000710160012007B0BDE8F08F606A2168E3
:100CF00000780861606A401C6062218D491E89B2DB
:100D00002185628D521E628522685369DB435B0731
:100D10000BD469B100781061606A401C6062208D5C
:100D2000401E2085608D401E6085208D0028CBD11F
:100D30002A463946204601F08DF80028CAD154F8D9
:100D40003D0B016841F400710160202004F81E0988
:100D5000E67766770020C6E7FFE70220C3E70000DA
:100D6000020010000000FFFF00B585B000210091D7
:100D70000191029103910068184988422BD11848CB
:100D8000C16941F48001C161C16901F4800104912C
:100D9000816941F0080181618069694600F00800BD
:100DA00004904FF4406000901220019003200390C3
:100DB0000C48FFF7C5FA00221146212000F07CF80C
:100DC000212000F06BF800221146222000F074F878
:100DD000222000F063F805B000BD0000005800407C
:100DE00000100240000C01407047704702488168C3
:100DF000027811448160704700000020074810B558
:100E0000016841F010010160032000F075F8002036
:100E100000F006F800F024F8002010BD0020024089
:100E200070B50D4D04464FF47A712878B1FBF0F09F
:100E30000A490968B1FBF0F000F0DCFA48B9102C5F
:100E400007D200222146501E00F036F800206C60C8
:100E500070BD012070BD0000000000200C000020CB
:100E60000C4808B5816941F001018161816901F097
:100E700001010091C16941F08051C161C06900F078
:100E8000805000900448416821F0E06141F0007119
:100E9000416008BD0010024000000140002809DB4D
:100EA00000F01F02012191404009800000F1E02084
:100EB000C0F8001170470000F0B40E4B1B680C46E0
:100EC000C3F30223C3F10705042D00D90425191D1E
:100ED000072901D2002300E0DB1E012606FA05F1F6
:100EE000491E214099409E40761E16403143F0BC79
:100EF00001F06AB90CED00E0064900F0070208684D
:100F00004FF6FF03184040EA0220034A10430860EE
:100F1000704700000CED00E00000FA052DE9F047F5
:100F20000F46050061D0434E306800F00700B8421C
:100F300009D2306820F0070038433060306800F094
:100F40000700B84251D128683B4C810712D54007B1
:100F500003D5606840F4E06060602878000703D53E
:100F6000606840F4605060606068A96820F0F0003C
:100F7000084360602878C00728D06868012810D02E
:100F80002168022810D0890700292EDA616821F033
:100F9000030101436160FFF7D5FA804641F28839C9
:100FA0000DE021688903EFE78901EDE7FFF7CAFA51
:100FB000A0EB0801494502D90320BDE8F08760682D
:100FC000696800F00C00B0EB810FEFD1306800F0E1
:100FD0000700B8420BD9306820F007003843306072
:100FE000306800F00700B84201D00120E5E728781A
:100FF000400705D56068E96820F4E0600843606058
:101000002878000706D56068296920F4605040EA16
:10101000C100606000F028F86168084AC1F303115C
:10102000515CC8400649086006480068FFF7F8FEB2
:101030000020C2E700200240001002408424000883
:101040000C0000200400002004480549006849689D
:10105000044AC1F30221515CC84070470C000020D3
:10106000001002409424000812A185B00FC98DE839
:101070000F0014A0144A006804905168134801F04E
:101080000C03042B10D0082B0ED1C1F38343C903EA
:101090001DF803000AD5516804AAC1F34041515C10
:1010A0000A4A5043B0FBF1F005B070470849484385
:1010B000FAE7000002030405060708090A0B0C0DF5
:1010C0000E0F1010010200000010024000127A0002
:1010D00000093D002DE9F84F040070D02078C04D84
:1010E000C00749D06868C0F38100012807D068684C
:1010F000C0F38100022809D16868C00306D52868BA
:10110000800339D560680028E7D035E06068B0F525
:10111000803F0BD010B1B0F5A02F11D0286820F47B
:1011200080302860286820F4802002E0286840F49D
:1011300080302860606890B1FFF704FA06460AE044
:10114000286840F480202860F0E700BFFFF7FAF934
:10115000801B642873D828688003F7D50CE0FFF75C
:10116000F1F9064605E000BFFFF7ECF9801B6428A3
:10117000F0D828688003F7D420789A4E80074FF083
:1011800001094FF0000839D5686810F00C0F07D03E
:101190006868C0F38100022809D16868C00306D4DA
:1011A0002868800714D52069012808D110E020693B
:1011B000B0B1C6F80090FFF7C5F9074605E00AE1AF
:1011C000FFF7C0F9C01B0228C4D828688007F7D5EC
:1011D0002868616920F0F80040EAC10028600DE04D
:1011E000C6F80080FFF7AEF9074604E0FFF7AAF95A
:1011F000C01B022823D828688007F7D4207800076E
:101200002CD57948A169D9B1C0F80090FFF79AF9B7
:10121000074604E0FFF796F9C01B02280FD8686A5A
:101220008007F7D571484FF4FA510068B0FBF1F030
:10123000009000BF0098411E0091FAD20EE080E0BD
:10124000C0F80080FFF77EF9074604E0FFF77AF95F
:10125000C01B022875D8686A8007F7D42078400739
:1012600060D5E8690027C00008D4E86940F08050E4
:10127000E861E869012700F0805000905C4801684F
:10128000C90513D40168834641F480710160FFF7FA
:1012900059F9824606E000BFFFF754F9A0EB0A00B7
:1012A00064284ED8DBF80000C005F5D5E0680128B9
:1012B0000AD008B1052813D0286A20F0010028625E
:1012C000286A20F0040002E0286A40F00100286249
:1012D000E06841F2883B98B1FFF734F982460BE0B1
:1012E000286A40F004002862EEE700BFFFF72AF901
:1012F000A0EB0A0159455AD8286A8007F6D50CE0B8
:10130000FFF720F9824605E0FFF71CF9A0EB0A0180
:1013100059454CD8286A8007F6D41FB1E86920F0F7
:101320008050E861E06988B36968C1F381010229EE
:1013300044D00228C6F8608004D0FFF703F90446C1
:1013400038E034E0FFF7FEF8074604E0FFF7FAF86C
:10135000C01B02282BD828688001F7D4206AB0F57A
:10136000803F05D16868A16820F4003008436860B8
:10137000D4E908010843696821F4741108436860DE
:10138000C6F86090FFF7DEF8044606E025E000BFEF
:10139000FFF7D8F8001B022809D828688001F7D584
:1013A0001BE000BFFFF7CEF8001B022802D9032084
:1013B000BDE8F88F28688001F4D40EE00128F7D04A
:1013C0006868226A00F48031914204D1616A00F4B5
:1013D0007010884201D00120EAE70020E8E7000011
:1013E0000010024000004242800442420C000020F3
:1013F0000070004010B5401EB0F1807F01D3012085
:1014000010BD4FF0E02460610F21601700F0DCFE9A
:101410000020A06107202061002010BDFEE7000031
:101420000148FFF797B80000540000200148FFF77B
:10143000F3B800005400002010B5406A90F83D3029
:10144000426B00219162826B91620268146824F4FD
:10145000806414604185426B5163826B5163026802
:10146000146824F00104146090F83D202024602AC0
:101470000BD0282232EA03030FD080F83D4080F8D9
:101480003E1000BFFFF7F5F910BD80F83D4080F831
:101490003E100164FFF75CF810BD03681C6844F05F
:1014A00001041C6003681C6844F480641C600163D0
:1014B00080F83D20E6E7000070B5044690F83D0056
:1014C00094F83E10102906D1222804D121680A6818
:1014D00022F400620A60282131EA00024FF0000580
:1014E0004FF0200626D021684968090503D46028FA
:1014F00001D084F83D60256384F83E50206841683F
:10150000090537D5416821F400614160606B3849B5
:1015100090F82120012A11D04163606BFEF762FE32
:1015200038B32068016821F00101016084F83D6052
:10153000606B1CE0256384F83D10DFE7A06B41631E
:10154000A06BFEF74FFEA0B120684169C943490670
:1015500005D40069616A0870606A401C6062206896
:10156000016821F00101016084F83D60A06B416BCE
:10157000884710E094F83D10602923D04169C943A1
:10158000490605D40069616A0870606A401C60629F
:101590002046FFF76EF994F83D00216C490710D5FD
:1015A00028280ED12068416821F4E061416011488B
:1015B000E062256384F83D6084F83E502046FFF7E2
:1015C00013FA70BD84F83D6025644169C94349063A
:1015D00005D40069616A0870606A401C6062206816
:1015E000016821F0010101602046FEF7B1FFD2E75A
:1015F000391400080000FFFF01684A69D243520510
:101600000FD46FF480624A61002140F8301F20221D
:1016100042738173026942F0040202610173012086
:1016200070470020704710B5C26A438D0168042BD3
:1016300006D0438D032B08D0438D022B1DD012E022
:101640004A6822F480624A600CE04B6823F48063AD
:101650004B60042A06D0022A04D001680A6822F4EA
:1016600080620A6001680969426A1170416A491C16
:101670004162418D491E418510BD012A30D0102A9A
:101680002ED0042A30D0022A2ED00A6842F40072EA
:101690000A6001680969426A1170416A491C416225
:1016A000428D521E4285026812690A70416A491CC5
:1016B0004162418D491E418501684A6822F44072A9
:1016C0004A60202180F83D1090F83E200021402AF9
:1016D00080F83E100CD012210163FFF786F910BD8F
:1016E0000A6822F48062D3E70A6842F48062CFE796
:1016F0000163FFF77CF910BD10B590F83D10222969
:1017000014D1418D032912D901680969426A117007
:10171000416A491C4162418D491E4185418D032921
:1017200004D10068416821F48061416010BDC26A43
:10173000022AFBD0012901D00029F7D101680A68EB
:1017400022F480620A6001684A6822F4E0624A601A
:1017500001680969426A1170416A491C4162418D00
:10176000491E4185202180F83D1090F83E2000213F
:10177000402A80F83E1004D012210163FFF735F9AA
:1017800010BD0163FFF733F910BD000010B5C26A48
:1017900090F83D1021290BD1418D51B1416A026869
:1017A00009781161416A491C4162418D491E418598
:1017B00010BD20230021082A13D0202A11D012F5B1
:1017C000803F0ED00268546824F4E0645460112213
:1017D000026380F83E1080F83D3000BFFFF706F945
:1017E00010BD0268546824F4E06454600268146810
:1017F00044F400741460016380F83D3090F83E209A
:1018000080F83E10402AE9D1FFF7F2F810BD000041
:1018100010B590F83D1090F83E30C26A048D64B166
:10182000212903D0402B21D122291FD1418DA1B3E1
:1018300090F83E10402937D046E02129F2D12023EC
:101840000021082A13D0202A11D012F5803F0ED093
:101850000268546824F4E06454601122026380F842
:101860003E1080F83D3000BFFFF7C0F810BD0268A1
:10187000546824F4E06454600268146844F400740A
:101880001460016380F83D3090F83E2080F83E10EF
:10189000402AE9D1FFF7ACF810BDFFE700684168C6
:1018A00021F480614160F7E7016DC1B1016D01294B
:1018B00022D0016D0229EFD190F83D10222923D0CA
:1018C00090F83D102129E7D1416A02680978116139
:1018D000416A491C4162418D491E4185DCE7C16C6A
:1018E0000129816C02D0C1F3072107E00268C9B267
:1018F0001161016D891C05E0816CC9B2026811613A
:10190000016D491C0165C7E70068016841F48071F9
:101910000160C1E778B590F83E50C26A046B90F858
:101920003D6000230168222E73D1066D0EB9402D53
:101930006FD0056D1DB90569B5F5404F1BD0458DBC
:1019400095B3468D484D012E20D0448D022C4DD0AC
:101950000C6844F480640C6001684C68240579D5F7
:10196000AA4273D0012A71D0082A6FD0102A6DD0F4
:10197000202A6BD06EE04A698A6900920A6842F4B4
:1019800080720A60016D491C016578BDAA4214D1BC
:101990000A6822F480620A6001684A68120504D568
:1019A0000A6822F4806217E0FFE74A698A690092B8
:1019B0000A6842F400720A6050E0082A10D0202A17
:1019C0000ED0122C0AD0042A03D0022A01D0102AE9
:1019D000E6D10A6842F480620A603BE0012ADFD067
:1019E0000A6822F480620A600168DEE7042A11D0E6
:1019F000022A0FD0102A0DD00C6844F400640C6049
:101A000001684C698C6900940C6824F480640C6053
:101A100008E025E00C6844F480640C6001684C69BF
:101A20008969009101684C68240517D5AA4207D03E
:101A3000012A05D0082A03D0102A01D0202A0DD16E
:101A40004A6842F480524A6008E0FFE74A6842F47C
:101A500080524A6001684A6989690091036578BDCE
:101A600048698869009078BD0000FFFF90F83E103B
:101A7000402910D00169B1F5804F19D0016DB1B383
:101A8000016D012910D1416C5FF0F10201F4407148
:101A900042EAD11106E0016D0029416C05D0C9B2BE
:101AA00041F0010100680161704701F0FE01F9E7B2
:101AB00090F83D102129416C07D0C9B241F00101D5
:101AC00002681161416B31B902E001F0FE01F7E7F4
:101AD000826B002AE8D0896A19B9816B896A00296A
:101AE000E2D00068416841F4006141607047FFE75F
:101AF000416CF02201F44071CAE72DE9F84F044629
:101B0000006889460B9D01689846174641F480613C
:101B100001602068016841F48071016000954FF018
:101B2000011A0022514620460A9B00F0B9F900280C
:101B300053D1216809F0FE0008610AF1010B2B4620
:101B4000594620460A9A00F0DFF9F0BB2068416947
:101B5000806900902A4620460A9900F053FA40B165
:101B6000206C042839D12068016841F400710160BB
:101B700033E0FEB2B8F1010F09D02168380A0861DC
:101B80002A4620460A9900F03DFA0028E8D120684C
:101B900006612A4620460A9900F034FA0028DFD16F
:101BA0002068016841F4807101600095002251466F
:101BB00020460A9B00F074F938B9216809F0FF004B
:101BC00040F0010008612B4600E006E0594620463F
:101BD0000A9A00F099F9002800D00120BDE8F88F9A
:101BE0002DE9F843044600680D46DDE908970168D1
:101BF0009846164641F4807101604B4600224FF032
:101C000001112046009700F04BF9E0B9216805F07A
:101C1000FE0008613B464A461549204600F074F92B
:101C200088B920684169806900903A464946204653
:101C300000F0E8F950B1206C042804D12068016854
:101C400041F4007101600120BDE8F883F5B2B8F1FC
:101C5000010F09D02168300A08613A4649462046FA
:101C600000F0D0F90028E6D1206805610020EBE7FC
:101C7000020001002DE9F04190F83D40C26A0023C6
:101C800020261C4F01686FF48065082A01D0202AA5
:101C900001D1282C04D0212C16D04D61BDE8F08153
:101CA000C7624A6822F4E0624A6001684D610168D7
:101CB0000A6822F480620A60036380F83D6080F85D
:101CC0003E30FEF791FEE9E7C7622122026380F809
:101CD0003D6080F83E304A6822F4E0624A60016864
:101CE0004D6101680A6822F480620A60FFF77DF89E
:101CF000D4E700000000FFFFF8B590F83D6004460F
:101D00000068416821F4E061416020680025416974
:101D10000091016841F0010101602068016821F42F
:101D20008061016020684168090520D5474F222E57
:101D300048D02A2E46D0616B096849686185618D5B
:101D400019B1216C41F004012164416821F4006162
:101D50004160606BFEF7DEFA012808D0606B4763D4
:101D6000606BFEF73FFA10B1606B416B8847608D86
:101D700008B320684169C943490708D40069616A0A
:101D80000870606A401C6062608D401E608520683B
:101D90004169C943490608D40069616A0870606AEC
:101DA000401C6062608D401E6085608D18B1206CA3
:101DB00040F004002064206C00B32046BDE8F840E9
:101DC000FFF77ABBA16B096849686185618D19B11C
:101DD000216C41F004012164416821F400614160FB
:101DE000A06BFEF797FA0128C1D0A06B4763A06BE8
:101DF000FEF7F8F90028BAD0A06BB6E72A2E06D174
:101E00002563282084F83D002046FEF7EDFF94F876
:101E10003D10202028290DD0216B222901D0222E0F
:101E200007D1256384F83D0084F83E502046FEF734
:101E3000DBFFF8BD0649E162256384F83D0084F8C4
:101E40003E502046FEF7D0FDF8BD000039140008D2
:101E50000000FFFF70B516460D4604460DE0204613
:101E6000FFF7CAFB08B1012070BD681C05D0FEF762
:101E700069FB801BA84207D835B120684069C04380
:101E80004007ECD4002070BD002044F8300F202122
:101E90006173A073216941F0200121612073E2E7A1
:101EA0002DE9F0471E4690460D460446C1F307470C
:101EB000DDF8209008E0701C06D0FEF743FBA0EB95
:101EC0000900B0420FD876B12068012F18D0806980
:101ED00025EA00000004000C14D000214145EAD09E
:101EE0000020BDE8F087002044F8300F2021617306
:101EF000A073216941F02001216120730120F0E7E6
:101F00004069E5E70121E9E72DE9F0479A46914666
:101F10000E46044600254FF02008C1F3074725E090
:101F200020684069C043400514D42068016841F42A
:101F30000071016021686FF480604861256384F856
:101F40003D8084F83E50206C40F00400206484F80A
:101F50003C501FE0B9F1FF3F08D0FEF7F3FAA0EBC9
:101F60000A0149450CD8B9F1000F09D02068012FAA
:101F700013D0806926EA00000004000C0BD0CFE7E4
:101F800044F8305F84F80D80A573206940F020008C
:101F9000206125730120BDE8F0874069EAE72DE95B
:101FA000F041002590460E460446202717E0406980
:101FB000C043C0060CD454F8301B6FF010004861C9
:101FC00044F810596777A577206A2062257717E0D3
:101FD000FEF7B8FAA0EB0800B04208D83EB120687E
:101FE0004169C9434906E2D40020BDE8F08144F8C4
:101FF000305F6773A573206940F02000206125736E
:102000000120F2E770B516460D4604460DE0204665
:10201000FFF7F2FA08B1012070BD681C05D0FEF789
:1020200091FA801BA84207D835B120684069C043A7
:102030000006ECD4002070BD002044F8300F2021B1
:102040006173A073216941F0200121612073E2E7EF
:1020500030B585B00024184800940194029403948C
:10206000816941F010018161816901F010010491E1
:10207000816941F008018161816901F008010491E1
:10208000816941F00401816180690C4D00F0040018
:10209000049001220F212846FEF74EFA0F200090EF
:1020A0000120CDE901040220039069462846FEF78D
:1020B00047F905B030BD000000100240001001409B
:1020C0000D4810B50B4901600C49416000214FF4E7
:1020D00080428160C0E9031241618161C161016296
:1020E000FEF7C8FB002803D0BDE81040FEF778B823
:1020F00010BD00000058004054000020A0860100E0
:10210000FEE7704770477047FEF770BE30B58FB07E
:1021100028216846FEF72FF814210AA8FEF72BF8AD
:1021200001210804CDE90010002402940225049145
:10213000CDE907504FF4E01009906846FEF7CAFF5A
:102140000F20CDE90A056802CDE90C4002210AA85A
:102150000E94FEF7E3FE0FB030BD00000D4801689D
:1021600041F00101016041680B4A11404160016882
:102170000A4A11400160016821F480210160416830
:1021800021F4FE0141604FF41F0181600449C00346
:1021900008607047001002400000FFF8FFFFF6FEE5
:1021A00008ED00E0FEE700000FB4054B10B503A9F1
:1021B000044A029800F028F810BC5DF814FB0000F7
:1021C0005D230008100000200907090E002804DB29
:1021D00000F1E02080F80014704700F00F0000F1DB
:1021E000E02080F8141D704702E008C8121F08C1E3
:1021F000002AFAD170477047002001E001C1121F88
:10220000002AFBD1704700002DE9FF4F89B09B46A3
:102210000446002506E025280BD05A460B99904726
:10222000641C6D1C20780028F5D10DB02846BDE84F
:10223000F08F0027B8460122474900E0074314F811
:10224000013F203B02FA03F00842F7D120782E2804
:1022500019D114F8010F47F004072A280ED06FF0A7
:102260002F022078A0F1300109290CD808EB880151
:1022700002EB410100EB0108641CF2E70A98641CC0
:1022800050F8048B0A9020780028CED0642808D01B
:10229000692806D075281ED05A460B9990476D1CA8
:1022A00058E00A994FF00A0901C90A91002802DA98
:1022B00040422D2102E0390504D52B218DF8201054
:1022C000012103E0F90704D02021F7E78A4608AE90
:1022D0000DE00021FAE70A994FF00A0901C90A91B5
:1022E000F7E74946FDF752FF303106F8011D002897
:1022F000F7D1ADEB060000F12009780701D44FF0CB
:102300000108C84502DDA8EB090000E00020804676
:10231000002706E008A85A46C05D0B9990476D1C3F
:102320007F1C5745F6DB04E030205A460B99904756
:102330006D1CB8F10001A8F10108F5DC05E016F804
:10234000010B5A460B9990476D1CB9F10001A9F198
:102350000109F4DC641C65E70928010008490968E3
:10236000C90706D0064980390968CA074FF060419D
:1023700001D1704700BF0A68002AFBD0087070477F
:10238000800E00E00EB5FEF739FDFFF7BFFEFFF748
:102390005FFEFFF795FE1D4D0020411C2954C8B279
:1023A0004028FAD301264FF47A740095CDE90164F0
:1023B00033460022A0211648FEF73EFC0520FDF71B
:1023C000ADFF14A0FFF7F0FE002001462954401C89
:1023D000C0B24028FAD31CA0FFF7E6FE0095CDE975
:1023E000016401230022A1210948FEF703FB052017
:1023F000FDF794FF002421462A5D1FA0FFF7D4FEBD
:10240000641CE4B2402CF6D3FEE700001400002068
:10241000540000202D2D2D2D2D2D2D2D2D2D2D2D2C
:102420002D2D2D2D2D636C6561722D2D2D2D2D2DB6
:102430002D2D2D2D2D2D2D2D2D2D2D2D2D2D2D2DCC
:102440002D2D2D0A000000002D2D2D2D2D2D2D2D93
:102450002D2D2D2D2D2D2D2D2D726561642D2D2DC4
:102460002D2D2D2D2D2D2D2D2D2D2D2D2D2D2D2D9C
:102470002D2D2D2D2D2D0A003D3D3E5B25645D3A11
:1024800025640A00000000000000000001020304AF
:10249000060708090000000001020304BC2400082C
:1024A0000000002014000000E8210008D0240008EB
:1024B0001400002094040000F8210008010000002E
:1024C00010000000000000000024F40000000000E4
:0400000508000131BD
:00000001FF
