:020000040800F2
:100000001005002045010008B31D0008111C000860
:10001000B11D0008F1060008A52600080000000038
:100020000000000000000000000000005701000870
:10003000F3060008000000005B0100080926000824
:100040005F0100085F0100085F0100085F01000810
:100050005F0100085F0100085F0100085F01000800
:100060005F0100085F0100085F0100085F010008F0
:100070005F0100085F0100085F0100085F010008E0
:100080005F0100085F0100085F0100085F010008D0
:100090005F0100085F0100085F0100085F010008C0
:1000A0005F0100085F0100085F0100085F010008B0
:1000B0005F0100085F0100085F0100085F010008A0
:1000C0005F0100085F0100085F0100085F01000890
:1000D0005F0100085F0100085F0100085F01000880
:1000E0005F0100085F0100085F0100085F01000870
:1000F0005F0100085F0100085F0100085F01000860
:100100005F0100085F0100085F0100085F0100084F
:100110005F0100085F0100085F0100085F0100083F
:100120005F0100085F0100085F0100085F0100082F
:10013000DFF80CD000F04CFA0048004711300008FE
:10014000100500200648804706480047FEE7FEE706
:10015000FEE7FEE7FEE7FEE7FEE7FEE7FEE7FEE777
:100160005D26000831010008202A04DB203A21FA2C
:1001700002F00021704721FA02F3D040C2F12002C0
:10018000914008431946704740EA01039B0703D09A
:1001900009E008C9121F08C0042AFAD203E011F8C6
:1001A000013B00F8013B521EF9D27047D2B201E088
:1001B00000F8012B491EFBD270470022F6E710B56C
:1001C00013460A4604461946FFF7F0FF204610BDC5
:1001D00030B50B46014600202022012409E021FA17
:1001E00002F59D4205D303FA02F5491B04FA02F514
:1001F0002844151EA2F10102F1DC30BD2DE9F05FAB
:100200000546002092469B46884606468146402485
:100210001BE02846414647462246FFF7A5FF5346C6
:100220005A46C01A914110D311461846224600F092
:10023000E1F92D1A67EB01084F4622460120002103
:1002400000F0D8F917EB00094E41201EA4F101047B
:10025000DFDC484631462A464346BDE8F09F2DE99B
:10026000FE4F804681EA0300C00F0C46009021F04B
:10027000004123F00045B8EB0200A94105D24046F9
:10028000214690461C460B46024623F00040104390
:1002900047D0270DC7F30A00C3F30A510290401A52
:1002A000019040286BDAC3F3130040F4801B0098E0
:1002B000924620B10023D2EB030A63EB0B0B0198AB
:1002C0005946C0F14002504600F094F906460D46EA
:1002D00050465946019A00F09CF910EB0800614124
:1002E000002487EA115284EAE7731A4340D0009A47
:1002F00062B3019A012A4FEA075215DC001B61EB39
:1003000002014FF0004202EA0752CDE90042001C10
:1003100041F5801132462B4600F09CF903B0BDE850
:10032000F08F40462146F9E7001B61EB0201001CFB
:1003300041F5801300185B412018A2F5001747EB28
:10034000030140EAD570B6196D4111E06D084FEA1E
:10035000360645EAC0754FEA0752001B61EB020101
:10036000001C41F5801149084FEA30000019514145
:1003700032462B4603B0BDE8F04F00F05CB9009860
:10038000012240000023D0EB020263EBE0730098EF
:1003900021464FEAE074B8EB000061EB0401E9E7A5
:1003A00083F000435BE781F0004158E72DE9FE4F01
:1003B00081EA030404F0004421F0004100944FF06E
:1003C000000B23F0004350EA01045ED052EA03041C
:1003D0005BD0C3F30A54C1F30A552C44A4F2F3349E
:1003E0000194A0FB0254C1F3130141F48011C3F343
:1003F000130343F4801301FB024400FB034E840A01
:10040000970A44EA815447EA8357A4FB0768029598
:100410008D0A05FB07854FEA932C04FB0C54270536
:10042000029D4FEA065847EA1637B5EB08056EEB12
:10043000070C870E920E47EA811742EA8312A7FB48
:100440000201B6EB0B0164EB00042B0D43EA0C3305
:100450005E1844EB1C50DA465146E7FB0201C5F337
:1004600013044FEA0B3343EA14534FEA0432019C5E
:1004700043EA0603A4F10C040294009CCDE900B405
:1004800000F0E8F803B0BDE8F08F00200146F9E77E
:100490002DE9F04D81EA030404F0004B21F0004502
:1004A00014464FF0000A23F0004150EA050220D024
:1004B00054EA01021DD0C5F30A570246C5F31303DF
:1004C000C1F31300C1F30A5640F4801543F48013BE
:1004D000A7EB0608101BD64608F2FD3873EB0500A3
:1004E00002D308F1010801E092185B41B8F1000F56
:1004F00003DA00200146BDE8F08D00204FF48011A2
:10050000064684460EE0171B73EB050705D3121B46
:1005100063EB050306434CEA010C49084FEA30003F
:1005200092185B4150EA0107EDD152EA030012D064
:1005300082EA040083EA0501084305D0101BAB41A1
:1005400006D20122002306E000224FF0004302E021
:100550006FF0010253101AEB06004CEB085110EB40
:100560000A0041EB0B01BDE8F04D00F064B8C1F3A7
:100570000A52C1F3130140F2FF3341F480119A4251
:1005800002DA00200146704740F233439A42A2F259
:10059000334202DC5242FFF7E7BD00F02BB8000007
:1005A00030B5041E71F1000404DB4FF000444042FA
:1005B00064EB0101141E73F1000405DB1C464FF0CF
:1005C0000043524263EB0403994208BF904230BD9E
:1005D000064C074D06E0E06840F0010394E8070090
:1005E00098471034AC42F6D3FFF7A6FDE049000867
:1005F000004A0008202A04DB203A00FA02F1002019
:1006000070479140C2F1200320FA03F31943904050
:100610007047202A06DBCB17203A41FA02F043EA62
:10062000E07306E041FA02F3D040C2F120029140AB
:1006300008431946704710B5141E73F1000408DA18
:10064000401C41F1000192185B411A4301D120F096
:10065000010010BD2DE9F04D92469B4611B1B1FA53
:1006600081F202E0B0FA80F220329046FFF7C2FF3A
:1006700004460F4640EA0A0041EA0B0153465A4637
:10068000084313D0114653EA010019D0C8F14002C3
:100690005046FFF769FD05460E465046594642460C
:1006A000FFF7A8FF084305D0012004E020463946A3
:1006B000BDE8F08D0020054346EAE0762C43374341
:1006C0000A986305E40AA0EB08000022FD0A44EA48
:1006D00047540A3002D500200146E9E70105101908
:1006E0006941DDE9084500196941BDE8F04DA2E71F
:1006F000FEE770477047000030B5B3F5804F05D076
:100700006FF0704140F82210002030BD8C690B68FA
:100710008D6823434C688989240144EA05242343D6
:1007200043EA014150F82230014C23401943E9E7E4
:100730000000F0CF10B50A6850F8223023F0010312
:1007400040F822308C68082C23D000234A682243CA
:10075000CC681C430B6922431A434B691A438B69CB
:100760001A43CB691A430B6A1A434B6A1A438B6AC2
:100770001A43CB6A1A430B6B1A434B6B09681A4333
:1007800050F82130044C23401A4340F82120002027
:1007900010BD4023DAE700008000F0FF30B5D1E95A
:1007A000003443EA04138C688D89240244EA05442A
:1007B00023430C8A094D00EB820005EB04542343CC
:1007C0000C7D6D0105EB0464896923430B4341688B
:1007D00001F040410B434360002030BD0000F0FFBA
:1007E00070B5044600F050F90546601C02D004487C
:1007F0000078044400F048F9401BA042FAD370BDD1
:100800000800002030B585B00020009001900290D3
:10081000039017480168002927D10121016015487C
:10082000416941F4807141614069022400F48070A3
:10083000049041F20100CDE90004032569460395C7
:100840000D4800F01FF84FF68070CDE900046946AE
:1008500003950A4800F016F84CF23370CDE9000415
:1008600069460395064800F00DF805B030BD00005C
:10087000000000200010024000200140001801404C
:10088000001401402DE9F84FDFF8C891002409F168
:10089000040A0AF1040B23460F270BF1040ED1E0E2
:1008A0000125A54006EA0502AA4276D1DFF8A8C1D3
:1008B0004E68A6EB0C0866452BD00DDC032E34D019
:1008C00005DC36B3012E19D0022E2FD11BE0112EDC
:1008D00016D0122E2AD119E0B8F5881F19D006DCDF
:1008E000B8F5803F15D0B8F5801F1FD111E0B8F5DD
:1008F000001F0ED0B8F5041F18D10AE0CB6815E030
:10090000CB681B1D12E0CB6808330FE0CB680C33BB
:100910000CE08B682BB1012B4FF0080303D045612D
:1009200004E0042302E0056100E00023FF2A01D86F
:10093000064601E000F104064FEA840501D9A5F15D
:100940002005D6F8008007FA05FC28EA0C0803FA0F
:1009500005F548EA0508C6F800804D68ED0070D539
:100960003E4DAE6946F00106AE61AD6924F0030666
:1009700005F0010500953A4D06EB050CDCF8085032
:10098000A607360F07FA06F825EA0805DFF8D4802F
:10099000404503D14FF0000825E052E0DFF8C88061
:1009A000404502D14FF001081DE0DFF8C08040450E
:1009B00002D14FF0020816E0DFF8B480404502D1C2
:1009C0004FF003080FE0DFF8AC80404502D14FF054
:1009D000040808E0DFF8A080404502D14FF0050888
:1009E00001E04FF0060808FA06F848EA0508CCF8D6
:1009F00008804D68D9F80060ED034D4601D51643D7
:100A000000E096432E604D68DAF80060AD0355466D
:100A100001D5164300E096432E604D68DBF8006078
:100A2000ED025D4601D5164300E096432E604D6809
:100A3000DEF80060AD02754601D5164300E096432E
:100A40002E60641C0A681646E2407FF429AFBDE8B8
:100A5000F88F000000040140000011100010024057
:100A60000000014000080140000C0140001001405E
:100A70000014014000180140001C01400AB101614E
:100A800070470904FBE700000148806870470000D8
:100A90000800002002488168027811448160704794
:100AA00008000020074810B5016841F010010160FE
:100AB000032000F009FB002000F006F800F0C6FA61
:100AC000002010BD0020024070B50D4D04464FF4CB
:100AD0007A712878B1FBF0F00A490968B1FBF0F0AF
:100AE00001F082F848B9102C07D200222146501E8E
:100AF00000F0CAFA00206C6070BD012070BD0000DB
:100B00000800002014000020054808B581890091E4
:100B1000C38882880021084600F01AF808BD00004A
:100B20001C00002070B5094C1546A28882420BD3E8
:100B3000E2888A4208D30B46024600F0FBF92846B9
:100B4000616ABDE87040084770BD00001C000020CD
:100B50002DE9F0411C4616460A19521E93B282191D
:100B6000521E92B2DDF8188000F0E4F9074F07E05A
:100B7000354602E0796A404688476D1EADB2F9D22B
:100B8000641EA4B2F4D2BDE8F08100001C00002075
:100B90002DE9F0479D4C9C4820609D4820619D4870
:100BA00060619D48A0619D48E0619D4820629D482C
:100BB0006062002001F03EF8A06980472081054670
:100BC000E26943F20801E32090471221E269E7203D
:100BD0009047E26941F23121EF209047E2694FF4FA
:100BE000807101209047E2694FF4E0610220904754
:100BF000E26941F23001032090470021E2690420BC
:100C0000904740F20726E2693146082090470021CC
:100C1000E269092090470021E2690A2090470021FB
:100C2000E2690C2090470021E2690D2090470021E5
:100C3000E2690F2090470021E269102090470721C8
:100C4000E269112090470021E269122090470021BB
:100C5000E2691320904741F29047E269394610203B
:100C6000904740F22728E2694146112090471C2115
:100C7000E269122090474FF4D059E26949461320A7
:100C800090472521E269292090470C21E2692B2019
:100C900090470021E269202090470021E26921204D
:100CA00090470021E26930209047E26940F2065106
:100CB00031209047E2694FF4827132209047E26917
:100CC0003146352090470F21E26936209047E2698E
:100CD00040F2063137209047E2694FF481713820A5
:100CE0009047E26940F2077139209047E26940F28B
:100CF00002713C209047E26941F204613D20904737
:100D00000021E26950209047EF21E269512090478D
:100D10000021E26952209047E26940F23F115320DE
:100D20009047E2694FF41C51602090470121E2692D
:100D3000612090470021E2696A2090470021E26922
:100D4000802090470021E269812090470021E269DC
:100D5000822090470021E269832090470021E269C8
:100D6000842090470021E269852090471021E269A4
:100D700090209047E2694FF4C0619220904740F282
:100D80003316E269314607209047E26941F2B0210B
:100D9000102090470721E269112090470121E26964
:100DA00017209047E26940F2BD1112209047E26996
:100DB0004FF4B85113209047E2693946102090470C
:100DC000E2694146112090471C21E26912209047B8
:100DD000E2694946132090472521E269292090477E
:100DE000E269314607209047216922208847002088
:100DF00000F0FEF84FF6FF70A0810020E081FFF7C1
:100E000083FE2846BDE8F087FEF7FF6F1C00002038
:100E1000351C00084D1C0008151C0008591C000852
:100E2000291C0008411C0008F0B5C1B015460E464B
:100E300007461C4647AA01A8469901F045FC2B46E7
:100E400001AA31463846009400F05CF841B0F0BD8C
:100E50002DE9F05F984689460C2B13D0B8F1100F9E
:100E600018D0B8F1180F42D102EBC201214A02EBAF
:100E70008101A1F590618A4609F0FF0400F0FF0BA3
:100E8000002532E002EB42011B4A02EB8101A1F591
:100E9000C071F0E7194901EB0211A1F50071EAE711
:100EA0001AF805700026380602D51548C28903E0F5
:100EB0000A9828B11248828921465846FFF732FE27
:100EC0007806641C070EE4B2A4EB09000C2806DBCC
:100ED0000BF1010009F0FF0400F0FF0B03E0761CAA
:100EE000F6B2082EDFD36D1CEDB24545D8D3BDE870
:100EF000F09F0000743C000810320008843600089F
:100F00001C0000202DE9F8431E468846054614467D
:100F1000089F09E03346414628460097FFF798FFAF
:100F200005EB560085B2641C2278002AF2D1BDE898
:100F3000F88300002DE9F04107461D461646884615
:100F4000BA4201D3454503D24FF0FF30BDE8F081EE
:100F5000264CA07A2146096938B352208847616936
:100F60003846884721695320884761693046884759
:100F7000216950208847616940468847216951208E
:100F80008847616928468847216921208847616927
:100F9000384688472169202088476169404688474C
:100FA0002169222088470020D0E7502088476169C6
:100FB000384688472169512088476169304688470B
:100FC000216952208847616940468847216953203A
:100FD00088476169284688472169202088476169D8
:100FE0003846884721202169D6E700001C000020F0
:100FF0002DE9F041144C05004FF4A07621694FF023
:10100000F0074FF001000FD0884761690020884742
:10101000216903208847616941F238008847E780E9
:10102000A680A572BDE8F081884761694FF48070A1
:101030008847216903208847616941F23000884769
:10104000E680A780EDE700001C0000200C4808B5F2
:10105000816941F001018161816901F00101009123
:10106000C16941F08051C161C06900F080500090B9
:101070000448416821F0E06141F00071416008BD21
:101080000010024000000140F0B40E4B1B680C46FB
:10109000C3F30223C3F10705042D00D90425191D4C
:1010A000072901D2002300E0DB1E012606FA05F124
:1010B000491E214099409E40761E16403143F0BCA7
:1010C00001F014BB0CED00E0064900F007020868CF
:1010D0004FF6FF03184040EA0220034A104308601D
:1010E000704700000CED00E00000FA052DE9F04724
:1010F0000F46050061D0434E306800F00700B8424B
:1011000009D2306820F0070038433060306800F0C2
:101110000700B84251D128683B4C810712D54007DF
:1011200003D5606840F4E06060602878000703D56C
:10113000606840F4605060606068A96820F0F0006A
:10114000084360602878C00728D06868012810D05C
:101150002168022810D0890700292EDA616821F061
:10116000030101436160FFF78FFC804641F288393B
:101170000DE021688903EFE78901EDE7FFF784FCC3
:10118000A0EB0801494502D90320BDE8F08760685B
:10119000696800F00C00B0EB810FEFD1306800F00F
:1011A0000700B8420BD9306820F0070038433060A0
:1011B000306800F00700B84201D00120E5E7287848
:1011C000400705D56068E96820F4E0600843606086
:1011D0002878000706D56068296920F4605040EA45
:1011E000C100606000F018F86168084AC1F303119B
:1011F000515CC8400649086006480068FFF764FC77
:101200000020C2E70020024000100240D049000840
:10121000140000200C00002012A185B00FC98DE839
:101220000F0014A0144A006804905168134801F09C
:101230000C03042B10D0082B0ED1C1F38343C90338
:101240001DF803000AD5516804AAC1F34041515C5E
:101250000A4A5043B0FBF1F005B0704708494843D3
:10126000FAE7000002030405060708090A0B0C0D43
:101270000E0F1010010200000010024000127A0050
:1012800000093D002DE9F84F040070D02078C04DD2
:10129000C00749D06868C0F38100012807D068689A
:1012A000C0F38100022809D16868C00306D5286808
:1012B000800339D560680028E7D035E06068B0F574
:1012C000803F0BD010B1B0F5A02F11D0286820F4CA
:1012D00080302860286820F4802002E0286840F4EC
:1012E00080302860606890B1FFF7CEFB06460AE0C8
:1012F000286840F480202860F0E700BFFFF7C4FBB7
:10130000801B642873D828688003F7D50CE0FFF7AA
:10131000BBFB064605E000BFFFF7B6FB801B642859
:10132000F0D828688003F7D420789A4E80074FF0D1
:1013300001094FF0000839D5686810F00C0F07D08C
:101340006868C0F38100022809D16868C00306D428
:101350002868800714D52069012808D110E0206989
:10136000B0B1C6F80090FFF78FFB074605E00AE131
:10137000FFF78AFBC01B0228C4D828688007F7D56E
:101380002868616920F0F80040EAC10028600DE09B
:10139000C6F80080FFF778FB074604E0FFF774FB10
:1013A000C01B022823D828688007F7D420780007BC
:1013B0002CD57948A169D9B1C0F80090FFF764FB3A
:1013C000074604E0FFF760FBC01B02280FD8686ADD
:1013D0008007F7D571484FF4FA510068B0FBF1F07F
:1013E000009000BF0098411E0091FAD20EE080E00C
:1013F000C0F80080FFF748FB074604E0FFF744FB16
:10140000C01B022875D8686A8007F7D42078400787
:1014100060D5E8690027C00008D4E86940F0805032
:10142000E861E869012700F0805000905C4801689D
:10143000C90513D40168834641F480710160FFF748
:1014400023FB824606E000BFFFF71EFBA0EB0A006D
:1014500064284ED8DBF80000C005F5D5E068012807
:101460000AD008B1052813D0286A20F001002862AC
:10147000286A20F0040002E0286A40F00100286297
:10148000E06841F2883B98B1FFF7FEFA82460BE034
:10149000286A40F004002862EEE700BFFFF7F4FA84
:1014A000A0EB0A0159455AD8286A8007F6D50CE006
:1014B000FFF7EAFA824605E0FFF7E6FAA0EB0A0139
:1014C00059454CD8286A8007F6D41FB1E86920F046
:1014D0008050E861E06988B36968C1F3810102293D
:1014E00044D00228C6F8608004D0FFF7CDFA044645
:1014F00038E034E0FFF7C8FA074604E0FFF7C4FA23
:10150000C01B02282BD828688001F7D4206AB0F5C8
:10151000803F05D16868A16820F400300843686006
:10152000D4E908010843696821F47411084368602C
:10153000C6F86090FFF7A8FA044606E025E000BF71
:10154000FFF7A2FA001B022809D828688001F7D506
:101550001BE000BFFFF798FA001B022802D9032006
:10156000BDE8F88F28688001F4D40EE00128F7D098
:101570006868226A00F48031914204D1616A00F403
:101580007010884201D00120EAE70020E8E700005F
:101590000010024000004242800442421400002039
:1015A000007000402DE9FE43044603200F4684F8F6
:1015B0003400606C03285AD0B7F5805F57D04FF4E1
:1015C000006600254FF08068B7421CD10095019558
:1015D0000021206800F004FC800121D469462046E7
:1015E00000F0D6FE98BB0198400332D5B4F8500005
:1015F0000104206800F024FC48BB0221206822E09E
:10160000A06B284327E01FB1A06B40F0006022E0F0
:10161000009501950021206800F0E2FB800101D5D2
:101620003546EDE76946204600F0B2FE78B90198EC
:10163000C0030ED5B4F850000104206800F000FC8F
:1016400028B90021206800F048FC0028D8D00546C1
:10165000D6E74546D4E7A063A06B012558B12168C1
:101660000C48886384F834500120BDE8FE83A06BE9
:1016700040F08050EFE7211DD4E905060EC9009720
:10168000CDE90106206800F0AEFB84F8345000205C
:10169000EBE70000FF05400050F8742F120E0A70AF
:1016A0000268120A4A8002784368120642EA13224C
:1016B0004A6002790A728268120E4A728268C368AE
:1016C000120242EA1362CA60C268C2F303520A7489
:1016D000C268C2F30B224A82007BC0F34600087541
:1016E0000120487500207047F0B5426E920F0A70D5
:1016F000426EC2F383624A70426EC2F301628A7024
:10170000426E120CCA70B0F86420120A0A7190F886
:1017100064204A71826E120DCA80826EC2F3034247
:101720000A72B0F86820C2F3C0324A72B0F868207A
:10173000C2F380328A72B0F86820C2F34032CA72B3
:10174000B0F86820C2F300320A7300264E73426C70
:101750004FF40075012462B1012A3AD0026847496A
:101760009163816B41F08051816380F834400120A6
:10177000F0BDB0F86820C36E9205120D42EA937274
:101780000A61C26EC2F3C2620A75C26EC2F302621D
:101790004A75C26EC2F342528A75C26EC2F3824269
:1017A000CA75C26EC2F3C2320A760A69521C426519
:1017B0000B7E03F007039B1C9A4042650B7A03F0F3
:1017C0000F0704FA07F383655B0A5A43C0E917253C
:1017D0000EE090F86820C36E9206920A42EA134225
:1017E0000A610A69521C92024265C0E916520566F6
:1017F00030F86C2FC2F3803201F8192F0288C2F33F
:10180000C6124A70027802F07F028A704268D20FD4
:10181000CA704268C2F341720A714268C2F38262BE
:101820004A714268C2F383528A714268C2F34052DD
:10183000CA710E724268C2F300424A728288C2F3D1
:10184000C0328A728288C2F38032CA728288C2F33E
:1018500040320A738288C2F300324A738288C2F32C
:1018600081228A738288C2F30122CA730079C0F38D
:10187000460008744C740020F0BD0000FF054000D5
:1018800070B504000ED094F83400002518B92577FF
:10189000204600F03BF8032084F83400204600F096
:1018A0000BF808B1012070BDA5632563012084F801
:1018B0003400002070BD0000FEB5002504467620EF
:1018C0000095CDE9015029460B460A46206800F0F4
:1018D0008AFA08B10120FEBD0B4E46F8A05F2068D1
:1018E00000F093FA01253560204600F033FE20B960
:1018F000204600F0B7FD0028EDD084F83450A16BED
:101900000143A163E6E700000000304230B585B036
:1019100000210091019102910391006818498842C9
:101920002BD11848416941F480614161416901F45A
:1019300080610491816941F010018161816901F048
:1019400010010491816941F02001816180690224C4
:1019500000F0200004904FF4F850CDE90004032576
:10196000694603950848FEF78DFF0420CDE9000481
:10197000694603950548FEF785FF05B030BD0000B8
:10198000008001400010024000100140001401409E
:101990002DE9F04F87B09B4616460D460446FFF7EB
:1019A00073F800903DB194F83400012807D0A06B83
:1019B00040F000500DE0A06B40F0006009E000270F
:1019C000A763E16D06EB0B00884204D9A06B40F0E1
:1019D0000070A06395E0032084F834002068C7629B
:1019E000606C012800D076024FF40071206800F08E
:1019F0005BFADFF890A1012140B12368C3F838A059
:101A0000A26B0243A26384F834107AE04FF0FF30F7
:101A100001904FEA4B200290902003900220CDE9E4
:101A2000040706918846B94601A9206800F0C2F96A
:101A3000BBF1010F06D9022020633146206800F077
:101A4000C7FA05E0C4F830803146206800F0D9FAC2
:101A500030B12268C2F838A0A16B0143A1634CE009
:101A6000029E1EE0406B000413D596B1002720684B
:101A700000F0D3F905F8010B010A05F8011B010C70
:101A800005F8021B000E361F7F1C05F8010C082FFD
:101A9000EDD3FEF7F9FF0099411A109881421DD24B
:101AA000E0B12068426B40F22A310A42DAD0416B41
:101AB000C90509D5BBF1010F06D9616C032903D013
:101AC00000F02EFB0028C4D12068416B09071AD50D
:101AD000C0F838A0A06B40F0080051E02168C1F8C0
:101AE00038A0A06B40F00040A06384F83480C4F8B4
:101AF0003090032007B0BDE8F08F84F83480C4F83C
:101B000030900120F6E7416B890705D5C0F838A071
:101B1000A06B40F0020033E0416B89061CD5C0F891
:101B200038A0A06B40F020002AE000BF00F075F95B
:101B300005F8010B010A05F8011B010C05F8021B51
:101B4000000E05F8010C361FFEF79EFF0099411AA2
:101B5000109881420ED268B12068416B890201D58C
:101B6000002EE3D1216840F23A50886384F8348033
:101B70000020BFE72168C1F838A0A06B40F000400A
:101B8000A063BAE7FF05400070B515460E46040095
:101B900003D094F8410010B107E0012070BD00208F
:101BA00084F84000204600F01DF804F10801206888
:101BB000FEF7C0FD3146A2682068FEF7EFFDD4E9CC
:101BC00001022946236BFEF797FD2168A06851F8B2
:101BD000202042F0010241F82020012084F8410039
:101BE000002070BDFEF70EBE10B5401EB0F1807F24
:101BF00001D3012010BD4FF0E02460610F21601778
:101C000000F074FD0020A06107202061002010BDBD
:101C1000FEE70000034808B50088ADF80000BDF8F5
:101C2000000008BD00F8FF6F01490880FFF7F2BF10
:101C3000FEF7FF6F0149088070470000FEF7FF6F55
:101C4000014908807047000000F8FF6F01490880D3
:101C50007047000000F8FF6F024A1080901C01805E
:101C600070470000FEF7FF6F00B587B01C21684683
:101C7000FEF7A3FA17484FF02041102201601649E1
:101C80004160062181600021C160C0E904128161C8
:101C9000C16113020162C0E90913C16201634163BA
:101CA000816301200F23CDE9000302AB83E8070025
:101CB0001120CDE90501002269460648FFF764FFBF
:101CC00008B1FEF717FD0548C16941F48061C161A3
:101CD00007B000BD44000020040100A00000014046
:101CE00030B585B0002420480094019402940394F8
:101CF000816941F010018161816901F01001049155
:101D0000816941F480718161816901F4807104917C
:101D1000816941F040018161816901F040010491D4
:101D2000816941F020018161816901F02001049104
:101D3000816941F00401816180690C4D00F004006B
:101D4000049001220F212846FEF798FE0F200090F4
:101D50000120CDE901040220039069462846FEF7E0
:101D600091FD05B030BD00000010024000100140A0
:101D70000E4810B50C490160002141608160C160CE
:101D8000016141618161FFF77BFD08B1FEF7B2FCA3
:101D90004FF400610548FFF705FC002803D0BDE8BB
:101DA0001040FEF7A7BC10BD008001408C00002051
:101DB000FEE770470A6842624A688262D1E90223FC
:101DC0001A43D1E904310B43C16A1A4321F0F701E8
:101DD0001143C16200207047006800F003007047A3
:101DE00008444069704770B50DF1100C11439CE830
:101DF00070002343194329434268314347F6FF6388
:101E00009A430A434260002070BD10B5032101606F
:101E10000220FEF7E5FC002010BDD0F880007047DE
:101E20000A688260D1E901231A43D1E903310B43E7
:101E3000C1681A436FF30B011143C1600020704762
:101E400010B586B004463720CDE90010402002903E
:101E5000002003904FF48060049069462046FFF70D
:101E6000DFFF41F288323721204600F073F906B0D7
:101E700010BD000010B504460A4886B00143292071
:101E8000CDE9001040200290002003904FF48060C4
:101E9000049069462046FFF7C3FF204600F012FA7F
:101EA00006B010BD0000108010B586B004461020AA
:101EB000CDE9001040200290002003904FF4806094
:101EC000049069462046FFF7ABFF41F288321021AB
:101ED000204600F03FF906B010BD10B586B00446AC
:101EE0000620CDE9001040200290002003904FF41E
:101EF0008060049069462046FFF792FF41F28832E5
:101F00000621204600F026F906B010BD30B585B098
:101F100000240546009401944FF480600294CDE9BA
:101F2000034069462846FFF77BFF0B484FF4FA5100
:101F30000068B0FBF1F041F288314843401E03D203
:101F40004FF0004005B030BD696B0906F6D5C520DD
:101F5000A8632046F6E700001400002070B585B0A5
:101F600004464FF4D570009001A9082040250026B2
:101F700081E86100C001049069462046FFF750FFE8
:101F800012484FF4FA510068B0FBF1F041F2883189
:101F90004843401E03D24FF0004005B070BD616B56
:101FA00011F0450FF5D00905F3D4606B400701D55A
:101FB000042003E0606BC00702D00120A063ECE7BF
:101FC000606B400600D5A5633046E6E714000020AC
:101FD00010B586B004461220CDE9001040200290D2
:101FE000002003904FF48060049069462046FFF77C
:101FF00017FF41F288321221204600F0ABF806B0FC
:1020000010BD10B586B004461120CDE90010402067
:102010000290002003904FF48060049069462046AF
:10202000FFF7FEFE41F288321121204600F092F8BF
:1020300006B010BD10B586B004460720CDE90020DB
:1020400040200290002003904FF480600490694685
:102050002046FFF7E5FE41F288320721204600F0D6
:1020600079F806B010BD10B586B0044600210220F4
:10207000CDE90010C020CDE902014FF4806004904A
:1020800069462046FFF7CCFE204600F0F3F806B084
:1020900010BD10B586B004460920CDE90010C0205F
:1020A0000290002003904FF480600490694620461F
:1020B000FFF7B6FE204600F0DDF806B010BD10B503
:1020C00086B0044600213320CDE900104020CDE940
:1020D00002010001049069462046FFF7A1FE41F28B
:1020E00088323321204600F035F806B010BD30B5F7
:1020F00085B00C46054600210320CDE900104020A4
:10210000CDE902010001049069462846FFF788FEE8
:1021100022460321284600F0F7F805B030BD000044
:1021200010B586B0044600210C20CDE900104020F7
:10213000CDE902010001049069462046FFF770FED8
:10214000034A0C21204600F005F806B010BD00003F
:1021500000E1F505454B10B51B684FF4FA54B3FB8D
:10216000F4F353435B1E02D24FF0004010BD426BAC
:1021700012F0450FF6D01205F4D4426B520703D586
:1021800004218163084610BD426BD20702D00121B1
:10219000816305E0C52282630269D2B28A4201D01E
:1021A000012010BD0021FFF71BFE3149084201D17B
:1021B000002010BD002802DA4FF0007010BD410071
:1021C00001D5402010BD810001D5802010BDC10087
:1021D00002D54FF4807010BD010102D54FF400709C
:1021E00010BD410102D54FF4806010BDC10102D580
:1021F0004FF4006010BD010202D54FF4805010BDB5
:10220000410202D54FF4005010BD810202D54FF4B7
:10221000804010BDC10202D54FF4004010BD410303
:1022200002D54FF4003010BD810302D54FF4802059
:1022300010BDC10302D54FF4002010BD010402D52A
:102240004FF4801010BD410402D54FF4001010BDB2
:10225000810402D54FF4800010BD000702D54FF471
:10226000000010BD4FF4803010BD000014000020AD
:1022700008E0FFFD12494FF4FA520968B1FBF2F190
:1022800041F288325143491E02D24FF0004070475C
:10229000426B12F0450FF6D01205F4D4416B49079A
:1022A00003D50421816308467047416BC90703D0F9
:1022B0000121816308467047C52181630020704772
:1022C000140000200F494FF4FA520968B1FBF2F1F3
:1022D00041F288325143491E02D24FF0004070470C
:1022E000426B12F0450FF6D01205F4D4416B49074A
:1022F00003D50421816308467047C521816300200E
:10230000704700001400002030B5204B4FF4FA5401
:102310001B68B3FBF4F341F2883463435B1E02D2C3
:102320004FF0004030BD446B14F0450FF6D024054B
:10233000F4D4436B5B0703D504218163084630BDA9
:10234000436BDB0702D00121816303E00369DBB249
:102350008B4201D0012030BDC52181630021FFF7F0
:102360003FFD10F4604F04D0410406D54FF40050F7
:1023700030BD000C1080002030BD000402D54FF4A9
:10238000805030BD4FF4803030BD0000140000207C
:102390002DE9F04F89B00D460446FEF775FB002687
:1023A000834600960196374608212068FFF77CFD9A
:1023B000002834D1B4F8500001042068FFF740FD34
:1023C00000282CD1401E4FF00808CDE9020830202B
:1023D0004FF00209CDE904090120CDE9067002A9F8
:1023E0002068FFF7E7FC2068FFF769FE002816D198
:1023F000EA4640F22A472068416B394212D1416BCC
:10240000890204D5FFF709FD4AF82600761CFEF77D
:102410003BFBA0EB0B00401CEDD14FF0004009B09E
:10242000BDE8F08F416B090703D5C0F8388008205C
:10243000F5E7416B890703D5C0F838900220EEE735
:10244000416B890603D5202181630846E7E740F206
:102450003A518163019800BA2860009800BA686018
:102460000020DCE710B590B004460120ADF838003C
:102470002068FFF7B1FC002854D0606C032842D0DC
:102480002068FFF7F0FD00284AD100212068FFF7FF
:10249000A7FC606704212068FFF7A2FCA067082161
:1024A0002068FFF79DFCE0670C212068FFF798FC8F
:1024B000C4F88000606C032825D00EA92068FFF7BF
:1024C00016FE00282CD1606C03281CD0BDF8380003
:1024D000206501042068FFF7DCFD002820D10021E1
:1024E0002068FFF77DFC606604212068FFF778FC18
:1024F000A06608212068FFF773FCE0660C212068C5
:10250000FFF76EFC206704212068FFF769FC000DCF
:10251000E06403A92046FFF7E7F830B14FF08050A0
:1025200010B010BD4FF08060FAE7B4F850000023FF
:1025300002042068FFF77EFD0028F1D104F11000AD
:1025400007C88DE8070094E80F00FFF74CFC002057
:10255000E6E700002DE9F84F0026044600963546D0
:10256000B0460068FFF7D2FC002827D12068FFF7AB
:10257000F5FC4FF0805B4FF001094FF6FF7748B153
:10258000A6642068FFF7C2FC002817D1A06C0128C0
:1025900002D020E0C4F8489000212068FFF750FCEA
:1025A00058B918E000212068FFF74AFC002805D13F
:1025B00051462068FFF75EFC10B15846BDE8F88F21
:1025C00000212068FFF70CFC05464FEAD078009800
:1025D000401C009002E0DFF82CA00098B84202D224
:1025E000B8F1000FDED00098B84202D34FF08070EF
:1025F000E4E7680002D5C4F8449000E06664002077
:10260000DCE70000000010C1FEF744BA30B58FB01F
:1026100028216846FDF7D1FD14210AA8FDF7CDFD5C
:1026200001210804CDE90010002402940225049140
:10263000CDE907504FF4E01009906846FEF722FEFE
:102640000F20CDE90A056802CDE90C4002210AA855
:102650000E94FEF74BFD0FB030BD00000D48016831
:1026600041F00101016041680B4A1140416001687D
:102670000A4A11400160016821F48021016041682B
:1026800021F4FE0141604FF41F0181600449C00341
:1026900008607047001002400000FFF8FFFFF6FEE0
:1026A00008ED00E0FEE700000FB4054B10B503A9EC
:1026B000044A029800F0FCF810BC5DF814FB00001E
:1026C000E92F00081800002037B514460846064BCD
:1026D0006A46214600F0ECF804466946002000F006
:1026E0007EFC20463EBD0000DF2F00080907090ED2
:1026F000002804DB00F1E02080F80014704700F0AF
:102700000F0000F1E02080F8141D704702E008C8B7
:10271000121F08C1002AFAD170477047002001E05B
:1027200001C1121F002AFBD1704700002DE9FF5F95
:1027300082B00021DDE90430020DDDF840B0034332
:1027400018D044F61050A2F2FF32424315141198EB
:1027500001281FD0A5EB0B00401C5FEA000A4FF0D8
:1027600000064E4FDFF83891B046504615D5CAF1F5
:10277000000413E0119801244AA3012801D16FEA53
:102780000B010298119AC0E90031C0E9024206B07B
:10279000BDE8F09FCBF10000DFE704460021404A8E
:1027A000491842EB0450CDE9001012E0E00707D0D1
:1027B00032463B4640464946FDF7F8FD804689468D
:1027C00032463B4610461946FDF7F0FD06460F46D9
:1027D0006410002CEAD1DDE90401DDE90023BAF13F
:1027E000000F06DAFDF7E2FD42464B46FDF7DEFD3F
:1027F00005E0FDF74DFE42464B46FDF749FE044617
:102800000E460022284BFDF7CBFE03D84FF0FF30D9
:10281000014607E00022254B20463146FDF71FFD0B
:10282000FDF7A5FE102409E0002C0ADB0A22002394
:10283000FDF7E4FC039B30321A55641E50EA010296
:10284000F2D1641C039AC4F111031444119A012AB1
:1028500003D0012208430DD10AE0084304D0002030
:102860004FF0110B119072E7A3EB0B056D1E0DE0FD
:102870005B4504DD4FF0000205F1010504E003DAD9
:102880004FF00002A5F10105002AECD00298119941
:10289000C0E90231C0E9004579E7000000001440BA
:1028A0000000F03F300000000000F0430000E03F77
:1028B0002DE9FF4F95B09B468946064600250FE25D
:1028C000252877D100242746F84A0121059400E005
:1028D000044316F8013F203B01FA03F01042F7D100
:1028E00030782A2811D06FF02F033078A0F1300211
:1028F000092A16D8059A44F0020402EB820203EB7F
:1029000042021044761C0590EFE759F8042B05921B
:10291000002A03DA504244F40054059044F00204C3
:10292000761C30782E2816D116F8010F44F00404D6
:102930002A280DD06FF02F023078A0F13003092B38
:1029400009D807EB870302EB4303C718761CF3E7AC
:1029500059F8047B761C30786C280FD006DC4C28A4
:1029600017D068280DD06A2814D104E0742810D03C
:102970007A280FD10DE044F400140AE044F48014E6
:1029800001E044F440147278824202D104F58014CC
:10299000761C761C307866280BD013DC582877D04C
:1029A00009DC002875D04528F6D04628F4D0472801
:1029B0001AD19DE118E0632835D0642879D06528C4
:1029C00012D195E1702873D008DC6728F1D069280E
:1029D0006FD06E280DD06F2806D1B5E073282CD0AB
:1029E000752875D0782874D05A46179990476D1C71
:1029F00075E1C4F30250022809D003280DD0D9F89C
:102A0000001004280DD00D6009F1040967E1D9F820
:102A10000010EA17C1E90052F6E7D9F800100D805E
:102A2000F2E70D70F0E719F8041B8DF80010002094
:102A30008DF80100EA46012003E059F804AB4FF09D
:102A4000FF3061074FF0000102D40DE008F10101F1
:102A50008846B9420FDA8045F8DB1AF808100029D9
:102A6000F4D108E008F1010188468142FADB1AF846
:102A700008100029F6D105985B46A0EB080721460F
:102A80003846179A00F094FA284400EB080507E04E
:102A90004DE029E10DE01AF8010B5A4617999047CD
:102AA000B8F10108F7D25B4621463846179A13E180
:102AB00042E00A220092C4F302524FF0000A022AB6
:102AC00008D059F804CB032A4FEAEC710AD00DE084
:102AD00029E02AE009F1070121F00702F2E802C12A
:102AE000914609E00FFA8CFC4FEAEC71042A03D1FD
:102AF0004FFA8CFC4FEAEC71002907DA0A460021F4
:102B0000DCF1000C61EB02012D2202E0220504D56C
:102B10002B228DF80420012203E0E20701D02022BD
:102B2000F7E7904659E00A2102E010220DE010215B
:102B30004FF0000A00910BE010224FF0000A44F021
:102B400004040827009203E008224FF0000A0092D4
:102B5000C4F30252022A05D059F804CB0021032AFB
:102B600008D009E009F1070121F00702F2E802C1EB
:102B7000914605E01FFA8CFC042A01D10CF0FF0CF1
:102B80004FF00008220728D5702806D0009B83F05C
:102B9000100353EA0A0305D00EE040228DF804200A
:102BA000012208E05CEA010206D030228DF8042000
:102BB0008DF8050002229046009B83F0080353EA3B
:102BC0000A030AD15CEA010201D1620705D530226D
:102BD0008DF804204FF001087F1E582804D034A03F
:102BE00003900EA802900DE036A0F9E75346604628
:102BF000009AFDF703FB84460398825C0298401E0E
:102C0000029002705CEA0100F0D1029806A9081A4D
:102C100000F1200A600702D524F4803400E0012787
:102C2000574502DDA7EB0A0000E0002000EB0A0197
:102C3000009005984144401A0590E00306D45B4695
:102C40002146179A059800F0B3F90544002706E0DD
:102C500001A85A46C05D179990476D1C7F1C4745D7
:102C6000F6DBE0030CD55B462146179A059800F089
:102C70009FF9054404E030205A46179990476D1C8F
:102C80000099481E00900029F5DC08E0029802999E
:102C90005A460078491C0291179990476D1CBAF169
:102CA0000001AAF1010AF1DC65E100000928010038
:102CB00030313233343536373839616263646566B2
:102CC0000000000030313233343536373839414274
:102CD000434445460000000000F058F90544761CC6
:102CE000307800287FF4ECAD19B02846BDE8F08FAD
:102CF000620700D4062709F1070222F0070CFCE85E
:102D00000223E14603F000485FEA080C02D00FF20C
:102D1000702C0DE05FEA045C02D50FF2682C07E02E
:102D20005FEAC47C02D00FF2602C01E0AFF2700CBD
:102D30004FF0FF3823F00043CDF850C065280CD089
:102D400006DC452809D046281DD047283DD13DE066
:102D5000662818D067287ED138E00021112F01DBCA
:102D6000112000E0781CCDE9000106A90EA8FFF7AC
:102D7000DDFCDDE90F010E9A03910021009207F1BD
:102D8000010A04914DE04FF000400097CDE9011099
:102D900006A90EA8FFF7CAFCDDE90F0203920E9BFD
:102DA00011990022DDF80CA00093049211B9791C4E
:102DB00000EB010AB7EB0A0004D4C0F1FF3007F1C1
:102DC000010A0490AAEB0700019044E0012F00DA09
:102DD00001270021112F01DD112000E03846CDE947
:102DE000000106A90EA8FFF7A1FCDDE90F010E9A6C
:102DF0000391002104910092BA4621070CD4039953
:102E0000514500DA8A46BAF1010F05DD009AAAF1B0
:102E10000101515C302908D0B84202DA10F1040FE8
:102E200006DA0121CDE9011015E0AAF10101E9E777
:102E3000002805DC049901440491AAEB000102E09A
:102E4000411C514500DD8A460499401A401C0190FE
:102E50004FF000400290200704D40198504501DB58
:102E6000CDF8048000208DF84F0002980DF14F0737
:102E7000B0F1004F25D02B200E9002984FF00208A1
:102E800000280CDA404202902D200E9007E00A2123
:102E90000298FDF79DF93031029007F8011DB8F155
:102EA0000001A8F10108F2DC02980028EFD1791E98
:102EB0000E980870307800F0200040F0450007F8C8
:102EC000020D12A8C01B00F107081498007800B189
:102ED000012000EB0A01019801EBE07105984144E3
:102EE000401A401E0590E00306D45B462146179A1F
:102EF000059800F05DF805441498007818B15A461A
:102F0000179990476D1CE00324D55B462146179A1C
:102F1000059800F04DF805441CE00498002807DBF4
:102F2000DDE90301884203DD0098405C179901E068
:102F3000179930205A469047049805F10105401C26
:102F400004900198401E019004D12E205A461799F2
:102F500090476D1CBAF10001AAF1010ADDDC05E021
:102F600017F8010B5A46179990476D1CB8F10001EC
:102F7000A8F10108F4DC5B462146179A0598ABE6F8
:102F80002D0000002B000000200000002DE9F04182
:102F9000044600251E461746880404D405E0394639
:102FA0002020B0476D1C641EF9D52846BDE8F0818D
:102FB0002DE9F041044600251E469046C80301D580
:102FC000302700E02027880404D505E04146384634
:102FD000B0476D1C641EF9D52846BDE8F0810A682B
:102FE000531C0B601070704708490968C90706D068
:102FF000064980390968CA074FF0604101D170471E
:1030000000BF0A68002AFBD008707047800E00E0FD
:10301000ADF5107DFDF746FDFFF7F8FAFEF760FE0F
:10302000FEF7A6FEFEF720FEFDF7B2FD182242A134
:103030008AA8FDF7A9F88AA8009001230C22002194
:103040003920FDF7F1FE182184A8FDF7B6F884A910
:103050003F48FEF721FB3FA00C22009001231146C0
:103060000020FDF7E1FE44A0009001230C2218216E
:103070000020FDF7D9FE364C01230C22616D206E35
:10308000A0FB0101CDE9020141A000902421002014
:10309000FDF7CAFE616D44A0CDE9000101230C22B9
:1030A00030210020FDF7C0FEA16D44A0CDE9000154
:1030B00001230C223C210020FDF7B6FE216D44A027
:1030C000CDE9000101230C2248210020FDF7ACFED0
:1030D000616C42A0CDE9000101230C2254210020A3
:1030E000FDF7A2FE9DF8101240A0CDE900010123DA
:1030F0000C2260210020FDF797FE4FF4FA600123B7
:1031000000905A0204A92046FEF742FC00252E46F4
:1031100004AF0024795D6D1CADB23AA0FFF7C4FA8C
:10312000641CE4B2082CF5D338A0FFF7BDFA761C76
:10313000F6B2402EEDD3FEE773642D7364696F2001
:1031400066696C652074657374212121000000009C
:103150008C000020496E697469616C697A6520533E
:10316000442063617264207375636365737366756D
:103170006C6C79210000000053442063617264206C
:10318000696E666F726D6174696F6E210000000078
:10319000436172644361706163697479203A2025E8
:1031A0006C6C75210000000043617264426C6F63B7
:1031B0006B4E62723A202564210000004361726404
:1031C000426C6F636B53697A65203A202564210055
:1031D000524341203A20256421000000436172647B
:1031E00054797065203A2025642100004D616E7588
:1031F00066616374757265724944203A20256421C2
:103200000000000025303278200000000A00000095
:1032100000000000000000000000000000000000AE
:103220003F4000000000000000003000400030007F
:103230004000000009000BC03D000BC03D0009002C
:1032400018C024407FE0224031800000180024C0D4
:103250001B000D803240018003801C4027401C80F1
:103260000740004010006000000000000000000067
:103270000000000000001F8020404020000040208F
:1032800020401F8000000000090006001F8006008B
:1032900009000000040004003F8004000400000056
:1032A00000100060000000000000000004000400A6
:1032B00004000400040000000000004000000000C2
:1032C00000000000002001C006003800400000009F
:1032D0001F802040204020401F8000000000104040
:1032E0003FC000400000000018C0214022402440A0
:1032F0001840000010802040244024401B80000023
:1033000002000D0011003FC0014000003C8024403D
:1033100024402440238000001F8024402440344067
:10332000038000003000200027C03800200000008B
:103330001B802440244024401B8000001C0022C02D
:10334000224022401F8000000000000008400000D2
:103350000000000000000000046000000000000009
:10336000000004000A00110020804040090009000C
:103370000900090009000000000040402080110001
:103380000A00040018002000234024001800000058
:103390001F802040274029401F400000004007C0F8
:1033A00039000F0001C0004020403FC024402440AD
:1033B0001B8000001F802040204020403080000003
:1033C00020403FC0204020401F80000020403FC0E0
:1033D00024402E4030C0000020403FC024402E003A
:1033E000300000000F001080204022403380020097
:1033F00020403FC0040004003FC020402040204047
:103400003FC02040204000000060202020203FC01E
:103410002000200020403FC024400B0030C020404E
:1034200020403FC020400040004000C03FC03C0062
:1034300003C03C003FC0000020403FC00C402300C0
:103440003FC020001F802040204020401F800000FF
:1034500020403FC024402400180000001F8021406D
:10346000214020E01FA0000020403FC02440260053
:1034700019C0004018C02440244022403180000080
:10348000300020403FC020403000000020003F803E
:10349000004000403F80200020003E0001C00700A7
:1034A00038002000380007C03C0007C0380000008A
:1034B000204039C0060039C02040000020003840BC
:1034C00007C0384020000000304021C0264038406E
:1034D00020C00000000000007FE0402040200000ED
:1034E000000070000C00038000400000000040203D
:1034F00040207FE00000000000002000400020008D
:10350000000000000010001000100010001000105B
:1035100000000000400000000000000000000280E9
:103520000540054003C0004020003FC00440044067
:1035300003800000000003800440044006400000B7
:1035400000000380044024403FC00040000003808E
:103550000540054003400000000004401FC0244017
:1035600024402000000002E00550055006500420D1
:1035700020403FC00440040003C00040000004405D
:1035800027C000400000000000100010041027E0D9
:103590000000000020403FC00140070004C004407C
:1035A000204020403FC000400040000007C0040011
:1035B00007C0040003C00000044007C0044004002A
:1035C00003C000400000038004400440038000006A
:1035D000041007F004500440038000000000038042
:1035E0000440045007F00010044007C002400400EB
:1035F00004000000000006400540054004C0000033
:10360000000004001F800440004000000400078008
:103610000040044007C000400400070004C00180CF
:1036200006000400060001C0070001C006000000FB
:10363000044006C0010006C004400000041007104A
:1036400004E00180060004000000044005C00640BC
:10365000044000000000000004007BE04020000067
:10366000000000000000FFF000000000000040200B
:103670007BE00400000000004000800040002000CB
:1036800020004000000000000000000000000000DA
:10369000000000000000000000001FCC000C000033
:1036A000000000000000080030006000080030004A
:1036B00060000000022003FC1E20022003FC1E20EC
:1036C0000220000000000E1811043FFF10840C7847
:1036D000000000000F0010840F3800C00778188425
:1036E0000078000000780F8410C411240E9800E4C4
:1036F000008400080800680070000000000000005E
:103700000000000000000000000007E0181820047E
:1037100040020000000040022004181807E00000EA
:10372000000000000240024001800FF001800240D2
:10373000024000000080008000800FF800800080C0
:10374000008000000001000D000E000000000000DD
:1037500000000000000000800080008000800080E9
:10376000008000800000000C000C00000000000041
:103770000000000000000006001800600180060044
:1037800018002000000007F00808100410040808C2
:1037900007F000000000080408041FFC00040004F7
:1037A0000000000000000E0C1014102410441184BE
:1037B0000E0C000000000C181004110411041288F3
:1037C0000C700000000000E00320042408241FFC0B
:1037D0000024000000001F981084110411041088B8
:1037E00010700000000007F0088811041104188808
:1037F0000070000000001C00100010FC13001C00F2
:103800001000000000000E38114410841084114490
:103810000E38000000000700088C1044104408888F
:1038200007F00000000000000000030C030C000083
:103830000000000000000000000101060000000080
:103840000000000000000080014002200410080871
:103850001004000002200220022002200220022088
:10386000022000000000100408080410022001409B
:103870000080000000000E001200100C106C108080
:103880000F00000003E00C1813E4142417C40828E8
:1038900007D000000004003C03C41C40074000E4C3
:1038A000001C000410041FFC1104110411040E88F4
:1038B0000070000003E00C1810041004100410083D
:1038C0001C10000010041FFC100410041004080851
:1038D00007F0000010041FFC1104110417C41004A9
:1038E0000818000010041FFC1104110017C010007C
:1038F0000800000003E00C181004100410441C78A9
:103900000040000010041FFC108400800080108420
:103910001FFC10040000100410041FFC100410040D
:103920000000000000030001100110011FFE100044
:103930001000000010041FFC110403801464181C04
:103940001004000010041FFC100400040004000414
:10395000000C000010041FFC1F0000FC1F001FFCD7
:103960001004000010041FFC0C04030000E01018F9
:103970001FFC100007F008081004100410040808C9
:1039800007F0000010041FFC1084108010801080CD
:103990000F00000007F0081810241024101C080A5B
:1039A00007F2000010041FFC1104110011C01130B7
:1039B0000E0C000400000E1C11041084108410442E
:1039C0001C3800001800100010041FFC1004100028
:1039D0001800000010001FF8100400040004100478
:1039E0001FF8100010001E0011E0001C0070138072
:1039F0001C0010001FC0103C00E01F0000E0103C45
:103A00001FC000001004180C163401C001C0163489
:103A1000180C100410001C00130400FC13041C00FC
:103A2000100000000804101C1064108413041C040F
:103A3000101800000000000000007FFE400240025D
:103A400040020000000030000C0003800060001CF9
:103A50000003000000004002400240027FFE000020
:103A60000000000000000000200040004000400076
:103A70002000000000010001000100010001000120
:103A80000001000100004000400020000000000094
:103A9000000000000000009801240144014401449A
:103AA00000FC000410001FFC0088010401040088D1
:103AB000007000000000007000880104010401048F
:103AC0000088000000000070008801040104110853
:103AD0001FFC0004000000F80144014401440144BB
:103AE00000C800000000010401040FFC11041104CF
:103AF00011001800000000D601290129012901C97F
:103B00000106000010041FFC0084010001000104F4
:103B100000FC000400000104190419FC0004000466
:103B2000000000000000000300010101190119FE5E
:103B30000000000010041FFC0024004001B4010C30
:103B4000010400000000100410041FFC0004000425
:103B500000000000010401FC0104010001FC01045B
:103B6000010000FC010401FC0084010001000104CB
:103B700000FC0004000000F8010401040104010439
:103B800000F80000010101FF008501040104008824
:103B900000700000000000700088010401040105AD
:103BA00001FF00010104010401FC00840104010083
:103BB00001800000000000CC012401240124012424
:103BC0000198000000000100010007F80104010451
:103BD00000000000010001F80004000400040108D6
:103BE00001FC0004010001800170000C0010016064
:103BF0000180010001F0010C003001C00030010C17
:103C000001F0010000000104018C00740170018CBE
:103C100001040000010101810171000E0018016022
:103C20000180010000000184010C01340144018481
:103C3000010C0000000000000000000001003EFC3C
:103C4000400240020000000000000000FFFF0000F2
:103C5000000000000000400240023EFC01000000A5
:103C60000000000000006000800080004000400074
:103C70002000200000000000000000000000000004
:103C80000000000000000000000000000000000034
:103C90000000000000000000000000000000000024
:103CA000000000000000000F80380FFE380F803841
:103CB0000000000000000000000000000000000004
:103CC00000000100000600000C0000380000310078
:103CD000000600000C00003800003000000000006A
:103CE0000000000061800067F807F9800061800033
:103CF00061800061800061800067F807F9800061E1
:103D00008000000000000000000001C0E003E0F0BF
:103D10000630080418081FFFFE040E080787F0038A
:103D200081E000000000000001F000060C00040427
:103D300008060C7001F9C0000E00003BE000EC1812
:103D4000070808040C180003E00000000001E00070
:103D500007F003F818041C0804170807E1D003C093
:103D6000E00023B0003C0800200800001000000024
:103D70000000000100003100003200001C000000C3
:103D80000000000000000000000000000000000033
:103D90000000000000000000000000000000000023
:103DA000000000007F0001FFC00780F00C00181029
:103DB00000042000020000000000002000021000AB
:103DC000040C00180780F001FFC0007F0000000015
:103DD00000000000000000000000000000000000E3
:103DE0004200006600006600003C0000180003FF6F
:103DF000C0001800003C00006600006600004200A1
:103E00000000000008000008000008000008000092
:103E1000080001FFC00008000008000008000008BA
:103E20000000080000000000000100003100003226
:103E300000001C0000000000000000000000000066
:103E40000000000000000000000000000800000862
:103E5000000008000008000008000008000008003A
:103E6000000800000800000800000000000000003A
:103E7000000000003800003800003800000000009A
:103E80000000000000000000000000000000000032
:103E900000000000000600001C000070000180000F
:103EA0000E0000380000C0000700001C00003000B9
:103EB00000000000000000007F8001FFE003807030
:103EC00006001804000804000806001803807001AA
:103ED000FFE0007F80000000000000000000010003
:103EE0000801000801000803FFF807FFF8000008B8
:103EF00000000800000800000000000000000001B1
:103F0000C03802C0580400980401180402180404C0
:103F100018061C1803F81801E0F800000000000063
:103F200000000001C0E003C0F00400080408080419
:103F3000080806180803F41801E7F00001E0000083
:103F400000000000000000000300000D0000110050
:103F500000610000810803010807FFF80FFFF80067
:103F600001080001080000000000000000E007FC5C
:103F7000D0060808061008061008061008061838AB
:103F8000060FF00607C0000000000000000000005F
:103F90003F8001FFE0038430020818041008041079
:103FA00008041008071810030FF00007C0000000F5
:103FB00000000000000003C000070000060000062B
:103FC00000F80607F806180006E0000700000600E3
:103FD0000000000000000001E1E003F7F0063410EB
:103FE000041808041808040C08040C080616180322
:103FF000F3F001C1E000000000000000F80003FC45
:1040000030030638040208040208040208040410FD
:104010000308F001FFC0007F000000000000000066
:104020000000000000000000000000007038007078
:1040300038007038000000000000000000000000A0
:104040000000000000000000000000000000000070
:10405000301A00301C0000000000000000000000CA
:104060000000000000000000000000080000140034
:104070000022000041000080800100400200200476
:1040800000100800080000000000000021000021CE
:10409000000021000021000021000021000021007B
:1040A00000210000210000210000000000000000AD
:1040B00000000800080400100200200100400080F9
:1040C00080004100002200001400000800000000F1
:1040D00000000003C00004C000040000080038080D
:1040E0000F380808380810000C300007E00003C043
:1040F00000000000000000003F8000FFE00380702F
:10410000020F1006708804C088048308047F8802A8
:10411000C09003012000FE400000080000180001CC
:10412000F8003E0801C20007020007E20000FE009E
:10413000001FC80001F8000038000008040008074C
:10414000FFF807FFF8040808040808040808040832
:104150000806180803F41801E7F00001E000000069
:10416000000000003F8001FFE0038070020018049F
:10417000000804000804000804001006002007805E
:10418000C000000004000807FFF807FFF80400085B
:1041900004000804000804001802001003807001E5
:1041A000FFE0007F8000000004000807FFF807FF21
:1041B000F8040808040808040808040808043E086D
:1041C0000400080600180100600000000400080751
:1041D000FFF807FFF80408080408000408000408B2
:1041E00000043E0006000006000001800000000000
:1041F000000000003F8001FFE0038070060018040B
:1042000000080402080402080203F00783F0000219
:104210000000020004000807FFF807FFF804080880
:104220000008000008000008000008000408080753
:10423000FFF807FFF8040008000000000000040079
:104240000804000804000807FFF807FFF804000846
:104250000400080400080000000000000000000046
:104260000006000007000001040001040001040032
:104270000307FFFE07FFFC04000004000004000029
:1042800004000807FFF807FFF8040C0800180000F6
:104290003E0004C7800503C80600F8040038040087
:1042A0001800000804000807FFF807FFF8040008DA
:1042B00000000800000800000800000800000800D6
:1042C000001800006000000004000807FFF80780E5
:1042D0000807FC00007FC00003F80007C00078005A
:1042E00007800807FFF807FFF80400080400080724
:1042F000FFF807000803C00000E000003800001EBF
:10430000000007000001C00400F007FFF8040000EF
:10431000000000007F8001FFE003807006001804A9
:10432000000804000806001803003001FFE0007FC9
:104330008000000004000807FFF807FFF8040408E5
:10434000040400040400040400040400060C000338
:10435000F80001F000000000000000007F8001FF75
:10436000E00380700600880400880400C806003C52
:1043700003003E01FFE6007F840000000400080700
:10438000FFF807FFF8040808040800040C00040FF5
:1043900000040BC00610F003F03801E0080000082C
:1043A00000000001E0F803F03006301004180804A3
:1043B0001808040C08040C080206180207F007810C
:1043C000E00000000180000600000400000400007E
:1043D00004000807FFF807FFF804000804000004C1
:1043E000000006000001800004000007FFE007FF56
:1043F000F004001800000800000800000800000891
:1044000000000804001007FFE0040000040000069C
:10441000000007E00007FE00041FE00001F80000B4
:10442000380001E0043E0007C00006000004000060
:1044300004000007E00007FFC0041FF80007C007E2
:10444000F80007FF80043FF80007C004F8000700E9
:104450000004000000000004000806001807C078EF
:1044600005F1C8003E00001F800463E80780F806DD
:104470000018040008000000040000060000078087
:104480000007E008047C08001FF80007F80018087F
:1044900004E008070000060000040000000000011E
:1044A00000080600380400F80403E8040F08047C40
:1044B0000805F00807C008070018040060000000A5
:1044C0000000000000000000000000000000003FAD
:1044D000FFFE200002200002200002200002200037
:1044E00002000000000000000000080000070000BB
:1044F00000C0000038000006000001C000003000CD
:10450000000E00000100000000000000000020007C
:10451000022000022000022000022000023FFFFED5
:10452000000000000000000000000000000000008B
:104530000000000000080000100000300000200013
:104540000030000010000008000000000000000023
:104550000000010000010000010000010000010056
:104560000001000001000001000001000001000046
:104570000100000100000000000000000020000019
:1045800020000010000010000000000000000000EB
:1045900000000000000000000000000000F0001912
:1045A000F8001B1800220800260800240800241028
:1045B000003FF8001FF80000080000180000000489
:1045C000000007FFF80FFFF0001818001008002087
:1045D00008002008003018001FF0000FC000000085
:1045E0000000000007C0001FF00018300020080085
:1045F0002008002008003C08001C1000006000009B
:10460000000000000000000007C0001FF000381884
:1046100000200800200800200804101007FFF80FF1
:10462000FFF0000010000000000000000000000784
:10463000C0001FF0001230002218002208002208DB
:10464000003208001E10000E2000000000000000D4
:10465000200000200800200801FFF803FFF80620D2
:1046600008042008042008072000030000000000C0
:1046700000000000000E000E6E001FF30031B100BC
:1046800020B10020B1003191001F13002E1E002028
:104690000E00300000000004000807FFF80FFFF8CC
:1046A000001008002000002000002008003FF80053
:1046B0001FF80000080000000000000000000020BB
:1046C00008002008002008063FF8063FF800000810
:1046D00000000800000800000000000000000000CA
:1046E0000000000003000003002001002001002062
:1046F00003063FFE063FFC00000000000000000033
:1047000000000004000807FFF80FFFF80001880010
:104710000300002FC00038F80020380020080000F7
:104720000800000000000000000004000804000869
:1047300004000807FFF80FFFF80000080000080059
:104740000008000000000000002008003FF8003FC3
:10475000F8001008002000003FF8003FF8001008A3
:10476000002000003FF8003FF800000800000000B3
:104770002008003FF8003FF800100800100000205B
:1047800000002008003FF8001FF8000008000000AB
:104790000000000007C0000FF000183000300800D3
:1047A0002008002008003008001830000FF0000733
:1047B000C0000000000000002001003FFF003FFF9C
:1047C00000101100200900200800200800303800E7
:1047D0001FF0000FC00000000000000007C0001F15
:1047E000F0003818002008002008002009001011EF
:1047F000001FFF003FFF0000010000000020080034
:104800002008002008003FF8003FF80008080010CA
:1048100008002008002000003000003000000000E8
:10482000000000000000000C78001E180033080093
:1048300023080021080021880021980030F000386A
:1048400060000000000000002000002000002000A8
:1048500000FFF003FFF800200800200800200800F7
:104860000030000000000000000000002000003FB9
:10487000F0007FF800001800000800000800201079
:10488000003FF8007FF00000100000000000000072
:104890002000003000003C00003F800023F00000BA
:1048A00078000070002380003C00003000002000F1
:1048B000002000003C00003FE00023F80000E00082
:1048C0002700003E00003FE00021F80001E0003E2C
:1048D00000002000000000002008002008003838F8
:1048E000003E680027800003C8002CF8003838001C
:1048F0002018002008000000000000002000003008
:1049000003003C01003F830023EC00007000238083
:10491000003C00002000002000000000000000001B
:1049200000000038080020380020F80023E8002F9D
:1049300088003E08003808002018000070000000C1
:104940000000000000000000000000000000000067
:1049500008000014001FF7FC3000062000020000D1
:104960000000000000000000000000000000000047
:10497000000000000000FFFFFF000000000000003A
:104980000000000000000000000000000000200007
:10499000023000061FF7FC001400000800000000B1
:1049A00000000000000000000000000000000018EF
:1049B00000006000004000004000002000001000E7
:1049C000000800000400000400000C0000100000BB
:1049D00000000000000000000102030406070809AF
:1049E000004A0008000000201C0000000C270008FE
:1049F0001C4A00081C000020F40400001C270008CA
:104A00000000000000000000010000001000000095
:0C4A1000000000000024F4000000000082
:0400000508000131BD
:00000001FF
