:020000040800F2
:1000000060040020450100083F140008A313000805
:100010003D140008790600083117000800000000B0
:100020000000000000000000000000004314000871
:100030007B06000800000000411400084514000879
:100040005F0100085F0100085F0100085F01000810
:100050005F0100085F0100085F0100085F01000800
:100060005F0100085F0100085F0100085F010008F0
:100070005F0100085F0100085F0100085F010008E0
:100080005F0100085F0100085F0100085F010008D0
:100090005F0100085F0100085F0100085F010008C0
:1000A0005F0100085F0100085F0100085F010008B0
:1000B0005F0100085F0100085F0100085F010008A0
:1000C0005F0100085F0100085F0100085F01000890
:1000D0005F010008251700085F0100085F010008A4
:1000E0005F0100085F0100085F0100085F01000870
:1000F0005F0100085F0100085F0100085F01000860
:100100005F0100085F0100085F0100085F0100084F
:100110005F0100085F0100085F0100085F0100083F
:100120005F0100085F0100085F0100085F0100082F
:10013000DFF80CD000F0B4F800480047C5180008FC
:10014000600400200648804706480047FEE7FEE7B7
:10015000FEE7FEE7FEE7FEE7FEE7FEE7FEE7FEE777
:100160009914000831010008D2B201E000F8012B17
:10017000491EFBD270470022F6E710B513460A4627
:1001800004461946FFF7F0FF204610BD0FB400B536
:1001900089B00BA800906A4603480A9900F076F8E7
:1001A00009B05DF814FB0000100000202DE9FF5F8E
:1001B000D2E901A74FF00008916999461446DDF88D
:1001C00038B0464601988847054659EA0B0005D0E5
:1001D00009E0A169761C019888470546216A2846EE
:1001E00088470028F5D1681C03D05FEACA7005D0A3
:1001F00015E04FF0FF3004B0BDE8F09F2068011D0E
:100200002160D0F800800AE05FEACA7001D108F8E6
:10021000015BA169761C7F1E019888470546002F67
:100220001ADD681C18D0B9F1000F0DD0E81705EBE6
:10023000D060421120F01F0059F822102A1A012024
:1002400090400142E0D107E0BBF1000FDCD1216A10
:10025000284688470028D7D0E16901988847BBF134
:10026000000F07D1002E05DD5FEACA7002D1002120
:1002700088F80010A068B84203DDBBF1000F03D07E
:1002800017B16FF00100B6E73046B4E7024B936157
:10029000024BD36100F032B869180008E10200088F
:1002A000064C074D06E0E06840F0010394E80700C3
:1002B00098471034AC42F6D3FFF73EFF841900088C
:1002C000A4190008094910B508784C1C18B1401E43
:1002D0000870205C10BD00210720ABBE207010BD4F
:1002E00002490878421C0A7070470000180000207C
:1002F000026811441378016018467047D1600449C0
:1003000051610449116200211161114600F00AB8DF
:10031000F102000819030008C0B24FF4F05100F0D8
:1003200097B900002DE9F34F8BB04FF0000801F1B1
:100330000C000C464FF0010B46460DF1080A0190E7
:100340006269012101989047051E2DD0252D2CD0E2
:10035000216A8847C0B16269012101989047216AEA
:1003600088470028F7D1411E62690198904700E054
:10037000761CA1690B988847216A88470028F7D125
:10038000E1690B988847DBE7A1690B988847074626
:10039000A84201D1761CD3E7E1690B9888477F1CFE
:1003A00002D1B8F1000F6FD046E1002762693D46E7
:1003B0003946019890472A2804D1626901210198A1
:1003C00090470125DFF884926269012101989047E6
:1003D000A0F130010A290AD24F45E5DC07EB87017D
:1003E00000EB4107303FDFD445F01005ECE7E906AC
:1003F00001D46FF000476C280AD04C2814D068282C
:1004000015D06A280DD074281CD07A281AD01DE087
:1004100062690121019890476C2802D045F00405DB
:1004200014E045F002050DE045F020050AE06269A0
:10043000012101989047682802D045F0080505E0A1
:1004400045F400656269012101989047C4E90157AC
:1004500065283DD019DC58287AD00CDC452837D0E7
:1004600004DC252826D0412831D131E046282FD080
:1004700047282CD12CE05B2877D0612828D063282E
:100480007CD0642823D15AE0D0E06F2848D008DC23
:1004900066281DD067281BD0692821D06E2816D168
:1004A00027E0702845D0732868D0752847D0782871
:1004B0000DD14DE0A1690B988847054625283FF4EA
:1004C00069AFE1690B9888476D1C3FF46AAFB3E0F0
:1004D00023466A466FF001000B99AFF300809EE05F
:1004E00045F040006060A80723464FF0000236D474
:1004F0003EE0E8077FF447AF2068011D21600068F7
:10050000290501D506701BE7290701D5068017E7E5
:10051000A90703D5F117C0E9006111E706600FE7ED
:1005200045F040006060A80723464FF0080216D44B
:100530001EE040F60E0125EA0100606016E045F07D
:1005400040006060A80723464FF00A0207D40FE07E
:1005500045F040006060A80708D5234610226FF0E0
:1005600001000B99AFF3008059E007E02346102209
:100570006FF001000B99AFF3008050E04FF00009DD
:100580004F464B46632802D05B2806D040E0E80681
:1005900001D40120A06001273AE06269012101989D
:1005A00090475E2805D14FF00109626949460198DC
:1005B0009047216939B900210A46534643F8212062
:1005C000491C0829FADBB0B3216969B9C11700EBEE
:1005D000D16253110AEB830122F01F02821A01201B
:1005E0000B68904003430B606269012101989047BA
:1005F0005D28E8D1B9F1000F09D00020514651F82B
:100600002020D24341F82020401C0828F7DB02AB11
:10061000224600976FF001000B99FFF7C7FD0028F5
:100620000CDA401C08D1BBF1000F05D04FF0FF30B1
:100630000DB0BDE8F08FFFE74046F9E7E90701D1CB
:1006400008F1010806444FF0000B79E6CCCCCC0C45
:100650007F2801D9002208E0064A02EB5002C007B9
:10066000127800D1120902F00F02012090400840D8
:100670007047000044190008FEE77047704700000B
:100680002DE9F05F90F821100024022903D0042105
:100690008163012485E001680A6822F00E020A6085
:1006A00001680A6822F001020A603F4E3E4FB2150F
:1006B000DFF8F4C0DFF8F090DFF8ECA0DFF8E8B086
:1006C000DFF8E4E00168783F13011502ACF1640C37
:1006D000A9F15009AAF13C0AABF1280BAEF1140EB6
:1006E0004FF48018B14227D9B9420ED0614512D0DB
:1006F00049451DD0514518D0594518D0714501D1F3
:10070000424615E0294EB14201D1012210E0274EA8
:100710001436B14201D110220AE0244E2836B142EB
:1007200006D0224A3C32914201D11A4600E02A46C4
:100730001E49091F0A602BE0B94213D0614517D04A
:10074000494522D051451DD059451DD0714501D193
:1007500042461AE0B14202D14FF0807215E0134ECA
:10076000B14201D1012210E0104E1436B14201D144
:1007700010220AE00D4E2836B14206D00B4A3C3218
:10078000914201D11A4600E02A46074980394A6061
:10079000012180F82110002180F82010416B01B167
:1007A00088472046BDE8F09F8000024008040240D0
:1007B00070B5044600F010F90546601C02D00448EC
:1007C0000078044400F008F9401BA042FAD370BD41
:1007D000000000202DE9F84FDFF8C891002409F14E
:1007E000040A0AF1040B23460F270BF1040ED1E093
:1007F0000125A54006EA0502AA4276D1DFF8A8C184
:100800004E68A6EB0C0866452BD00DDC032E34D0C9
:1008100005DC36B3012E19D0022E2FD11BE0112E8C
:1008200016D0122E2AD119E0B8F5881F19D006DC8F
:10083000B8F5803F15D0B8F5801F1FD111E0B8F58D
:10084000001F0ED0B8F5041F18D10AE0CB6815E0E0
:10085000CB681B1D12E0CB6808330FE0CB680C336C
:100860000CE08B682BB1012B4FF0080303D04561DE
:1008700004E0042302E0056100E00023FF2A01D820
:10088000064601E000F104064FEA840501D9A5F10E
:100890002005D6F8008007FA05FC28EA0C0803FAC0
:1008A00005F548EA0508C6F800804D68ED0070D5EA
:1008B0003E4DAE6946F00106AE61AD6924F0030617
:1008C00005F0010500953A4D06EB050CDCF80850E3
:1008D000A607360F07FA06F825EA0805DFF8D480E0
:1008E000404503D14FF0000825E052E0DFF8C88012
:1008F000404502D14FF001081DE0DFF8C0804045BF
:1009000002D14FF0020816E0DFF8B480404502D172
:100910004FF003080FE0DFF8AC80404502D14FF004
:10092000040808E0DFF8A080404502D14FF0050838
:1009300001E04FF0060808FA06F848EA0508CCF886
:1009400008804D68D9F80060ED034D4601D5164387
:1009500000E096432E604D68DAF80060AD0355461E
:1009600001D5164300E096432E604D68DBF8006029
:10097000ED025D4601D5164300E096432E604D68BA
:10098000DEF80060AD02754601D5164300E09643DF
:100990002E60641C0A681646E2407FF429AFBDE869
:1009A000F88F000000040140000011100010024008
:1009B0000000014000080140000C0140001001400F
:1009C0000014014000180140001C01400AB10161FF
:1009D00070470904FBE70000014880687047000089
:1009E000000000200248816802781144816070474D
:1009F00000000020074810B5016841F010010160B7
:100A0000032000F075F8002000F006F800F024F84C
:100A1000002010BD0020024070B50D4D04464FF47B
:100A20007A712878B1FBF0F00A490968B1FBF0F05F
:100A300000F0ECFA48B9102C07D200222146501ED3
:100A400000F036F800206C6070BD012070BD000021
:100A5000000000200C0000200C4808B5816941F01E
:100A600001018161816901F001010091C16941F0D9
:100A70008051C161C06900F0805000900448416815
:100A800021F0E06141F00071416008BD00100240BA
:100A900000000140002809DB00F01F020121914005
:100AA0004009800000F1E020C0F80011704700000C
:100AB000F0B40E4B1B680C46C3F30223C3F10705C9
:100AC000042D00D90425191D072901D2002300E0B7
:100AD000DB1E012606FA05F1491E214099409E4081
:100AE000761E16403143F0BC00F034BE0CED00E041
:100AF000064900F0070208684FF6FF03184040EA75
:100B00000220034A10430860704700000CED00E02B
:100B10000000FA052DE9F0470F46050061D0434E6D
:100B2000306800F00700B84209D2306820F00700B2
:100B300038433060306800F00700B84251D128686F
:100B40003B4C810712D5400703D5606840F4E06054
:100B500060602878000703D5606840F460506060EA
:100B60006068A96820F0F000084360602878C0073A
:100B700028D06868012810D02168022810D0890781
:100B800000292EDA616821F0030101436160FFF75B
:100B900023FF804641F288390DE021688903EFE7A1
:100BA0008901EDE7FFF718FFA0EB0801494502D9DD
:100BB0000320BDE8F0876068696800F00C00B0EBC6
:100BC000810FEFD1306800F00700B8420BD93068D0
:100BD00020F0070038433060306800F00700B8426A
:100BE00001D00120E5E72878400705D56068E9686D
:100BF00020F4E060084360602878000706D560684C
:100C0000296920F4605040EAC100606000F038F8C3
:100C10006168084AC1F30311515CC8400649086085
:100C200006480068FFF7F8FE0020C2E700200240F7
:100C3000001002402C1900080C00002004000020C5
:100C40000448054900684968044AC1F30221515C1F
:100C5000C84070470C000020001002403C190008FA
:100C60000448054900684968044AC1F3C221515C3F
:100C7000C84070470C000020001002403C190008DA
:100C800012A185B00FC98DE80F0014A0144A0068A6
:100C900004905168134801F00C03042B10D0082B6A
:100CA0000ED1C1F38343C9031DF803000AD551686F
:100CB00004AAC1F34041515C0A4A5043B0FBF1F031
:100CC00005B0704708494843FAE7000002030405ED
:100CD000060708090A0B0C0D0E0F10100102000088
:100CE0000010024000127A0000093D002DE9F84F83
:100CF000040070D02078C04DC00749D06868C0F3A8
:100D00008100012807D06868C0F38100022809D15A
:100D10006868C00306D52868800339D56068002854
:100D2000E7D035E06068B0F5803F0BD010B1B0F58A
:100D3000A02F11D0286820F480302860286820F483
:100D4000802002E0286840F480302860606890B11C
:100D5000FFF742FE06460AE0286840F4802028603B
:100D6000F0E700BFFFF738FE801B642873D82868BF
:100D70008003F7D50CE0FFF72FFE064605E000BF25
:100D8000FFF72AFE801B6428F0D828688003F7D478
:100D900020789A4E80074FF001094FF0000839D5AE
:100DA000686810F00C0F07D06868C0F38100022853
:100DB00009D16868C00306D42868800714D5206963
:100DC000012808D110E02069B0B1C6F80090FFF703
:100DD00003FE074605E00AE1FFF7FEFDC01B0228FF
:100DE000C4D828688007F7D52868616920F0F80022
:100DF00040EAC10028600DE0C6F80080FFF7ECFD76
:100E0000074604E0FFF7E8FDC01B022823D8286846
:100E10008007F7D4207800072CD57948A169D9B18B
:100E2000C0F80090FFF7D8FD074604E0FFF7D4FDB7
:100E3000C01B02280FD8686A8007F7D571484FF4A5
:100E4000FA510068B0FBF1F0009000BF0098411E1D
:100E50000091FAD20EE080E0C0F80080FFF7BCFD00
:100E6000074604E0FFF7B8FDC01B022875D8686A82
:100E70008007F7D42078400760D5E8690027C000D4
:100E800008D4E86940F08050E861E869012700F083
:100E9000805000905C480168C90513D401688346FE
:100EA00041F480710160FFF797FD824606E000BFC4
:100EB000FFF792FDA0EB0A0064284ED8DBF8000093
:100EC000C005F5D5E06801280AD008B1052813D07F
:100ED000286A20F001002862286A20F0040002E05D
:100EE000286A40F001002862E06841F2883B98B12E
:100EF000FFF772FD82460BE0286A40F0040028628A
:100F0000EEE700BFFFF768FDA0EB0A0159455AD88C
:100F1000286A8007F6D50CE0FFF75EFD824605E003
:100F2000FFF75AFDA0EB0A0159454CD8286A800703
:100F3000F6D41FB1E86920F08050E861E06988B319
:100F40006968C1F38101022944D00228C6F8608093
:100F500004D0FFF741FD044638E034E0FFF73CFDE4
:100F6000074604E0FFF738FDC01B02282BD828688D
:100F70008001F7D4206AB0F5803F05D16868A16888
:100F800020F4003008436860D4E908010843696828
:100F900021F4741108436860C6F86090FFF71CFDE7
:100FA000044606E025E000BFFFF716FD001B0228FF
:100FB00009D828688001F7D51BE000BFFFF70CFDBA
:100FC000001B022802D90320BDE8F88F28688001A1
:100FD000F4D40EE00128F7D06868226A00F480316A
:100FE000914204D1616A00F47010884201D001205E
:100FF000EAE70020E8E7000000100240000042425B
:10100000800442420C0000200070004010B5401ED9
:10101000B0F1807F01D3012010BD4FF0E02460616A
:101020000F21601700F096FB0020A06107202061CF
:10103000002010BD7047000070B5026804461068BB
:10104000D168536910F00F0F50D003F0010501F47F
:10105000907635435DD0C20705D0CA0503D5E26B53
:1010600042F00102E263420705D5DA0703D0E26BE2
:1010700042F00202E263820705D5DA0703D0E26B91
:1010800042F00402E263020705D5DA0703D0E26BFF
:1010900042F00802E263E26B002A33D0800604D5F6
:1010A000880602D5204600F031FA20684069E16BDD
:1010B000C0F38010090700D428B3204600F018FAC6
:1010C0002068416949061AD5416921F04001416112
:1010D000606BA0B11B494163606BFFF7D1FA002838
:1010E00010D0606B416BBDE870400847830610D597
:1010F0008B060ED52046BDE8704000F007BA2046AA
:10110000FFF798FF70BD2046FFF794FF0020E063D3
:1011100070BD030606D50B0604D52046BDE8704019
:1011200000F09CBA4006F3D54806F1D5D1682046B8
:1011300021F04001D160202184F8391000F030F90D
:1011400070BD0000E114000870B5040004D094F8EC
:101150003900002510B106E0012070BD84F8385038
:10116000204600F023F8242084F839002068C16864
:1011700021F40051C160204600F014FA2068016992
:1011800021F4904101612068416921F02A01416107
:101190002068C16841F40051C160E563202084F8F3
:1011A000390084F83A00002070BD000030B585B0E9
:1011B0000024009401940294039400681849884222
:1011C0002CD11848816941F480418161816901F421
:1011D00080410491816941F0040181618069124D6F
:1011E00000F0040004904FF4007000900220019081
:1011F0000320039069462846FFF7ECFA2815CDE94D
:101200000004694628460294FFF7E4FA00221146DA
:101210002520FFF74DFC2520FFF73CFC05B030BD35
:101220000038014000100240000801402DE9F84359
:10123000044690F83A00994616460D4620284FD1AC
:1012400095B18EB194F83800012849D0012084F876
:1012500038000027E763222084F83A00FFF7BCFB40
:10126000A6858046E68531E00120BDE8F883E08D63
:10127000401EE085A0684346B0F5805F4FF0000255
:101280004FF020012046CDF8009004D000F017FA6E
:1012900098B10320E9E700F012FA0028F9D120699B
:1012A00000282068406803D0C1B225F8011B0DE07A
:1012B000C0F3080125F8021B08E020690028206817
:1012C000406801D000F07F0005F8010BE08D002898
:1012D000CDD1202084F83A0084F838700020C4E78B
:1012E0000220C2E770472DE9F843044690F8390020
:1012F0001F4616460D46202850D1A5B19EB194F840
:10130000380001284AD0012084F838004FF0000846
:10131000C4F83C80212084F83900FFF75DFBA684E7
:101320008146E68426E00120BDE8F883E08C401E7B
:10133000E084A0684B46B0F5805F4FF000024FF0AC
:1013400080012046009703D000F0B9F9E8B90DE01C
:1013500000F0B5F9C8B928882168C0F308004860D2
:10136000206908B16D1C05E0AD1C03E0216815F88B
:10137000010B4860E08C0028D8D14B460022402168
:101380002046009700F09BF908B10320CCE720200D
:1013900084F8390084F838800020C5E70220C3E7CC
:1013A0007047FEE730B585B00024144800940194DE
:1013B00002940394816941F010018161816901F017
:1013C00010010491816941F00401816180690C4D33
:1013D00000F00400049001220F212846FFF7F6FADE
:1013E0000F2000900120CDE90104022003906946FE
:1013F0002846FFF7EFF905B030BD000000100240AD
:10140000001001400C4810B50A4901604FF4E13169
:101410004160002181600C22C160C0E90412816139
:10142000C161FFF791FE002803D0BDE81040FFF72F
:1014300025B910BD003801401C000020FEE77047B0
:1014400070477047FFF7CEBA30B58FB02821684695
:10145000FEF791FE14210AA8FEF78DFE0121080473
:10146000CDE900100024029402250491CDE9075033
:101470004FF4E01009906846FFF738FC0F20CDE9E3
:101480000A056802CDE90C4002210AA80E94FFF774
:1014900041FB0FB030BD00000D48016841F0010173
:1014A000016041680B4A1140416001680A4A1140DD
:1014B0000160016821F480210160416821F4FE018E
:1014C00041604FF41F0181600449C0030860704708
:1014D000001002400000FFF8FFFFF6FE08ED00E0FC
:1014E00010B5406A0021C185C184FFF7A3FD10BD7E
:1014F0000168CA6822F49072CA6001684A6922F0E1
:1015000001024A61202180F83A10704710B590F826
:101510003A10222901D0022010BD8168B1F5805F08
:1015200011D00169002901681FD0496801F07F03CB
:10153000816A4A1C82620B70C18D491E0904090C24
:10154000C18518D02BE00269816A002A02685268BE
:1015500005D0D2B20A80816A491C8162ECE7C2F3ED
:1015600008020A80816A891CF7E74A68816A4B1C75
:1015700083620A70E0E70168CA6822F02002CA604C
:101580000168CA6822F48072CA6001684A6922F060
:1015900001024A61202180F83A10FFF7A3FE0020E3
:1015A00010BD00002DE9F041044600680169E268C1
:1015B00021F44051114301612169A0680843616928
:1015C00008432168CA6841F20C639A430243CA6027
:1015D00020684169A26921F44071114341611E49AB
:1015E000206864253226884202D1FFF739FB01E0EA
:1015F000FFF726FB00EBC00101EB001160686FF004
:1016000018078000B1FBF0F2B2FBF5F2B1FBF0F38A
:101610007A4303EB8202B1FBF0F306EB0212B2FB5A
:10162000F5F2B3FBF5F302F0F00202EB0312B1FBAB
:10163000F0F3B1FBF0F0B0FBF5F0784303EB800082
:1016400006EB0010B0FBF5F0216800F00F0010442D
:101650008860BDE8F08100000038014090F8391042
:10166000212901D0022070478168B1F5805F016AAD
:101670000BD04A1C0262026809785160C18C491E75
:101680000904090CC1840ED017E009880268C1F36F
:101690000801516001690029016A02D0491C0162F8
:1016A000ECE7891CFBE70168CA6822F08002CA6087
:1016B0000068C16841F04001C160002070472DE919
:1016C000F041984617460E460446069D1DE0681CEC
:1016D0001BD02DB1FFF780F9A0EB0800A84214D968
:1016E0002068C16821F4D071C1602068416921F08F
:1016F00001014161202084F8390084F83A0000207B
:1017000084F838000320BDE8F0812068006836EADC
:10171000000004D00020B842D9D00020F3E7012017
:10172000F9E700000148FFF787BC00001C0000201B
:10173000FEE700000FB4054B10B503A9044A029858
:1017400000F027F810BC5DF814FB000085180008B5
:10175000140000200907090E002804DB00F1E02036
:1017600080F80014704700F00F0000F1E02080F8CE
:10177000141D704702E008C8121F08C1002AFAD1E0
:1017800070477047002001E001C1121F002AFBD101
:1017900070472DE9F84F994692468846054600273E
:1017A00006E025280AD051464A4690476D1C7F1C0A
:1017B00028780028F5D13846BDE8F88F002315F8C1
:1017C000011F18462E2915D115F8011F04232A29B7
:1017D0000DD06FF02F022978A1F13004092C09D81F
:1017E00000EB800002EB400008446D1CF3E758F862
:1017F000040B6D1C2A78002ADDD0632A07D0732AD7
:101800000FD0104651464A4690477F1C2AE018F8F0
:10181000042B8DF8002000218DF801106E46012167
:1018200003E058F8046B4FF0FF315A074FF0000403
:1018300001D409E0641C84420BDA8C42FADB325D8D
:10184000002AF7D105E0641C8C42FCDB305D0028E7
:10185000F9D1274404E016F8010B51464A46904757
:10186000641EF8D26D1CA3E708B54FF6FF73012282
:1018700069460348FFF7DAFC9DF8000008BD000048
:101880001C00002013B54FF6FF73042269460B4875
:10189000FFF729FD0A4900980968C90706D00849D9
:1018A00080390968CA074FF0604101D11CBD00BFF3
:1018B0000A68002AFBD008701CBD00001C00002034
:1018C000800E00E090B0FFF795F8FFF7BDFDFFF741
:1018D00069FDFFF797FD0AA0FFF72CFF4FF47A741C
:1018E0000BA0FFF727FF69460CA0FEF74FFC6946E7
:1018F0000BA0FFF71FFF2046FEF75AFFF0E700009E
:101900000A0D68656C6C6F776F726C640000000084
:101910000A0D696E7075743A0000000025730000AE
:101920000A0D6F75747075743A257300000000001D
:10193000000000000102030406070809000000007F
:1019400001020304DDDDDDDDDCBBBBDDDDDDDDDD76
:10195000DDDDDDDD988888888888888877777777E7
:1019600077888888855555566666666666666666B3
:10197000666888888333333222222222222222225E
:101980002228888DA4190008000000201C000000F7
:1019900074170008C01900081C000020440400004F
:1019A0008417000801000000100000000000000083
:1019B0000024F4000000000000000000000000000F
:0400000508000131BD
:00000001FF
