:020000040800F2
:1000000038040020450100087B0D0008F10C0008B1
:10001000790D0008FD0100081D0E00080000000019
:100020000000000000000000000000007F0D00083C
:10003000FF010008000000007D0D0008810D000890
:100040005F0100085F0100085F0100085F01000810
:100050005F0100085F0100085F0100085F01000800
:100060005F0100085F0100085F0100085F010008F0
:100070005F0100085F0100085F0100085F010008E0
:100080005F0100085F0100085F0100085F010008D0
:100090005F0100085F0100085F0100085F010008C0
:1000A0005F0100085F0100085F0100085F010008B0
:1000B0005F0100085F0100085F0100085F010008A0
:1000C0005F0100085F0100085F0100085F01000890
:1000D0005F0100085F0100085F0100085F01000880
:1000E0005F0100085F0100085F0100085F01000870
:1000F0005F0100085F0100085F0100085F01000860
:100100005F0100085F0100085F0100085F0100084F
:100110005F0100085F0100085F0100085F0100083F
:100120005F0100085F0100085F0100085F0100082F
:10013000DFF80CD000F050F800480047FD0F000831
:10014000380400200648804706480047FEE7FEE7DF
:10015000FEE7FEE7FEE7FEE7FEE7FEE7FEE7FEE777
:10016000D50D000831010008202A04DB203A21FACD
:1001700002F00021704721FA02F3D040C2F12002C0
:100180009140084319467047D2B201E000F8012BB4
:10019000491EFBD270470022F6E710B513460A4607
:1001A00004461946FFF7F0FF204610BD30B50B4658
:1001B000014600202022012409E021FA02F59D4297
:1001C00005D303FA02F5491B04FA02F52844151E6B
:1001D000A2F10102F1DC30BD064C074D06E0E068FB
:1001E00040F0010394E8070098471034AC42F6D37E
:1001F000FFF7A2FFE410000804110008FEE77047B3
:1002000006490020C8610648016941F00401016106
:10021000016941F0400101617047000018000020B1
:1002200000200240064A0021D16106490A6942F0D5
:1002300002020A614861086940F0400008617047A5
:100240001800002000200240044B0022DA61044A1A
:10025000136943F001031361018070471800002007
:100260000020024014480022C168CB06134904D57F
:10027000CA6942F00202CA611022C3685B0705D551
:10028000CB6943F00103CB6142F00402C369DB0791
:1002900007D0CB6943F00403CB61C16921F00101B0
:1002A000C161A2F58071013901D0C2607047C16996
:1002B00021F00101C16170470020024018000020B8
:1002C00070B5054600F014FA0646114C09E0681CAA
:1002D00007D025B100F00CFA801BA84201D90320F9
:1002E00070BDE068C007F2D1E068800601D520202B
:1002F000E060E068C00605D4E069C00702D1E068AC
:10030000400703D5FFF7AEFF012070BD002070BD90
:100310000020024070B586B000250E4604460495C4
:1003200000F0CCF801200390A4F100606FF30A0004
:1003300000F10060029004A90095684600F020F8E2
:10034000002809D1324600232146022000F076F829
:10035000002801D100F068F806B070BD70B5044601
:1003600000F0C6F90546601C02D004480078044439
:1003700000F0BEF9401BA042FAD370BD000000207F
:100380002DE9F047054626480F460126017E012942
:100390000FD00121814601762868DFF888804CF271
:1003A0005034022808D0A2462046FFF789FFA8B1A2
:1003B00031E00220BDE8F0872046FFF781FF08BB4F
:1003C0000120FFF71DFF2046FFF77AFFD8F8101035
:1003D000064621F00401C8F810101CE04FF0FF3071
:1003E0003860AC6811E02046FFF71CFF5046FFF76D
:1003F00067FFD8F81010060021F00201C8F81010AD
:1004000001D03C6007E004F50064D5E9020100EB8F
:10041000C120A042E7D8002189F818103046C9E76A
:1004200018000020002002400348016941F08001CB
:100430000161002070470000002002402DE9F05FBC
:1004400007461C4888460024017E15461E460129A1
:1004500009D00121814601764CF2503A5046FFF70F
:100460002FFF18B122E00220BDE8F09F012F02D03B
:10047000022F00D00427D346DFF83CA022012846F3
:100480003146FFF771FE81B208EB4400FFF7DCFE56
:100490005846FFF715FFDAF8102022F00102CAF8DB
:1004A000102018B9641CE4B2BC42E7D3002289F8DA
:1004B0001820D9E71800002000200240064900203B
:1004C0000A69120607D5054A4A60054A4A60096961
:1004D000090600D50120704700200240230167452E
:1004E000AB89EFCD2DE9F84FDFF8C891002409F171
:1004F000040A0AF1040B23460F270BF1040ED1E086
:100500000125A54006EA0502AA4276D1DFF8A8C176
:100510004E68A6EB0C0866452BD00DDC032E34D0BC
:1005200005DC36B3012E19D0022E2FD11BE0112E7F
:1005300016D0122E2AD119E0B8F5881F19D006DC82
:10054000B8F5803F15D0B8F5801F1FD111E0B8F580
:10055000001F0ED0B8F5041F18D10AE0CB6815E0D3
:10056000CB681B1D12E0CB6808330FE0CB680C335F
:100570000CE08B682BB1012B4FF0080303D04561D1
:1005800004E0042302E0056100E00023FF2A01D813
:10059000064601E000F104064FEA840501D9A5F101
:1005A0002005D6F8008007FA05FC28EA0C0803FAB3
:1005B00005F548EA0508C6F800804D68ED0070D5DD
:1005C0003E4DAE6946F00106AE61AD6924F003060A
:1005D00005F0010500953A4D06EB050CDCF80850D6
:1005E000A607360F07FA06F825EA0805DFF8D480D3
:1005F000404503D14FF0000825E052E0DFF8C88005
:10060000404502D14FF001081DE0DFF8C0804045B1
:1006100002D14FF0020816E0DFF8B480404502D165
:100620004FF003080FE0DFF8AC80404502D14FF0F7
:10063000040808E0DFF8A080404502D14FF005082B
:1006400001E04FF0060808FA06F848EA0508CCF879
:1006500008804D68D9F80060ED034D4601D516437A
:1006600000E096432E604D68DAF80060AD03554611
:1006700001D5164300E096432E604D68DBF800601C
:10068000ED025D4601D5164300E096432E604D68AD
:10069000DEF80060AD02754601D5164300E09643D2
:1006A0002E60641C0A681646E2407FF429AFBDE85C
:1006B000F88F0000000401400000111000100240FB
:1006C0000000014000080140000C01400010014002
:1006D0000014014000180140001C014080680840DF
:1006E00000D0012070470AB1016170470904FBE79F
:1006F00001488068704700000000002002488168BF
:10070000027811448160704700000020074810B54E
:10071000016841F010010160032000F067F800203B
:1007200000F006F800F024F8002010BD0020024080
:1007300070B50D4D04464FF47A712878B1FBF0F096
:100740000A490968B1FBF0F000F0BEFA48B9102C74
:1007500007D200222146501E00F028F800206C60CD
:1007600070BD012070BD0000000000200C000020C2
:100770000C4808B5816941F001018161816901F08E
:1007800001010091C16941F08051C161C06900F06F
:10079000805000900448416821F0E06141F0007110
:1007A000416008BD0010024000000140F0B40E4B53
:1007B0001B680C46C3F30223C3F10705042D00D9BF
:1007C0000425191D072901D2002300E0DB1E0126A4
:1007D00006FA05F1491E214099409E40761E1640BA
:1007E0003143F0BC00F02CBB0CED00E0064900F0FA
:1007F000070208684FF6FF03184040EA0220034A48
:1008000010430860704700000CED00E00000FA059E
:100810002DE9F0470F46050061D0434E306800F0E7
:100820000700B84209D2306820F007003843306032
:10083000306800F00700B84251D128683B4C81076E
:1008400012D5400703D5606840F4E0606060287806
:10085000000703D5606840F4605060606068A96874
:1008600020F0F000084360602878C00728D068684E
:10087000012810D02168022810D0890700292EDA1B
:10088000616821F0030101436160FFF731FF804699
:1008900041F288390DE021688903EFE78901EDE72E
:1008A000FFF726FFA0EB0801494502D90320BDE868
:1008B000F0876068696800F00C00B0EB810FEFD141
:1008C000306800F00700B8420BD9306820F007000C
:1008D00038433060306800F00700B84201D0012092
:1008E000E5E72878400705D56068E96820F4E0600E
:1008F000084360602878000706D56068296920F4FD
:10090000605040EAC100606000F018F86168084A71
:10091000C1F30311515CC8400649086006480068ED
:10092000FFF706FF0020C2E700200240001002404F
:10093000D41000080C0000200400002012A185B093
:100940000FC98DE80F0014A0144A00680490516884
:10095000134801F00C03042B10D0082B0ED1C1F367
:100960008343C9031DF803000AD5516804AAC1F3E3
:100970004041515C0A4A5043B0FBF1F005B070476A
:1009800008494843FAE7000002030405060708097E
:100990000A0B0C0D0E0F1010010200000010024097
:1009A00000127A0000093D002DE9F84F040070D0D4
:1009B0002078C04DC00749D06868C0F38100012885
:1009C00007D06868C0F38100022809D16868C003B5
:1009D00006D52868800339D560680028E7D035E05F
:1009E0006068B0F5803F0BD010B1B0F5A02F11D0EA
:1009F000286820F480302860286820F4802002E0F5
:100A0000286840F480302860606890B1FFF770FE7D
:100A100006460AE0286840F480202860F0E700BF1E
:100A2000FFF766FE801B642873D828688003F7D51B
:100A30000CE0FFF75DFE064605E000BFFFF758FE3D
:100A4000801B6428F0D828688003F7D420789A4E59
:100A500080074FF001094FF0000839D5686810F0A1
:100A60000C0F07D06868C0F38100022809D16868BC
:100A7000C00306D42868800714D52069012808D14E
:100A800010E02069B0B1C6F80090FFF731FE0746CC
:100A900005E00AE1FFF72CFEC01B0228C4D8286835
:100AA0008007F7D52868616920F0F80040EAC100A6
:100AB00028600DE0C6F80080FFF71AFE074604E044
:100AC000FFF716FEC01B022823D828688007F7D43A
:100AD000207800072CD57948A169D9B1C0F80090D9
:100AE000FFF706FE074604E0FFF702FEC01B0228E0
:100AF0000FD8686A8007F7D571484FF4FA5100683B
:100B0000B0FBF1F0009000BF0098411E0091FAD2B6
:100B10000EE080E0C0F80080FFF7EAFD074604E041
:100B2000FFF7E6FDC01B022875D8686A8007F7D476
:100B30002078400760D5E8690027C00008D4E8693C
:100B400040F08050E861E869012700F08050009093
:100B50005C480168C90513D40168834641F480717B
:100B60000160FFF7C5FD824606E000BFFFF7C0FD4C
:100B7000A0EB0A0064284ED8DBF80000C005F5D5CC
:100B8000E06801280AD008B1052813D0286A20F0AF
:100B900001002862286A20F0040002E0286A40F080
:100BA00001002862E06841F2883B98B1FFF7A0FDA0
:100BB00082460BE0286A40F004002862EEE700BF9E
:100BC000FFF796FDA0EB0A0159455AD8286A80071D
:100BD000F6D50CE0FFF78CFD824605E0FFF788FDB7
:100BE000A0EB0A0159454CD8286A8007F6D41FB1FA
:100BF000E86920F08050E861E06988B36968C1F372
:100C00008101022944D00228C6F8608004D0FFF791
:100C10006FFD044638E034E0FFF76AFD074604E064
:100C2000FFF766FDC01B02282BD828688001F7D487
:100C3000206AB0F5803F05D16868A16820F40030D3
:100C400008436860D4E908010843696821F4741115
:100C500008436860C6F86090FFF74AFD044606E066
:100C600025E000BFFFF744FD001B022809D82868D3
:100C70008001F7D51BE000BFFFF73AFD001B0228FB
:100C800002D90320BDE8F88F28688001F4D40EE073
:100C90000128F7D06868226A00F48031914204D1BB
:100CA000616A00F47010884201D00120EAE7002058
:100CB000E8E7000000100240000042428004424287
:100CC0000C0000200070004010B5401EB0F1807F85
:100CD00001D3012010BD4FF0E02460610F216017A7
:100CE00000F0AEF80020A06107202061002010BDB8
:100CF000FEE7000030B585B000241C480094019444
:100D000002940394816941F040018161816901F09D
:100D100040010491816941F010018161816901F014
:100D200010010491816941F0040181618069104DD5
:100D300000F00400049001220F212846FFF7D3FCA5
:100D40000C20CDE9000469460A480294FFF7CAFB6B
:100D50000F2000900120CDE9010402200390694694
:100D60002846FFF7BFFB05B030BD00000010024071
:100D70000010014000180140FEE7704770477047BF
:100D8000FFF7BCBC30B58FB028216846FFF703FAE7
:100D900014210AA8FFF7FFF901210804CDE900108A
:100DA0000024029402250491CDE907504FF4E0108D
:100DB00009906846FFF7F8FD0F20CDE90A056802A3
:100DC000CDE90C4002210AA80E94FFF721FD0FB0D7
:100DD00030BD00000D48016841F00101016041682B
:100DE0000B4A1140416001680A4A114001600168E4
:100DF00021F480210160416821F4FE0141604FF43B
:100E00001F0181600449C003086070470010024060
:100E10000000FFF8FFFFF6FE08ED00E0FEE700002F
:100E20000FB4054B10B503A9044A029800F028F846
:100E300010BC5DF814FB0000D50F00081000002066
:100E40000907090E002804DB00F1E02080F80014F7
:100E5000704700F00F0000F1E02080F8141D70478B
:100E600002E008C8121F08C1002AFAD17047704773
:100E7000002001E001C1121F002AFBD170470000D1
:100E80002DE9FF4F89B09B460446002506E0252842
:100E90000BD05A460B999047641C6D1C2078002893
:100EA000F5D10DB02846BDE8F08F0027B8460122E5
:100EB000474900E0074314F8013F203B02FA03F0E2
:100EC0000842F7D120782E2819D114F8010F47F0E5
:100ED00004072A280ED06FF02F022078A0F13001ED
:100EE00009290CD808EB880102EB410100EB01084D
:100EF000641CF2E70A98641C50F8048B0A9020786E
:100F00000028CED0642808D0692806D075281ED0C5
:100F10005A460B9990476D1C58E00A994FF00A0900
:100F200001C90A91002802DA40422D2102E0390568
:100F300004D52B218DF82010012103E0F90704D0FE
:100F40002021F7E78A4608AE0DE00021FAE70A996A
:100F50004FF00A0901C90A91F7E74946FFF726F958
:100F6000303106F8011D0028F7D1ADEB060000F185
:100F70002009780701D44FF00108C84502DDA8EB2D
:100F8000090000E000208046002706E008A85A4635
:100F9000C05D0B9990476D1C7F1C5745F6DB04E044
:100FA00030205A460B9990476D1CB8F10001A8F10A
:100FB0000108F5DC05E016F8010B5A460B9990473D
:100FC0006D1CB9F10001A9F10109F4DC641C65E7AD
:100FD0000928010008490968C90706D0064980396F
:100FE0000968CA074FF0604101D1704700BF0A6825
:100FF000002AFBD008707047800E00E0FFF786FBE8
:10100000FFF7C0FEFFF776FE27A0FFF709FF0025D8
:10101000DFF8A480294C2A4F2E4604212046FFF7F2
:101020005DFBE0B91420FFF799F904212046FFF792
:1010300055FB20B929466D1C4046FFF76BF900228D
:1010400001213846FFF74FFB04212046FFF746FBFE
:101050000028F9D0012211463846FFF744FB082149
:101060002046FFF73BFBC8B91420FFF777F90821AA
:101070002046FFF733FB08B9D8F8006000220221B0
:101080003846FFF730FB08212046FFF727FB0028F2
:10109000F9D0012202213846FFF725FB32462946C6
:1010A00008A0FFF7BDFEB8E768656C6C6F20776F2E
:1010B000726C640A00000000141006080018014059
:1010C00000100140613A2564202020623A25640A1C
:1010D0000000000000000000000000000102030406
:1010E0000607080904110008000000201400000091
:1010F000600E0008181100081400002024040000ED
:10110000700E000801000000100000000000000048
:081110000024F40000000000BF
:0400000508000131BD
:00000001FF
