:020000040800F2
:100000008008002065010008CF140008CF13000805
:10001000CD14000871020008A516000800000000B9
:10002000000000000000000000000000D3140008E1
:10003000CD02000800000000D1140008D51400080B
:100040007F0100087F0100087F0100087F01000890
:100050007F0100087F0100087F0100087F01000880
:100060007F0100087F0100087F0100087F01000870
:100070007F0100087F0100087F0100087F01000860
:100080007F0100087F0100087F0100087F01000850
:10009000750200087F0100087F0100087F01000849
:1000A0007F0100087F0100087F0100087F01000830
:1000B0007F0100087F0100087F0100087F01000820
:1000C0007F0100087F0100087F0100087F01000810
:1000D0007F0100087F0100087F0100087F01000800
:1000E0007F0100087F0100087F0100080000000078
:1000F0000000000000000000000000000000000000
:1001000000000000000000007F0100087F010008DF
:100110007F0100087F0100087F0100087F010008BF
:100120007F0100087F0100087F0100087F010008AF
:100130007F01000800000000000000007F010008AF
:100140007F0100087F0100087F0100087F0100088F
:10015000DFF80CD000F07AF800480047F5170008E7
:10016000800800200648804706480047FEE7FEE773
:10017000FEE7FEE7FEE7FEE7FEE7FEE7FEE7FEE757
:1001800035150008510100082DE9F05F05460020F3
:1001900092469B4688460646814640241BE02846F8
:1001A00041464746224600F020F853465A46C01AB8
:1001B000914110D311461846224600F038F82D1A06
:1001C00067EB01084F4622460120002100F02FF87E
:1001D00017EB00094E41201EA4F10104DFDC484664
:1001E00031462A464346BDE8F09F202A04DB203AE8
:1001F00021FA02F00021704721FA02F3D040C2F147
:1002000020029140084319467047D2B201E000F83D
:10021000012B491EFBD270470022F6E710B51346AA
:100220000A4604461946FFF7F0FF204610BD202A73
:1002300004DB203A00FA02F1002070479140C2F13D
:10024000200320FA03F3194390407047064C074DF2
:1002500006E0E06840F0010394E807009847103496
:10026000AC42F6D3FFF778FF541800087418000862
:10027000FEE70000014800F026B900001404002049
:1002800000B58BB000210122CDE906120591039142
:1002900000910191029104910892694600F018F8CA
:1002A0000BB000BD10B588B004461C216846FFF7AE
:1002B000B3FF23466A460021034800F090F80498F3
:1002C00008B0C0B210BD0000140400207047704791
:1002D00010B590F82020012A07D0022A05D0416AE3
:1002E00041F480214162012010BD3B48D0F800223A
:1002F00042F00102C0F80022D0F8002222F47C5221
:10030000C0F80022D0F800224B6A42EA0322C0F86B
:1003100000220A7D02F01F0301229A40D0F81C320D
:100320009343C0F81C32CB69B3B9D0F80C32934375
:10033000C0F80C328C894B6864F31F434C6900EBA6
:10034000C404C4F840320C890B6864F31F434C6941
:1003500000EBC404C4F84432CB69012B16D1D0F8A9
:100360000C321343C0F80C320C884B6864F31F4303
:100370004C6900EBC404C4F840320C89CB6864F3C8
:100380001F434C6900EBC404C4F844328B69002B52
:10039000D0F804320ED01343C0F804320B69002B9E
:1003A000D0F8143208D01343C0F81432096A012976
:1003B00004D008E09343EFE79343F5E7D0F81C122D
:1003C0001143C0F81C12D0F8001221F00101C0F84E
:1003D0000012002010BD000000640040704730B5DE
:1003E00090F82040012C05D0022C03D0416A41F442
:1003F00080215DE00468002955D02469A40754D009
:100400004FF4D874056804EB01142D5915F0040558
:10041000956005682D594ED0ED08556005682C593A
:1004200004F00204D4604FF4DA74056804EB01149C
:100430002D5905F00F05156105682D59C5F30725E0
:10044000956105682C59240C54614FF4DC720468E2
:1004500002EB0112A4581C700468A458240A5C70B2
:100460000468A458240C9C700468A258120EDA7018
:100470004FF4DE72046802EB0112A4581C71046888
:10048000A458240A5C710468A458240C9C71046864
:10049000A258120EDA71006881B1016941F02001A1
:1004A0000161002030BDE468A8E7416A41F4001111
:1004B0004162012030BD6D0D1560AFE7C16841F0AC
:1004C0002001C160EDE72DE9F05F054600680024DA
:1004D0004669D0F804908768D0F80CB0D0F810A026
:1004E000D0F81880F10748D0F90714D001218160B5
:1004F000B80703D5284600F0EEF90CE0780702D5DE
:100500004FF4006407E0380702D54FF4805402E04E
:10051000284600F0DFF9F80516D529684FF48070F9
:100520008860B80503D5284600F0D7F90CE07805B7
:1005300002D544F4005407E0380502D544F4804461
:1005400002E0284600F0C8F9F80316D529684FF4F0
:1005500080308860B80303D5284600F0C0F90CE06D
:10056000780302D544F4004407E0380302D544F48C
:10057000803402E0284600F0B1F9300707D55FEA81
:10058000CB6004D52968102044F40074C86070075B
:100590004FF0080707D55FEA0B7004D52868C760DD
:1005A000284600F065F9B00706D52868C0688007BE
:1005B00002D0284600F05DF9700607D55FEACA60F0
:1005C00004D52968102044F480640861B00607D57A
:1005D0005FEA0A7004D528680761284600F04AF9E6
:1005E000F00606D528680069800702D0284600F08A
:1005F00042F9B00308D55FEAC96005D52968102023
:100600004860284600F038F9F00307D55FEA097022
:1006100004D528684760284600F062F9300446D5C2
:100620005FEA497040D5F00504D55FEAC87001D093
:1006300044F00104B00504D55FEA887001D544F0A8
:100640000204700504D55FEA487001D544F0040443
:10065000300529D518F0700F26D008F0700040281A
:1006600015D006DC102809D020280AD0302816D151
:100670000AE050280ED0602811D10EE044F00804A2
:100680000DE044F010040AE044F0200407E044F0D8
:10069000400404E044F0800401E044F480742868DD
:1006A000816921F070018161296804204860002C73
:1006B00005D0686A204368622846FFF78FFEBDE8D0
:1006C000F09F70B5040003D094F8200010B104E04E
:1006D000012070BD204600F081F82068016821F0FB
:1006E0000201016000F0F4F90546052604E000F07F
:1006F000EFF9401B0A2811D8206840688007F6D41B
:100700002068016841F00101016000F0E1F905464F
:100710000BE000F0DDF9401B0A2806D9606A40F4BE
:100720000030606284F82060D2E720684068C0072B
:10073000EFD0207E0128206801683DD021F08001A3
:100740000160607E01282068016838D021F04001F6
:100750000160A07E01282068016833D021F02001CB
:100760000160E07E0128206801682ED041F0100170
:100770000160207F01282068016829D021F008014C
:100780000160607F01282068016824D021F0040105
:100790000160D4E902010843D4E90412114308437B
:1007A0006168491E08432168C86100206062012019
:1007B00084F82000002070BD41F08001C0E741F0C6
:1007C0004001C5E741F02001CAE721F01001CFE761
:1007D00041F00801D4E741F00401D9E710B586B033
:1007E0000021009101910291039100681C49884207
:1007F00033D11C48C16941F00071C161C16901F088
:1008000000710491816941F0080181618069164C91
:1008100000F0080004904FF4807000906946204674
:1008200000F060F860150090022001900320039012
:100830006946204600F056F80C48416821F4C04152
:1008400041F0E06141F480414160002211461420F2
:1008500000F0AAF9142000F099F906B010BD0000CC
:100860000064004000100240000C01400000014004
:1008700070477047704770477047000070B5044676
:1008800090F82000012804D0606A40F400206062E3
:1008900018E0022084F820002068016821F001019E
:1008A000016000F015F905460EE000BF00F010F9F8
:1008B000401B0A2808D9606A40F4003060620520B5
:1008C00084F82000012070BD20684068C007EDD189
:1008D000606270BD704770477047704770477047DF
:1008E000704700002DE9F84FDFF8B891002409F1B6
:1008F000040A0AF1040B23460F270BF1040EC9E08A
:100900000125A5402A40AA427DD1674ED1F804C0F6
:10091000ACEB0608B44532D014DCBCF1030F3AD07E
:1009200009DCBCF1000F2AD0BCF1010F1CD0BCF1D6
:10093000020F31D11DE0BCF1110F17D0BCF1120F25
:100940002AD119E0B8F5881F19D006DCB8F5803F28
:1009500015D0B8F5801F1FD111E0B8F5001F0ED0DB
:10096000B8F5041F18D10AE0CB6815E0CB681B1D51
:1009700012E0CB6808330FE0CB680C330CE08B68D7
:100980002BB1012B4FF0080303D0456104E0042391
:1009900002E0056100E00023FF2A01D8064601E0DD
:1009A00000F104064FEA840501D9A5F12005D6F827
:1009B000008007FA05FC28EA0C0803FA05F548EA66
:1009C0000508C6F800804D68ED0062D5374DAE6968
:1009D00046F00106AE61AD6924F0030605F001059D
:1009E0000095334D06EB050CDCF80850A607360FD2
:1009F00007FA06F825EA0805DFF8B880404503D174
:100A00004FF0000817E044E0DFF8AC80404502D129
:100A10004FF001080FE0DFF8A480404502D14FF00D
:100A2000020808E0DFF89880404502D14FF0030843
:100A300001E04FF0040808FA06F848EA0508CCF887
:100A400008804D68D9F80060ED034D4601D5164386
:100A500000E096432E604D68DAF80060AD0355461D
:100A600001D5164300E096432E604D68DBF8006028
:100A7000ED025D4601D5164300E096432E604D68B9
:100A8000DEF80060AD02754601D5164300E09643DE
:100A90002E60641C0D682A46E5407FF431AFBDE846
:100AA000F88F000000040140000011100010024007
:100AB0000000014000080140000C0140001001400E
:100AC000001401400AB1016170470904FBE700000E
:100AD00001488068704700000000002002488168DB
:100AE000027811448160704700000020074810B56B
:100AF000016841F010010160032000F075F800204A
:100B000000F006F800F024F8002010BD002002409C
:100B100070B50D4D04464FF47A712878B1FBF0F0B2
:100B20000A490968B1FBF0F000F076FB48B9102CD7
:100B300007D200222146501E00F036F800206C60DB
:100B400070BD012070BD0000000000200C000020DE
:100B50000C4808B5816941F001018161816901F0AA
:100B600001010091C16941F08051C161C06900F08B
:100B7000805000900448416821F0E06141F000712C
:100B8000416008BD0010024000000140002809DB60
:100B900000F01F02012191404009800000F1E02097
:100BA000C0F8001170470000F0B40E4B1B680C46F3
:100BB000C3F30223C3F10705042D00D90425191D31
:100BC000072901D2002300E0DB1E012606FA05F109
:100BD000491E214099409E40761E16403143F0BC8C
:100BE00000F072BD0CED00E0064900F00702086855
:100BF0004FF6FF03184040EA0220034A1043086002
:100C0000704700000CED00E00000FA052DE9F04708
:100C10000F46050061D0434E306800F00700B8422F
:100C200009D2306820F0070038433060306800F0A7
:100C30000700B84251D128683B4C810712D54007C4
:100C400003D5606840F4E06060602878000703D551
:100C5000606840F4605060606068A96820F0F0004F
:100C6000084360602878C00728D06868012810D041
:100C70002168022810D0890700292EDA616821F046
:100C8000030101436160FFF723FF804641F2883989
:100C90000DE021688903EFE78901EDE7FFF718FF11
:100CA000A0EB0801494502D90320BDE8F087606840
:100CB000696800F00C00B0EB810FEFD1306800F0F4
:100CC0000700B8420BD9306820F007003843306085
:100CD000306800F00700B84201D00120E5E728782D
:100CE000400705D56068E96820F4E060084360606B
:100CF0002878000706D56068296920F4605040EA2A
:100D0000C100606000F038F86168084AC1F303115F
:100D1000515CC8400649086006480068FFF7F8FEC5
:100D20000020C2E700200240001002403C180008EA
:100D30000C000020040000200448054900684968B0
:100D4000044AC1F30221515CC84070470C000020E6
:100D5000001002404C180008044805490068496822
:100D6000044AC1F3C221515CC84070470C00002006
:100D7000001002404C180008F0B523A289B00FCA39
:100D800004AC84E80F0024A10FC98DE80F002649A8
:100D90004A68264802F00C03042B2FD0082B2DD1D3
:100DA00004A8C2F38343C45CD00329D5C86A00F009
:100DB0000F001DF80020C86AC00316D5C86AC96AAA
:100DC000C0F30310C1F30321401C891CA0FB0223C4
:100DD000A1FB0416154F0025A1FB070C06FB07C657
:100DE00001FB0561FFF7D0F903E010486043B0FB59
:100DF000F2F09DF81D10A14200D1400809B0F0BDED
:100E00000B486043FAE700000000040506070809E4
:100E100000000000000D00000102030405060708A1
:100E2000090A0B0C0D0E0F100010024000127A0080
:100E300000093D002DE9F84F040070D02078F14DF5
:100E4000C00749D06868C0F38100012807D06868EE
:100E5000C0F38100022809D16868C00306D528685C
:100E6000800339D5A0680028E7D035E0A068B0F548
:100E7000803F0BD010B1B0F5A02F11D0286820F41E
:100E800080302860286820F4802002E0286840F440
:100E900080302860A06890B1FFF71AFE06460AE08D
:100EA000286840F480202860F0E700BFFFF710FEBC
:100EB000801B642876D828688003F7D50CE0FFF7FC
:100EC00007FE064605E000BFFFF702FE801B642810
:100ED000F0D828688003F7D42078CB4E80074FF0F5
:100EE00001094FF000073AD5686810F00C0F07D0E1
:100EF0006868C0F38100022809D16868C00306D47D
:100F00002868800715D56069012808D111E060695B
:100F1000B8B1C6F80090FFF7DBFD804606E042E17D
:100F2000FFF7D6FDA0EB08000228C3D82868800789
:100F3000F6D52868A16920F0F80040EAC1002860D1
:100F40000DE03760FFF7C4FD804605E0FFF7C0FD08
:100F5000A0EB08000228ADD828688007F6D42078D6
:100F600000072ED5A948E169E9B1C0F80090FFF764
:100F7000AFFD804606E000BFFFF7AAFDA0EB08002A
:100F8000022897D8686A8007F6D5A1484FF4FA512D
:100F90000068B0FBF1F0009000BF0098411E009186
:100FA000FAD20EE0B0E00760FFF792FD804605E060
:100FB000FFF78EFDA0EB0800022889D8686A800739
:100FC000F6D42078400763D5E8694FF00008C000E8
:100FD00009D4E86940F08050E861E8694FF0010801
:100FE00000F0805000908B480168C90512D4016858
:100FF000834641F480710160FFF76AFD824605E097
:10100000FFF766FDA0EB0A0064287DD8DBF800003E
:10101000C005F5D5206901280AD008B1052813D0EC
:10102000286A20F001002862286A20F0040002E00B
:10103000286A40F001002862206941F2883B98B19B
:10104000FFF746FD82460BE0286A40F00400286264
:10105000EEE700BFFFF73CFDA0EB0A01594553D86E
:10106000286A8007F6D50CE0FFF732FD824605E0DE
:10107000FFF72EFDA0EB0A01594545D8286A8007E5
:10108000F6D4B8F1000F03D0E86920F08050E86191
:10109000E06AD0B36968C90307D56968C1F3810103
:1010A000022902D1E96AC9037DD4022808D0E86A7E
:1010B00020F48030E862B766FFF70AFD80463BE027
:1010C0002868C00005D5E86A616B00F0F00088422E
:1010D00069D1B766FFF7FCFC804605E0FFF7F8FC36
:1010E000A0EB0800642874D828680001F6D4E86AE8
:1010F000616B20F0F0000843E862E86A216B20F49D
:1011000070600843E86201E063E018E0C6F86890A8
:10111000FFF7DEFC804605E0FFF7DAFCA0EB0800F5
:10112000642856D828680001F6D508E0FFF7D0FCFF
:10113000A0EB080064284CD828680001F6D4206A87
:1011400090B36968C1F38101022949D0022837664A
:1011500003D0FFF7BDFC04463EE0FFF7B9FC0746AD
:1011600005E000BFFFF7B4FCC01B022831D8286897
:101170008001F7D4606AB0F5803F09D1E86A616800
:101180000843E862E86AE16820F00F000843E8627B
:10119000D4E909010843696821F4741108436860BF
:1011A000C6F8609001E028E029E0FFF791FC0446D2
:1011B00005E000BFFFF78CFC001B022809D8286857
:1011C0008001F7D51BE000BFFFF782FC001B02285F
:1011D00002D90320BDE8F88F28688001F4D40EE01E
:1011E0000128F7D06868626A00F48031914204D126
:1011F000A16A00F47010884201D00120EAE70020C3
:10120000E8E7000000100240000042428004424231
:101210000C0000200070004010B5401EB0F1807F2F
:1012200001D3012010BD4FF0E02460610F21601751
:1012300000F04AFA0020A06107202061002010BDC4
:1012400070B5040004D094F83900002510B106E010
:10125000012070BD84F83850204600F023F8242087
:1012600084F839002068C16821F40051C16020462B
:1012700000F08AF92068016921F490410161206839
:10128000416921F02A0141612068C16841F400519F
:10129000C160E563202084F8390084F83A0000201A
:1012A00070BD000030B585B0002400940194029414
:1012B000039400681449884224D11448816941F498
:1012C00080418161816901F480410491816941F02B
:1012D0000401816180690E4D00F0040004904FF418
:1012E0000070009002200190032003906946284678
:1012F000FFF7F8FA2815CDE900046946284602945C
:10130000FFF7F0FA05B030BD003801400010024090
:10131000000801402DE9F843044690F839001F46C3
:1013200016460D46202850D1A5B19EB194F838003C
:1013300001284AD0012084F838004FF00008C4F892
:101340003C80212084F83900FFF7C2FBA684814647
:10135000E68426E00120BDE8F883E08C401EE084AE
:10136000A0684B46B0F5805F4FF000024FF080015F
:101370002046009703D000F063F9E8B90DE000F0D3
:101380005FF9C8B928882168C0F30800486020695F
:1013900008B16D1C05E0AD1C03E0216815F8010BD8
:1013A0004860E08C0028D8D14B46002240212046DE
:1013B000009700F045F908B10320CCE7202084F81D
:1013C000390084F838800020C5E70220C3E7FEE733
:1013D0000F4810B50D4901600621416000214FF40E
:1013E00000328160C0E90312D20042610176417689
:1013F0008176C17601774177FFF763F9002803D042
:10140000BDE81040FEF763BF10BD0000006400405F
:101410001404002070B586B000241C480094019488
:1014200002940394816941F010018161816901F0A6
:1014300010010491816941F020018161816901F00D
:1014400020010491816941F004018161816901F009
:1014500004010491816941F00801816180690C4EA9
:1014600000F008004CF203050490012229463046A2
:10147000FFF728FB01200095CDE90104032003902C
:1014800069463046FFF72EFA06B070BD00100240E4
:10149000001001400C4810B50A4901604FF4E131D9
:1014A0004160002181600C22C160C0E904128161A9
:1014B000C161FFF7C5FE002803D0BDE81040FEF76C
:1014C00006BF10BD003801403C040020FEE7704715
:1014D00070477047FFF702BB70B594B0382168467B
:1014E000FEF79AFE14210EA8FEF796FE01250024B1
:1014F0002804CDE902040226CDE90860009505958F
:1015000001944FF4E010CDE90A046846FFF792FC1D
:101510000F20CDE90E06A802CDE9104002210EA849
:101520001294FFF773FB0248056714B070BD00000A
:10153000000042421048016841F001010160416829
:101540000E4A1140416001680D4A11400160016876
:1015500021F480210160416821F4FE0141600168AD
:1015600021F0A05101604FF47F0181600021C16230
:101570000449C00308607047001002400000FFF0FB
:10158000FFFFF6FE08ED00E02DE9F041044600689B
:101590000169E26821F44051114301612169A068A9
:1015A0000843616908432168CA6841F20C639A43A1
:1015B0000243CA6020684169A26921F44071114365
:1015C00041611E49206864253226884202D1FFF716
:1015D000C3FB01E0FFF7B0FB00EBC00101EB001122
:1015E00060686FF018078000B1FBF0F2B2FBF5F213
:1015F000B1FBF0F37A4303EB8202B1FBF0F306EBAD
:101600000212B2FBF5F2B3FBF5F302F0F00202EBCB
:101610000312B1FBF0F3B1FBF0F0B0FBF5F078434F
:1016200003EB800006EB0010B0FBF5F0216800F042
:101630000F0010448860BDE8F081000000380140D0
:101640002DE9F041984617460E460446069D1DE0DA
:10165000681C1BD02DB1FFF73BFAA0EB0800A84295
:1016600014D92068C16821F4D071C1602068416933
:1016700021F001014161202084F8390084F83A000A
:10168000002084F838000320BDE8F081206800685D
:1016900036EA000004D00020B842D9D00020F3E799
:1016A0000120F9E7FEE700000FB4054B10B503A9D0
:1016B000044A029800F027F810BC5DF814FB000003
:1016C000DD170008100000200907090E002804DBC0
:1016D00000F1E02080F80014704700F00F0000F1E6
:1016E000E02080F8141D704702E008C8121F08C1EE
:1016F000002AFAD170477047002001E001C1121F93
:10170000002AFBD170472DE9F84F9946924688464A
:101710000546002706E025280AD051464A4690474C
:101720006D1C7F1C28780028F5D13846BDE8F88F5D
:10173000002315F8011F18462E2915D115F8011F91
:1017400004232A290DD06FF02F022978A1F130044B
:10175000092C09D800EB800002EB400008446D1C06
:10176000F3E758F8040B6D1C2A78002ADDD0632AB1
:1017700007D0732A0FD0104651464A4690477F1C27
:101780002AE018F8042B8DF8002000218DF80110B4
:101790006E46012103E058F8046B4FF0FF315A0701
:1017A0004FF0000401D409E0641C84420BDA8C423F
:1017B000FADB325D002AF7D105E0641C8C42FCDBC9
:1017C000305D0028F9D1274404E016F8010B51469A
:1017D0004A469047641EF8D26D1CA3E713B54FF438
:1017E0007A73012269460248FFF794FD00981CBDF8
:1017F0003C040020FFF77AF90D48FEF741FD0C4844
:10180000FFF73CF8FFF768FEFFF704FEFFF7E0FD87
:10181000FFF740FE0648FEF733FD0548FFF72EF8B8
:101820000448FEF73FFD034903A0FFF73DFFF7E73C
:1018300014040020140000202573000000000000A4
:101840000000000001020304060708090000000070
:1018500001020304741800080000002014000000B6
:10186000E816000888180008140000206C08000022
:10187000F816000801000000100000000000000041
:081880000024F4000000000048
:04000005080001519D
:00000001FF
