:020000040800F2
:10000000C804002045010008A9200008511E00086E
:10001000A5200008CB060008BF2200080000000051
:10002000000000000000000000000000D5200008D3
:10003000CF06000800000000AB200008D720000811
:100040005F0100085F0100085F0100085F01000810
:100050005F0100085F0100085F0100085F01000800
:100060005F0100085F0100085F0100085F010008F0
:100070005F0100085F0100085F0100085F010008E0
:100080005F0100085F0100085F0100085F010008D0
:100090005F0100085F0100085F0100085F010008C0
:1000A0005F0100085F0100085F0100085F010008B0
:1000B0009D2100085F0100085F0100085F01000842
:1000C0005F0100085F0100085F0100085F01000890
:1000D0005F0100085F0100085F0100085F01000880
:1000E0005F0100085F0100085F0100085F01000870
:1000F0005F0100085F0100085F0100085F01000860
:100100005F0100085F0100085F0100085F0100084F
:100110005F0100085F0100085F0100085F0100083F
:100120005F0100085F0100085F0100085F0100082F
:10013000DFF80CD000F096FA00480047FD2B0008CD
:10014000C80400200648804706480047FEE7FEE74F
:10015000FEE7FEE7FEE7FEE7FEE7FEE7FEE7FEE777
:100160004521000831010008202A04DB203A21FA49
:1001700002F00021704721FA02F3D040C2F12002C0
:100180009140084319467047D2B201E000F8012BB4
:10019000491EFBD270470022F6E710B513460A4607
:1001A00004461946FFF7F0FF204610BD2DE9FE4F2B
:1001B00081EA030404F0004421F0004100944FF070
:1001C000000B23F0004350EA01045ED052EA03041E
:1001D0005BD0C3F30A54C1F30A552C44A4F2F334A0
:1001E0000194A0FB0254C1F3130141F48011C3F345
:1001F000130343F4801301FB024400FB034E840A03
:10020000970A44EA815447EA8357A4FB076802959A
:100210008D0A05FB07854FEA932C04FB0C54270538
:10022000029D4FEA065847EA1637B5EB08056EEB14
:10023000070C870E920E47EA811742EA8312A7FB4A
:100240000201B6EB0B0164EB00042B0D43EA0C3307
:100250005E1844EB1C50DA465146E7FB0201C5F339
:1002600013044FEA0B3343EA14534FEA0432019C60
:1002700043EA0603A4F10C040294009CCDE900B407
:1002800000F05CF803B0BDE8F08F00200146F9E70C
:1002900030B50B46014600202022012409E021FA56
:1002A00002F59D4205D303FA02F5491B04FA02F553
:1002B0002844151EA2F10102F1DC30BD2DE9F05FEA
:1002C0000546002092469B468846064681464024C5
:1002D0001BE02846414647462246FFF745FF534666
:1002E0005A46C01A914110D311461846224600F0D2
:1002F000CBF92D1A67EB01084F4622460120002159
:1003000000F0C2F917EB00094E41201EA4F10104D0
:10031000DFDC484631462A464346BDE8F09F10B52B
:10032000141E73F1000408DA401C41F10001921818
:100330005B411A4301D120F0010010BD2DE9F04DC1
:1003400092469B4611B1B1FA81F202E0B0FA80F216
:100350002032904600F098F904460F4640EA0A0021
:1003600041EA0B0153465A46084313D0114653EA5B
:10037000010019D0C8F140025046FFF7F5FE0546CE
:100380000E4650465946424600F07EF9084305D0D5
:10039000012004E020463946BDE8F08D00200543E9
:1003A00046EAE0762C4337430A986305E40AA0EB5B
:1003B00008000022FD0A44EA47540A3002D5002012
:1003C0000146E9E7010510196941DDE90845001911
:1003D0006941BDE8F04DA2E72DE9FE4F804681EA74
:1003E0000300C00F0C46009021F0004123F00045AF
:1003F000B8EB0200A94105D24046214690461C4672
:100400000B46024623F00040104347D0270DC7F3A8
:100410000A00C3F30A510290401A019040286BDA97
:10042000C3F3130040F4801B0098924620B10023D0
:10043000D2EB030A63EB0B0B01985946C0F1400263
:10044000504600F021F906460D4650465946019A9D
:1004500000F029F910EB08006141002487EA1152ED
:1004600084EAE7731A4340D0009A62B3019A012AE2
:100470004FEA075215DC001B61EB02014FF000420E
:1004800002EA0752CDE90042001C41F580113246D4
:100490002B46FFF753FF03B0BDE8F08F40462146DF
:1004A000F9E7001B61EB0201001C41F58013001805
:1004B0005B412018A2F5001747EB030140EAD57015
:1004C000B6196D4111E06D084FEA360645EAC07570
:1004D0004FEA0752001B61EB0201001C41F580113D
:1004E00049084FEA30000019514132462B4603B00B
:1004F000BDE8F04FFFF713BF009801224000002332
:10050000D0EB020263EBE073009821464FEAE074FF
:10051000B8EB000061EB0401E9E783F000435BE71F
:1005200081F0004158E72DE9F04D81EA030404F021
:10053000004B21F0004514464FF0000A23F0004123
:1005400050EA050220D054EA01021DD0C5F30A5733
:100550000246C5F31303C1F31300C1F30A5640F476
:10056000801543F48013A7EB0608101BD64608F24B
:10057000FD3873EB050002D308F1010801E0921881
:100580005B41B8F1000F03DA00200146BDE8F08DB1
:1005900000204FF48011064684460EE0171B73EBD3
:1005A000050705D3121B63EB050306434CEA010C58
:1005B00049084FEA300092185B4150EA0107EDD13B
:1005C00052EA030012D082EA040083EA05010843DC
:1005D00005D0101BAB4106D20122002306E0002209
:1005E0004FF0004302E06FF0010253101AEB0600D7
:1005F0004CEB085110EB0A0041EB0B01BDE8F04D4C
:10060000FFF78DBEC1F30A52C1F3130140F2FF336D
:1006100041F480119A4202DA00200146704740F20C
:1006200033439A42A2F2334202DC5242FFF79CBDAE
:1006300000F02AB830B5041E71F1000404DB4FF05D
:100640000044404264EB0101141E73F1000405DB19
:100650001C464FF00043524263EB0403994208BF2B
:10066000904230BD064C074D06E0E06840F00103C3
:1006700094E8070098471034AC42F6D3FFF75CFDCE
:100680003C4800085C480008202A04DB203A00FAB5
:1006900002F1002070479140C2F1200320FA03F3D9
:1006A000194390407047202A06DBCB17203A41FAC5
:1006B00002F043EAE07306E041FA02F3D040C2F1EF
:1006C0002002914008431946704700BFFEE770477B
:1006D0007047000070B50446B3F5804F13D1D1E9DF
:1006E000000540EA05108D6840EA05208D69284321
:1006F0008D8940EA054054F82250064E3540284383
:1007000044F8220003E06FF0704044F8220000201B
:1007100070BD00000000F0CF30B50246086852F806
:10072000200020F001000C6842F8240088680828A6
:1007300001D1402300E00023486818438C6820431F
:10074000CC6820430C6920434C6920438C692043CA
:10075000CC6920430C6A20434C6A20438C6A2043B6
:10076000CC6A20430C6B20434C6B20430C6852F83E
:100770002440044D2C4020430C6842F82400002003
:1007800030BD00008000F0FF10B50346D1E9000441
:1007900040EA04108C6840EA04208C8940EA044452
:1007A000088A401E44EA0054087D801E44EA006026
:1007B0008C692043541C53F8244004F040442043E7
:1007C000541C43F82400002010BD000000B585B083
:1007D000002001900290039004901C48006808B12A
:1007E00005B000BD01201949086000BF18484069E4
:1007F00040F48070164948610846406900F48070F2
:10080000009000BF00BF41F2010001900220029061
:100810000320049001A90F4800F022F84FF68070E1
:100820000190022002900320049001A90A4800F0E0
:1008300017F84CF2337001900220029003200490CC
:1008400001A9064800F00CF800BFC9E7000000202D
:100850000010024000200140001801400014014037
:100860002DE9F847024600239C467BE14FF0010842
:1008700008FA03F4D1F8008008EA0400A0427DD110
:10088000DFF8F4A2D1F80480A8EB0A09D0453AD0E9
:1008900014DCB8F1030F50D009DCB8F1000F31D0EF
:1008A000B8F1010F1CD0B8F1020F49D120E0B8F126
:1008B000110F18D0B8F1120F42D11EE0B9F5881F00
:1008C00025D006DCB9F5803F20D0B9F5801F37D19F
:1008D0001AE0B9F5001F18D0B9F5041F30D117E0A0
:1008E000D1F80CC02DE0D1F80C8008F1040C28E000
:1008F000D1F80C8008F1080C23E0D1F80C8008F145
:100900000C0C1EE000BF00BF00BF00BF00BF00BF57
:10091000D1F80880B8F1000F02D14FF0040C0BE0C1
:10092000D1F80880B8F1010F03D14FF0080C146121
:1009300002E04FF0080C546103E04FF0000C00E0BF
:1009400000BF00BFFF2801D8904601E002F1040873
:100950004646FF2802D84FEA830803E0A3F10808BF
:100960004FEA88084746D6F800804FF00F0909FA89
:1009700007F928EA09080CFA07F900E07AE048EAE2
:100980000908C6F80080D1F8048008F08058B8F152
:10099000805F6FD100BFDFF8E481D8F8188048F09D
:1009A0000108DFF8D891C9F81880C846D8F818802F
:1009B00008F00108CDF8008000BF00BF4FEAB93849
:1009C0004FEA930958F829504FEA83784FEA18798B
:1009D0004FF00F0808FA09F825EA0805DFF8A081AA
:1009E000424502D14FF0000824E0DFF898814245EB
:1009F00002D14FF001081DE0DFF88C81424502D1A1
:100A00004FF0020816E0DFF88481424502D14FF032
:100A100003080FE0DFF87881424502D14FF0040867
:100A200008E0DFF87081424502D14FF0050801E08F
:100A30004FF006084FEA83794FEA197908FA09F866
:100A400048EA0505DFF850814FEA930948F8295034
:100A5000D1F8048008F48038B8F5803F0BD1DFF876
:100A60003C81D8F8008048EA0008DFF83091C9F8E6
:100A700000800AE075E0DFF82481D8F8008028EAD9
:100A80000008DFF81891C9F80080D1F8048008F454
:100A90000038B8F5003F0ED1DFF8008108F10408F6
:100AA000D8F8008048EA0008DFF8F09009F104095E
:100AB000C9F800800DE0DFF8E48008F10408D8F8F8
:100AC000008028EA0008DFF8D49009F10409C9F889
:100AD0000080D1F8048008F48018B8F5801F0ED18A
:100AE000DFF8B88008F10808D8F8008048EA000864
:100AF000DFF8A89009F10809C9F800800DE0DFF8D7
:100B00009C8008F10808D8F8008028EA0008DFF87F
:100B10008C9009F10809C9F80080D1F8048008F424
:100B20000018B8F5001F0ED1DFF8708008F10C082E
:100B3000D8F8008048EA0008DFF8609009F10C0955
:100B4000C9F800800DE0DFF8548008F10C08D8F8EF
:100B5000008028EA0008DFF8449009F10C09C9F880
:100B600000805B1CD1F8008028FA03F8B8F1000F70
:100B70007FF47CAEBDE8F887000011100010024041
:100B800000080140000C0140001001400014014029
:100B900000180140001C0140080001400004014011
:100BA0000AB1016101E00B0403617047014800686C
:100BB00070470000080000200348006803490978D6
:100BC0000844014908607047080000201000002018
:100BD00010B50848006840F010000649086003207E
:100BE00000F0D8FB002000F007F800F05BFB0020CD
:100BF00010BD00000020024070B504460E48007889
:100C00004FF47A71B1FBF0F00C490968B1FBF0F5D3
:100C1000284600F049FF08B1012070BD102C07D212
:100C200000222146501E00F077FB0548046001E0D9
:100C30000120F2E70020F0E710000020140000205F
:100C40000C00002008B50548808900900348C3883F
:100C500082880021084600F01DF808BDA000002091
:100C600070B504460D46164609488088A0420DDB43
:100C70000748C088A84209DB2B4622462946204661
:100C800000F05AFA0248416A3046884770BD0000B9
:100C9000A00000202DE9F04706460F4614461D46E9
:100CA000DDF820807819401E83B23019401E82B2D0
:100CB0003946304600F040FAA9460DE0A24603E06E
:100CC0000A48416A40468847BAF10000AAF101018A
:100CD0001FFA81FAF4D100BFB9F10000A9F10101B6
:100CE0001FFA81F9EAD1BDE8F0870000A0000020DA
:100CF00010B5002401F0C0F8B6480169002088470B
:100D0000B44988698047B34908810446084643F2DC
:100D10000801C269E3209047AE481221C269E7206A
:100D20009047AC4841F23121C269EF209047A94871
:100D30004FF48071C26901209047A6484FF4E061EA
:100D4000C26902209047A34841F23001C2690320E2
:100D50009047A0480021C269042090479D4840F276
:100D60000721C269082090479A480021C2690920DA
:100D7000904798480021C2690A2090479548002171
:100D8000C2690C20904793480021C2690D2090470A
:100D900090480021C2690F2090478E480021C26907
:100DA000102090478B480721C2691120904789483D
:100DB0000021C2691220904786480021C269132091
:100DC0009047844841F29041C26910209047814881
:100DD00040F22721C269112090477E481C21C26938
:100DE000122090477B484FF4D051C269132090479E
:100DF00078482521C2692920904776480C21C2698C
:100E00002B20904773480021C269202090477148E9
:100E10000021C269212090476E480021C26930201C
:100E200090476C4840F20651C269312090476948AA
:100E30004FF48271C26932209047664840F2072120
:100E4000C2693520904763480F21C2693620904718
:100E5000604840F20631C269372090475D484FF440
:100E60008171C269382090475A4840F20771C269BF
:100E700039209047574840F20271C2693C209047A0
:100E8000544841F20461C2693D2090475148002115
:100E9000C269502090474F48EF21C26951209047C6
:100EA0004C480021C269522090474A4840F23F1105
:100EB000C2695320904747484FF41C51C2696020D3
:100EC000904744480121C269612090474148002170
:100ED000C2696A2090473F480021C269802090473C
:100EE0003C480021C269812090473A480021C269EC
:100EF0008220904737480021C269832090473548B7
:100F00000021C2698420904732480021C2698520AF
:100F1000904730481021C269902090472D484FF4E7
:100F2000C061C269922090472A4840F23311C269D9
:100F300007209047274841F2B021C269102090470E
:100F400024480721C2691120904722480121C26923
:100F5000172090471F4840F2BD11C26912209047E8
:100F60001C484FF4B851C26913209047194841F208
:100F70009041C26910209047164840F22721C2696B
:100F80001120904713481C21C26912209047114834
:100F90004FF4D051C269132090470E482521C269F1
:100FA000292090470B4840F23311C269072090472F
:100FB0000848016922208847002000F039F94FF6DF
:100FC000FF7000F0ADF8002000F0B0F8FFF73AFE37
:100FD000204610BDA0000020F0B5C3B006460F4665
:100FE00014461D4649A8429002A8429A489901F029
:100FF00069F900204290234602AA394630460095FE
:1010000000F070F843B0F0BD2DE9FC5F82460D465C
:1010100016461C46002001900C2C08D1A6F1200099
:1010200000EB40002B4901EB8000019015E0102CF3
:1010300006D1A6F12000284901EB001001900CE038
:10104000182C08D1A6F1200000EBC000234901EBC9
:101050008000019001E0BDE8FC9FEFB20AF0FF08BC
:101060004FF0000932E0019810F809B0002000901C
:1010700024E00BF0800030B11948C289394640465F
:10108000FFF7EEFD07E00C9828B115488289394634
:101090004046FFF7E5FD4FEA4B604FEA106B781CC6
:1010A000C7B2781B0C2805DBEFB208F1010000F095
:1010B000FF0806E00098401CC0B200900098082885
:1010C000D7DB00BF09F1010000F0FF09A145CADB31
:1010D00000BFC0E7542C0008C8300008B83600082C
:1010E000A00000202DE9F8430646884617461C4616
:1010F000DDF820903D460EE0CDF800902A7823469A
:1011000041463046FFF780FF204604EBD07106EBE6
:1011100061018EB26D1C28780028EDD1BDE8F883FE
:101120000149888170470000A00000200149C88162
:1011300070470000A00000202DE9F04107460C4652
:1011400015461E46BD4201DBA64203DA4FF0FF30D2
:10115000BDE8F0813548807A002830D133480169F4
:101160005020884731484169384688472F480169EF
:10117000512088472D484169284688472B480169F6
:1011800052208847294841692046884727480169F5
:1011900053208847254841693046884723480169DC
:1011A0002020884721484169384688471F480169FF
:1011B000212088471D484169204688472FE01B4869
:1011C00001695220884719484169384688471748BD
:1011D00001695320884715484169284688471348C4
:1011E00001695020884711484169204688470F48C7
:1011F0000169512088470D484169304688470B48AE
:1012000001692120884709484169384688470748CD
:1012100001692020884705484169204688470348DE
:10122000016922208847002092E70000A0000020EA
:1012300010B50446CCB91A480169012088471848FE
:1012400041694FF480708847154801690320884739
:101250001348416941F2300088474FF4A0711048AB
:10126000C180F0200E49888017E00D4801690120F7
:1012700088470B48416900208847094801690320D5
:1012800088470748416941F238008847F0210448FF
:10129000C1804FF4A070024988800148847210BD5B
:1012A000A000002008B500BF1148806940F001008F
:1012B0000F4988610846806900F00100009000BF76
:1012C00000BF00BF0846C06940F08050C8610846B2
:1012D000C06900F08050009000BF00BF00BF05490A
:1012E000486820F0E06040F00070486000BF08BD32
:1012F000001002400000014001460846002809DBBA
:1013000000F01F0301229A4043099B0003F1E023F0
:10131000C3F8002100BF70472DE9F05F80460D46FD
:101320001646002700F0E0FF074639462A463346B6
:1013300001F00700C0F1070ABAF1040F02D94FF01B
:10134000040A01E0C0F1070AD14600F1040ABAF12B
:10135000070F02D24FF0000A01E0A0F1030AD446C1
:101360004FF0010A0AFA09FAAAF1010A0AEA020A86
:101370000AFA0CFA4FF0010B0BFA0CFBABF1010B64
:101380000BEA030B4AEA0B042146404600F0B4FF87
:10139000BDE8F09F00BF00F00702064B19684FF64A
:1013A000FF031940044B0B4343EA0221014B196030
:1013B00000BF70470CED00E00000FA0570B5044670
:1013C0000D460CB9012070BD5A48006800F00700B6
:1013D000A8420ED25748006820F00700284355491C
:1013E00008600846006800F00700A84201D001200C
:1013F000E9E7207800F0020002281DD1207800F0F3
:101400000400042805D14C48406840F4E0604A4993
:101410004860207800F00800082805D14648406858
:1014200040F46050444948604348406820F0F00070
:10143000A168084340494860207800F0010078B373
:101440006068012806D13C48006800F4003090B97B
:101450000120B8E76068022806D13748006800F02C
:10146000007040B90120AEE73348006800F0020088
:1014700008B90120A7E73048406820F00300616800
:1014800008432D494860FFF791FB064609E0FFF746
:101490008DFB801B41F28831884202D9032092E7FC
:1014A00007E02548406800F00C006168B0EB810F50
:1014B000EDD12048006800F00700A8420ED91D4871
:1014C000006820F0070028431A49086008460068B1
:1014D00000F00700A84201D0012074E7207800F056
:1014E0000400042807D11448406820F4E060E16853
:1014F000084311494860207800F00800082808D106
:101500000D48406820F46050216940EAC1000A4952
:10151000486000F019F808494968C1F30311074A07
:10152000515CC8400649086006480068FFF764FB44
:10153000002048E700200240001002403C2C000838
:10154000140000200C000020F0B585B00FF26C0CE8
:101550009CE8E01001A8A0E8E0101CA52D6800950B
:1015600000210022002300240020194D696801F0A9
:101570000C05F5B1042D02D0082D19D101E0154854
:1015800019E001ADC1F38346AC5D01F4803555B17E
:101590000F4D6D68C5F340451DF805200D4D6543A1
:1015A000B5FBF2F302E00C4D04FB05F3184602E034
:1015B00000BF084800BF00BF05B0F0BD020304052E
:1015C000060708090A0B0C0D0E0F1010010200008F
:1015D0000010024000127A0000093D00F8B50446F0
:1015E0000CB90120F8BD207800F00100002878D067
:1015F000F848406800F00C0004280CD0F54840681A
:1016000000F00C00082811D1F248406800F4803046
:10161000B0F5803F0AD1EF48006800F400300028A0
:101620005FD0606800285CD10120DBE700BF606804
:10163000B0F5803F06D1E748006840F48030E549C6
:10164000086028E0606858B9E248006820F48030FB
:10165000E04908600846006820F4802008601AE02D
:101660006068B0F5A02F0BD1DA48006840F4802004
:10167000D84908600846006840F4803008600AE0F5
:10168000D448006820F48030D249086008460068D9
:1016900020F48020086000BF606888B1FFF786FAF8
:1016A000054606E0FFF782FA401B642801D90320B3
:1016B00098E7C848006800F400300028F2D010E035
:1016C000FFF774FA054606E0FFF770FA401B64283E
:1016D00001D9032086E7BF48006800F400300028E5
:1016E000F2D1207800F00200022857D1B9484068B2
:1016F00000F00C0050B1B748406800F00C0008281A
:1017000018D1B448406800F4803098B9B1480068F6
:1017100000F0020020B12069012801D0012061E71A
:10172000AC48006820F0F800616940EAC100A949AE
:10173000086033E02069E8B10120A7490860FFF79D
:1017400035FA054606E0FFF731FA401B022801D9B9
:10175000032047E79F48006800F002000028F2D00D
:101760009C48006820F0F800616940EAC10099498E
:10177000086013E0002098490860FFF717FA054653
:1017800006E0FFF713FA401B022801D9032029E7DE
:101790009048006800F002000028F2D1207800F0A4
:1017A000080008282DD1A069B8B101208B49086034
:1017B000FFF7FCF9054606E0FFF7F8F9401B0228A1
:1017C00001D903200EE78348406A00F00200002898
:1017D000F2D0012000F06AFC13E000207F4908608D
:1017E000FFF7E4F9054606E0FFF7E0F9401B0228A1
:1017F00001D90320F6E67748406A00F0020000288D
:10180000F2D1207800F00400042873D10027714839
:10181000C06900F0805070B900BF6E48C06940F0E8
:1018200080506C49C8610846C06900F08050009043
:1018300000BF00BF01276A48006800F48070B0B99B
:101840006748006840F4807065490860FFF7AEF9AA
:10185000054606E0FFF7AAF9401B642801D90320DA
:10186000C0E65F48006800F480700028F2D000BF36
:10187000E068012806D15748006A40F00100554948
:10188000086227E0E06858B95248006A20F0010079
:10189000504908620846006A20F00400086219E016
:1018A000E06805280BD14B48006A40F00400494924
:1018B00008620846006A40F0010008620AE04548F4
:1018C000006A20F00100434908620846006A20F0DF
:1018D0000400086200BFE068A0B1FFF767F90546A1
:1018E00009E0FFF763F9401B41F28831884202D9D1
:1018F000032077E622E03748006A00F00200002863
:10190000EFD012E0FFF752F9054608E0FFF74EF975
:10191000401B41F28831884201D9032062E62D48FC
:10192000006A00F002000028F0D1012F05D12948FB
:10193000C06920F080502749C86100BFE069C8B382
:101940002448406800F00C00082860D0E0690228B4
:1019500048D1002020490866FFF728F9054606E02F
:10196000FFF724F9401B022801D903203AE6194861
:10197000006800F000700028F2D1206AB0F5803FC6
:1019800007D11448406820F40030A1680843114989
:101990004860D4E9080108430E49496821F47411EC
:1019A00008430C49486001200B490866FFF7FEF820
:1019B000054607E03DE0FFF7F9F8401B022801D992
:1019C00003200FE60348006800F000700028F2D002
:1019D0002FE000000010024000004242800442421A
:1019E00000700040002014490866FFF7DFF8054644
:1019F00006E0FFF7DBF8401B022801D90320F1E5E0
:101A00000E48006800F000700028F2D111E0E06993
:101A1000012800D1E6E50948466806F48031206ACD
:101A2000814204D106F47011606A814201D0012024
:101A3000D8E50020D6E50000000042420010024038
:101A400070B504460E4615460CB9012070BD94F8D9
:101A5000410028B9002084F84000204600F01FF81B
:101A600004F108012068FEF757FE3146A26820689D
:101A7000FEF78AFE2946236BD4E90102FEF72AFE0F
:101A8000A168206850F8210040F00100A268216898
:101A900041F82200012084F841000020D6E710B56B
:101AA0000446FEF793FE10BD70B504462546681E39
:101AB000B0F1807F01D301200FE0681E4FF0E021DC
:101AC00048610F214FF0FF3000F016FC00204FF06E
:101AD000E021886107200861002070BD70477047D1
:101AE00010B5024600BF92F83C00012801D1022047
:101AF00010BD012082F83C0000BF022082F83D00AA
:101B0000106843681068846823F070030868034312
:101B100024F08004486804431068436010688460BF
:101B2000012082F83D0000BF002082F83C0000BF89
:101B300000BFDDE710B504460CB9012010BD94F8D4
:101B40003D0028B9002084F83C00204600F00CF845
:101B5000022084F83D00211D206800F027FB0120B1
:101B600084F83D000020E9E738B504462068B0F16C
:101B7000804F15D100BF0B48C06940F001000949F2
:101B8000C8610846C06900F00100009000BF00BFB6
:101B9000002211461C20FFF7BFFB1C20FFF7ACFB07
:101BA00038BD0000001002402DE9F04104460D460A
:101BB00000BF94F83C00012802D10220BDE8F0816A
:101BC000012084F83C0000BF022084F83D0020681A
:101BD000866826F0770626F47F46206886602868A7
:101BE000502833D00CDC202850D004DC00284BD007
:101BF000102851D149E0302849D040284CD139E053
:101C000060282DD0702807D0B0F5805F03D0B0F5E4
:101C1000005F41D10DE040E0D5E902136A68206819
:101C200000F012FB2068866846F077062068866020
:101C300033E0D5E902136A68206800F005FB2068EC
:101C4000806840F480402168886026E0EA6869681E
:101C5000206800F00DFB5021206800F000FB1CE024
:101C6000EA686968206800F016FB6021206800F0CF
:101C7000F6FA12E0EA686968206800F0F9FA402193
:101C8000206800F0ECFA08E000BF00BF00BF296840
:101C9000206800F0E4FA00E000BF00BF012084F8F3
:101CA0003D0000BF002084F83C0000BF00BF85E776
:101CB000704710B5044620680069C0F34000D8B1F1
:101CC0002068C068C0F34000B0B16FF00200216826
:101CD0000861012020772068806900F0030018B1B6
:101CE0002046FFF7E5FF05E0204600F0ADF820466E
:101CF00000F0ABF80020207720680069C0F3800076
:101D0000D8B12068C068C0F38000B0B16FF00400A3
:101D100021680861022020772068806900F4407003
:101D200018B12046FFF7C4FF05E0204600F08CF80C
:101D3000204600F08AF80020207720680069C0F370
:101D4000C000D8B12068C068C0F3C000B0B16FF067
:101D5000080021680861042020772068C06900F02D
:101D6000030018B12046FFF7A3FF05E0204600F06E
:101D70006BF8204600F069F80020207720680069A1
:101D8000C0F30010D8B12068C068C0F30010B0B133
:101D90006FF0100021680861082020772068C06972
:101DA00000F4407018B12046FFF782FF05E020469E
:101DB00000F04AF8204600F048F80020207720681C
:101DC000006900F0010058B12068C06800F001000F
:101DD00030B16FF0010021680861204600F036F84C
:101DE00020680069C0F3C01058B12068C068C0F313
:101DF000C01030B16FF08000216808612046FFF705
:101E00006DFE20680069C0F3801058B12068C0687A
:101E1000C0F3801030B16FF04000216808612046A7
:101E200000F015F820680069C0F3401058B1206830
:101E3000C068C0F3401030B16FF020002168086125
:101E40002046FFF74CFE10BD704770477047704743
:101E500000BFFEE708B5034800880090BDF8000009
:101E600008BD000000F8FF6F00B50246104600F004
:101E700023F8FFF7EFFF00BD07480849086008484E
:101E8000086108484861084888610848C8610848EE
:101E90000862084848627047FEF7FF6FA000002004
:101EA000B91E0008D11E0008551E0008DD1E0008DE
:101EB000691E0008C51E000801490880704700001F
:101EC000FEF7FF6F014908807047000000F8FF6FC0
:101ED000014908807047000000F8FF6F024A108037
:101EE000921C118070470000FEF7FF6F00B587B0AD
:101EF0001C216846FEF74FF94FF020401B4908604F
:101F00001B4848600620886000211848C1600161B4
:101F10001021416100218161C161016241624FF480
:101F2000805181620021C1620163416381630120AC
:101F300000900F20019001200290002003901020BB
:101F40000490112005900020069000226946074861
:101F5000FFF776FD08B1FEF7BBFB0648C06940F409
:101F600080600449C86107B000BD0000180000206F
:101F7000040100A00000014000B585B000200190E0
:101F800002900390049000BF2948806940F010003F
:101F9000274988610846806900F01000009000BF62
:101FA00000BF00BF0846806940F480708861084621
:101FB000806900F48070009000BF00BF00BF084639
:101FC000806940F0400088610846806900F0400068
:101FD000009000BF00BF00BF0846806940F02000AD
:101FE00088610846806900F02000009000BF00BFB3
:101FF00000BF0846806940F0040088610846806997
:1020000000F00400009000BF00BF0122FF2109483A
:10201000FEF7C6FDFF2001900120029000200390F2
:102020000220049001A90348FEF71AFC05B000BD88
:10203000001002400010014000B587B0002003905E
:10204000049005900690019002904FF08040144952
:1020500008604720486000211148816042F20F71FA
:10206000C1600021016180218161FFF763FD08B13A
:10207000FEF72EFB4FF48050039003A90848FFF7AA
:1020800093FD08B1FEF724FB00200190029001A906
:102090000348FFF725FD08B1FEF71AFB07B000BDA6
:1020A0006000002000BFFEE77047704708B5084990
:1020B0000968C9084FF47A72B1FBF2F1414300910B
:1020C00000BF00BF00994A1E00920029F9D108BD47
:1020D00014000020704710B5FEF76EFD10BD00B56E
:1020E0008FB0282105A8FEF756F814216846FEF7A0
:1020F00052F801200590000406900020079001206E
:10210000099002200C90C1030D914FF4E0110E9143
:1021100005A8FFF763FA08B1FEF7DAFA0F2000907E
:1021200002200190002002904FF480600390002074
:10213000049002216846FFF741F908B1FEF7C8FA9A
:102140000FB000BD1148006840F001000F49086061
:10215000084640680E4908400C4948600846006837
:102160000C490840094908600846006820F48020AE
:1021700008600846406820F4FE0048604FF41F00E5
:102180008860C803044908607047000000100240DE
:102190000000FFF8FFFFF6FE08ED00E010B5024872
:1021A000FFF787FD10BD00006000002010B5026839
:1021B000204B98420ED0204B98420BD0B0F1804F6C
:1021C00008D01E4B984205D01D4B984202D01D4BA3
:1021D000984203D122F070024B681A43154B984283
:1021E0000ED0154B98420BD0B0F1804F08D0134B56
:1021F000984205D0124B984202D0124B984203D11C
:1022000022F44072CB681A4322F080034C6943EAFF
:10221000040202608B68C3620B688362054B9842BC
:1022200002D0054B984201D10B690363012343613E
:1022300010BD0000002C01400034014000040040AB
:1022400000080040000C004030B50C46816821F4C5
:102250007F4142EA032525432943816030BD0A4678
:10226000816821F0700142F00703194381607047D3
:1022700030B50B461446026A056A25F00105056271
:10228000816921F0F00141EA041122F00A021A43A7
:102290008161026230BD30B50B461446056A25F0F7
:1022A000100505628169026A21F4704141EA043136
:1022B00022F0A00242EA03128161026230BD00BF37
:1022C000FEE7000037B514460846064B6A4621462D
:1022D00000F0F8F804466946002000F08AFC204629
:1022E0003EBD0000F32B000802480068C0F3022046
:1022F000704700000CED00E010B5002804DB0A0771
:10230000130E054A135406E00A07140E034A00F0A0
:102310000F031B1FD45410BD00E400E018ED00E0D3
:1023200002E008C8121F08C1002AFAD1704770479E
:10233000002001E001C1121F002AFBD170470000FC
:102340002DE9FF5F82B00021DDE90430020DDDF8E8
:1023500040B0034318D044F61050A2F2FF3242437B
:102360001514119801281FD0A5EB0B00401C5FEA43
:10237000000A4FF000064E4FDFF83891B046504645
:1023800015D5CAF1000413E0119801244AA30128CD
:1023900001D16FEA0B010298119AC0E90031C0E93E
:1023A000024206B0BDE8F09FCBF10000DFE7044633
:1023B0000021404A491842EB0450CDE9001012E0D8
:1023C000E00707D032463B4640464946FDF7EEFE61
:1023D0008046894632463B4610461946FDF7E6FEE2
:1023E00006460F466410002CEAD1DDE90401DDE960
:1023F0000023BAF1000F06DAFDF7D8FE42464B463D
:10240000FDF7D4FE05E0FEF78EF842464B46FEF798
:102410008AF804460E460022284BFEF70BF903D833
:102420004FF0FF30014607E00022254B20463146A1
:10243000FDF7D2FFFEF7E6F8102409E0002C0ADBD6
:102440000A220023FDF73AFF039B30321A55641E1F
:1024500050EA0102F2D1641C039AC4F1110314443E
:10246000119A012A03D0012208430DD10AE0084342
:1024700004D000204FF0110B119072E7A3EB0B0575
:102480006D1E0DE05B4504DD4FF0000205F1010516
:1024900004E003DA4FF00002A5F10105002AECD0B8
:1024A00002981199C0E90231C0E9004579E70000BE
:1024B000000014400000F03F300000000000F04336
:1024C0000000E03F2DE9FF4F95B09B468946064648
:1024D00000250FE2252877D100242746F84A01215C
:1024E000059400E0044316F8013F203B01FA03F095
:1024F0001042F7D130782A2811D06FF02F033078AE
:10250000A0F13002092A16D8059A44F0020402EB21
:10251000820203EB42021044761C0590EFE759F863
:10252000042B0592002A03DA504244F4005405902B
:1025300044F00204761C30782E2816D116F8010FCC
:1025400044F004042A280DD06FF02F023078A0F157
:102550003003092B09D807EB870302EB4303C718A5
:10256000761CF3E759F8047B761C30786C280FD082
:1025700006DC4C2817D068280DD06A2814D104E056
:10258000742810D07A280FD10DE044F400140AE02A
:1025900044F4801401E044F440147278824202D181
:1025A00004F58014761C761C307866280BD013DC7A
:1025B000582877D009DC002875D04528F6D0462861
:1025C000F4D047281AD19DE118E0632835D064285B
:1025D00079D0652812D195E1702873D008DC67287E
:1025E000F1D069286FD06E280DD06F2806D1B5E0E4
:1025F00073282CD0752875D0782874D05A4617992E
:1026000090476D1C75E1C4F30250022809D00328DD
:102610000DD0D9F8001004280DD00D6009F104097F
:1026200067E1D9F80010EA17C1E90052F6E7D9F8D6
:1026300000100D80F2E70D70F0E719F8041B8DF81B
:10264000001000208DF80100EA46012003E059F84F
:1026500004AB4FF0FF3061074FF0000102D40DE0F2
:1026600008F101018846B9420FDA8045F8DB1AF813
:1026700008100029F4D108E008F1010188468142E0
:10268000FADB1AF808100029F6D105985B46A0EB92
:10269000080721463846179A00F094FA284400EBC0
:1026A000080507E04DE029E10DE01AF8010B5A4654
:1026B00017999047B8F10108F7D25B462146384692
:1026C000179A13E142E00A220092C4F302524FF03B
:1026D000000A022A08D059F804CB032A4FEAEC7109
:1026E0000AD00DE029E02AE009F1070121F00702F4
:1026F000F2E802C1914609E00FFA8CFC4FEAEC7156
:10270000042A03D14FFA8CFC4FEAEC71002907DA56
:102710000A460021DCF1000C61EB02012D2202E0EF
:10272000220504D52B228DF80420012203E0E207C4
:1027300001D02022F7E7904659E00A2102E010225A
:102740000DE010214FF0000A00910BE010224FF035
:10275000000A44F004040827009203E008224FF026
:10276000000A0092C4F30252022A05D059F804CBA1
:102770000021032A08D009E009F1070121F007022E
:10278000F2E802C1914605E01FFA8CFC042A01D14F
:102790000CF0FF0C4FF00008220728D5702806D057
:1027A000009B83F0100353EA0A0305D00EE0402299
:1027B0008DF80420012208E05CEA010206D03022F4
:1027C0008DF804208DF8050002229046009B83F0CE
:1027D000080353EA0A030AD15CEA010201D1620745
:1027E00005D530228DF804204FF001087F1E5828AF
:1027F00004D034A003900EA802900DE036A0F9E7B3
:1028000053466046009AFDF759FD84460398825C62
:102810000298401E029002705CEA0100F0D102981A
:1028200006A9081A00F1200A600702D524F48034B2
:1028300000E00127574502DDA7EB0A0000E0002079
:1028400000EB0A01009005984144401A0590E0030E
:1028500006D45B462146179A059800F0B3F9054463
:10286000002706E001A85A46C05D179990476D1CE5
:102870007F1C4745F6DBE0030CD55B462146179AE3
:10288000059800F09FF9054404E030205A46179956
:1028900090476D1C0099481E00900029F5DC08E067
:1028A000029802995A460078491C0291179990475C
:1028B0006D1CBAF10001AAF1010AF1DC65E100002A
:1028C0000928010030313233343536373839616206
:1028D00063646566000000003031323334353637CA
:1028E00038394142434445460000000000F058F9A1
:1028F0000544761C307800287FF4ECAD19B02846EA
:10290000BDE8F08F620700D4062709F1070222F024
:10291000070CFCE80223E14603F000485FEA080CDC
:1029200002D00FF2702C0DE05FEA045C02D50FF2CA
:10293000682C07E05FEAC47C02D00FF2602C01E053
:10294000AFF2700C4FF0FF3823F00043CDF850C0C9
:1029500065280CD006DC452809D046281DD047281C
:102960003DD13DE0662818D067287ED138E00021AF
:10297000112F01DB112000E0781CCDE9000106A930
:102980000EA8FFF7DDFCDDE90F010E9A039100218F
:10299000009207F1010A04914DE04FF000400097CA
:1029A000CDE9011006A90EA8FFF7CAFCDDE90F0268
:1029B00003920E9B11990022DDF80CA00093049263
:1029C00011B9791C00EB010AB7EB0A0004D4C0F17D
:1029D000FF3007F1010A0490AAEB0700019044E0E0
:1029E000012F00DA01270021112F01DD112000E065
:1029F0003846CDE9000106A90EA8FFF7A1FCDDE9E4
:102A00000F010E9A0391002104910092BA4621070A
:102A10000CD40399514500DA8A46BAF1010F05DD5D
:102A2000009AAAF10101515C302908D0B84202DABB
:102A300010F1040F06DA0121CDE9011015E0AAF129
:102A40000101E9E7002805DC049901440491AAEB9F
:102A5000000102E0411C514500DD8A460499401AFC
:102A6000401C01904FF000400290200704D40198D0
:102A7000504501DBCDF8048000208DF84F0002980E
:102A80000DF14F07B0F1004F25D02B200E9002988A
:102A90004FF0020800280CDA404202902D200E90E0
:102AA00007E00A210298FDF7F3FB3031029007F8A6
:102AB000011DB8F10001A8F10108F2DC029800281C
:102AC000EFD1791E0E980870307800F0200040F0A9
:102AD000450007F8020D12A8C01B00F10708149862
:102AE000007800B1012000EB0A01019801EBE071D0
:102AF00005984144401A401E0590E00306D45B4609
:102B00002146179A059800F05DF80544149800785E
:102B100018B15A46179990476D1CE00324D55B46BF
:102B20002146179A059800F04DF805441CE00498DA
:102B3000002807DBDDE90301884203DD0098405CE3
:102B4000179901E0179930205A469047049805F1EB
:102B50000105401C04900198401E019004D12E20D4
:102B60005A46179990476D1CBAF10001AAF1010A63
:102B7000DDDC05E017F8010B5A46179990476D1CEC
:102B8000B8F10001A8F10108F4DC5B462146179A70
:102B90000598ABE62D0000002B000000200000008F
:102BA0002DE9F041044600251E461746880404D44A
:102BB00005E039462020B0476D1C641EF9D5284633
:102BC000BDE8F0812DE9F041044600251E469046FF
:102BD000C80301D5302700E02027880404D505E08C
:102BE00041463846B0476D1C641EF9D52846BDE8FD
:102BF000F0810A68531C0B60107070471FB5FDF719
:102C0000E7FFFFF76CFAFFF7B7F9FFF76FF9FFF788
:102C100013FAFEF76DF87B2006A3CDE90030029091
:102C200001230C22322103900846FEF7D5F900BF9C
:102C3000FEE7000025642564256400000000000014
:102C4000000000000102030406070809000000005C
:102C5000010203040000000000000000000000006A
:102C6000000000003F4000000000000000003000B5
:102C7000400030004000000009000BC03D000BC0C8
:102C80003D00090018C024407FE022403180000050
:102C9000180024C01B000D803240018003801C40BE
:102CA00027401C800740004010006000000000002A
:102CB000000000000000000000001F8020404020B5
:102CC0000000402020401F80000000000900060096
:102CD0001F80060009000000040004003F8004007B
:102CE0000400000000100060000000000000000070
:102CF0000400040004000400040000000000004080
:102D00000000000000000000002001C006003800A4
:102D1000400000001F802040204020401F80000015
:102D2000000010403FC000400000000018C02140DB
:102D300022402440184000001080204024402440BD
:102D40001B80000002000D0011003FC00140000088
:102D50003C80244024402440238000001F802440E5
:102D600024403440038000003000200027C0380099
:102D7000200000001B802440244024401B800000D1
:102D80001C0022C0224022401F80000000000000E2
:102D90000840000000000000000000000460000087
:102DA00000000000000004000A00110020804040E4
:102DB0000900090009000900090000000000404066
:102DC000208011000A000400180020002340240085
:102DD000180000001F802040274029401F400000AD
:102DE000004007C039000F0001C0004020403FC034
:102DF000244024401B8000001F80204020402040B1
:102E00003080000020403FC0204020401F80000054
:102E100020403FC024402E4030C0000020403FC032
:102E200024402E00300000000F001080204022407F
:102E30003380020020403FC0040004003FC0204017
:102E4000204020403FC02040204000000060202063
:102E500020203FC02000200020403FC024400B0025
:102E600030C0204020403FC020400040004000C013
:102E70003FC03C0003C03C003FC0000020403FC0BA
:102E80000C4023003FC020001F80204020402040F5
:102E90001F80000020403FC0244024001800000094
:102EA0001F802140214020E01FA0000020403FC0A3
:102EB0002440260019C0004018C02440244022406D
:102EC00031800000300020403FC020403000000032
:102ED00020003F80004000403F80200020003E0056
:102EE00001C0070038002000380007C03C0007C0C0
:102EF00038000000204039C0060039C020400000E2
:102F00002000384007C0384020000000304021C079
:102F10002640384020C00000000000007FE0402034
:102F200040200000000070000C0003800040000002
:102F30000000402040207FE0000000000000200052
:102F400040002000000000000010001000100010E1
:102F50000010001000000000400000000000000011
:102F6000000002800540054003C0004020003FC033
:102F7000044004400380000000000380044004403B
:102F80000640000000000380044024403FC0004091
:102F9000000003800540054003400000000004409D
:102FA0001FC0244024402000000002E005500550CE
:102FB0000650042020403FC00440040003C00040ED
:102FC0000000044027C00040000000000010001076
:102FD000041027E00000000020403FC0014007002F
:102FE00004C00440204020403FC00040004000009A
:102FF00007C0040007C0040003C00000044007C06D
:103000000440040003C0004000000380044004406A
:1030100003800000041007F0045004400380000007
:10302000000003800440045007F00010044007C073
:103030000240040004000000000006400540054076
:1030400004C00000000004001F8004400040000095
:10305000040007800040044007C00040040007004F
:1030600004C0018006000400060001C0070001C082
:1030700006000000044006C0010006C00440000035
:103080000410071004E00180060004000000044062
:1030900005C00640044000000000000004007BE082
:1030A00040200000000000000000FFF000000000D1
:1030B000000040207BE00400000000004000800091
:1030C0004000200020004000000000000000000040
:1030D00000000000000000000000000000001FCC05
:1030E000000C00000000000000000800300060003C
:1030F0000800300060000000022003FC1E200220B7
:1031000003FC1E200220000000000E1811043FFFE7
:1031100010840C78000000000F0010840F3800C0ED
:10312000077818840078000000780F8410C41124F8
:103130000E9800E400840008080068007000000099
:10314000000000000000000000000000000007E098
:103150001818200440020000000040022004181843
:1031600007E00000000000000240024001800FF074
:1031700001800240024000000080008000800FF8C3
:1031800000800080008000000001000D000E0000A3
:1031900000000000000000000000008000800080AF
:1031A00000800080008000800000000C000C000007
:1031B0000000000000000000000000060018006091
:1031C0000180060018002000000007F00808100425
:1031D0001004080807F000000000080408041FFCA1
:1031E000000400040000000000000E0C1014102465
:1031F000104411840E0C000000000C18100411047F
:10320000110412880C700000000000E00320042468
:1032100008241FFC0024000000001F9810841104E3
:103220001104108810700000000007F008881104D5
:10323000110418880070000000001C00100010FC31
:1032400013001C001000000000000E381144108410
:10325000108411440E38000000000700088C104450
:103260001044088807F00000000000000000030C74
:10327000030C000000000000000000000001010637
:10328000000000000000000000000080014002205B
:10329000041008081004000002200220022002206E
:1032A0000220022002200000000010040808041080
:1032B000022001400080000000000E001200100CEF
:1032C000106C10800F00000003E00C1813E41424AD
:1032D00017C4082807D000000004003C03C41C40A9
:1032E000074000E4001C000410041FFC110411043A
:1032F00011040E880070000003E00C181004100484
:10330000100410081C10000010041FFC100410040E
:103310001004080807F0000010041FFC1104110439
:1033200017C410040818000010041FFC1104110039
:1033300017C010000800000003E00C18100410046F
:1033400010441C780040000010041FFC1084008012
:10335000008010841FFC10040000100410041FFCE7
:10336000100410040000000000030001100110010F
:103370001FFE10001000000010041FFC1104038049
:103380001464181C1004000010041FFC1004000436
:1033900000040004000C000010041FFC1F0000FCCF
:1033A0001F001FFC1004000010041FFC0C0403008D
:1033B00000E010181FFC100007F0080810041004AB
:1033C0001004080807F0000010041FFC108410808F
:1033D000108010800F00000007F00818102410243F
:1033E000101C080A07F2000010041FFC1104110051
:1033F00011C011300E0C000400000E1C11041084CA
:10340000108410441C3800001800100010041FFC29
:10341000100410001800000010001FF81004000431
:10342000000410041FF8100010001E0011E0001C22
:10343000007013801C0010001FC0103C00E01F0033
:1034400000E0103C1FC000001004180C163401C02E
:1034500001C01634180C100410001C00130400FCEA
:1034600013041C00100000000804101C10641084D9
:1034700013041C04101800000000000000007FFE70
:103480004002400240020000000030000C000380B7
:103490000060001C000300000000400240024002E7
:1034A0007FFE00000000000000000000200040003F
:1034B0004000400020000000000100010001000168
:1034C0000001000100010001000040004000200058
:1034D00000000000000000000000009801240144EA
:1034E0000144014400FC000410001FFC008801049A
:1034F00001040088007000000000007000880104D2
:10350000010401040088000000000070008801042C
:10351000010411081FFC0004000000F801440144EC
:103520000144014400C800000000010401040FFC34
:103530001104110411001800000000D6012901290E
:10354000012901C90106000010041FFC00840100CC
:103550000100010400FC000400000104190419FC2E
:10356000000400040000000000000003000101014D
:10357000190119FE0000000010041FFC0024004087
:1035800001B4010C010400000000100410041FFC31
:103590000004000400000000010401FC010401001B
:1035A00001FC0104010000FC010401FC0084010095
:1035B0000100010400FC0004000000F80104010403
:1035C0000104010400F80000010101FF008501046D
:1035D00001040088007000000000007000880104F1
:1035E0000104010501FF00010104010401FC008444
:1035F0000104010001800000000000CC012401242E
:10360000012401240198000000000100010007F8D6
:103610000104010400000000010001F8000400049E
:103620000004010801FC0004010001800170000C8D
:10363000001001600180010001F0010C003001C0A8
:103640000030010C01F0010000000104018C007445
:103650000170018C01040000010101810171000E63
:10366000001801600180010000000184010C013498
:1036700001440184010C0000000000000000000073
:1036800001003EFC4002400200000000000000007B
:10369000FFFF0000000000000000400240023EFC6E
:1036A00001000000000000000000600080008000B9
:1036B000400040002000200000000000000000004A
:1036C00000000000000000000000000000000000FA
:1036D00000000000000000000000000000000000EA
:1036E00000000000000000000000000F80380FFE06
:1036F000380F8038000000000000000000000000CB
:103700000000000000000100000600000C0000386E
:1037100000003100000600000C00003800003000FE
:10372000000000000000000061800067F807F980D9
:103730000061800061800061800061800067F8079F
:10374000F98000618000000000000000000001C05E
:10375000E003E0F00630080418081FFFFE040E081E
:103760000787F00381E000000000000001F0000680
:103770000C00040408060C7001F9C0000E00003BA8
:10378000E000EC18070808040C180003E000000033
:103790000001E00007F003F818041C0804170807EC
:1037A000E1D003C0E00023B0003C08002008000086
:1037B0001000000000000001000031000032000095
:1037C0001C000000000000000000000000000000DD
:1037D00000000000000000000000000000000000E9
:1037E00000000000000000007F0001FFC00780F023
:1037F0000C0018100004200002000000000000204F
:1038000000021000040C00180780F001FFC0007FC8
:1038100000000000000000000000000000000000A8
:10382000000000004200006600006600003C00004E
:10383000180003FFC0001800003C0000660000668E
:10384000000042000000000008000008000008001E
:1038500000080000080001FFC00008000008000088
:10386000080000080000080000000000000100003F
:103870003100003200001C000000000000000000C9
:103880000000000000000000000000000000000038
:1038900008000008000008000008000008000008F8
:1038A00000000800000800000800000800000000F8
:1038B0000000000000000000380000380000380060
:1038C00000000000000000000000000000000000F8
:1038D0000000000000000000000600001C00007056
:1038E000000180000E0000380000C0000700001C2E
:1038F0000000300000000000000000007F8001FF99
:10390000E003807006001804000804000806001890
:1039100003807001FFE0007F8000000000000000D5
:10392000000001000801000801000803FFF807FF7C
:10393000F800000800000800000800000000000077
:1039400000000001C03802C05804009804011804A7
:103950000218040418061C1803F81801E0F8000007
:103960000000000000000001C0E003C0F0040008F7
:1039700004080804080806180803F41801E7F00012
:1039800001E0000000000000000000000300000D46
:103990000000110000610000810803010807FFF822
:1039A0000FFFF800010800010800000000000000FF
:1039B00000E007FCD00608080610080610080610EC
:1039C00008061838060FF00607C0000000000000C7
:1039D000000000003F8001FFE0038430020818046B
:1039E0001008041008041008071810030FF000074F
:1039F000C000000000000000000003C0000700003D
:103A00000600000600F80607F806180006E00007A2
:103A1000000006000000000000000001E1E003F7E4
:103A2000F0063410041808041808040C08040C08E4
:103A300006161803F3F001C1E000000000000000CA
:103A4000F80003FC300306380402080402080402EC
:103A5000080404100308F001FFC0007F000000000C
:103A60000000000000000000000000000000000056
:103A7000703800703800703800000000000000004E
:103A80000000000000000000000000000000000036
:103A900000000000301A00301C0000000000000090
:103AA000000000000000000000000000000000080E
:103AB000000014000022000041000080800100404E
:103AC00002002004001008000800000000000000B0
:103AD0002100002100002100002100002100002120
:103AE0000000210000210000210000210000000052
:103AF000000000000000080008040010020020017F
:103B000000400080800041000022000014000008F6
:103B10000000000000000003C00004C0000400001A
:103B2000080038080F380808380810000C30000763
:103B3000E00003C000000000000000003F8000FF24
:103B4000E0038070020F1006708804C088048308A8
:103B5000047F8802C09003012000FE40000008009E
:103B600000180001F8003E0801C20007020007E249
:103B70000000FE00001FC80001F800003800000827
:103B800004000807FFF807FFF80408080408080401
:103B9000080804080806180803F41801E7F00001F3
:103BA000E0000000000000003F8001FFE0038070A3
:103BB00002001804000804000804000804001006AD
:103BC00000200780C000000004000807FFF807FF7E
:103BD000F80400080400080400080400180200109B
:103BE00003807001FFE0007F8000000004000807F0
:103BF000FFF807FFF8040808040808040808040888
:103C000008043E08040008060018010060000000D7
:103C100004000807FFF807FFF80408080408000478
:103C20000800040800043E000600000600000180B1
:103C300000000000000000003F8001FFE0038070F2
:103C40000600180400080402080402080203F00732
:103C500083F000020000020004000807FFF807FFDD
:103C6000F804080800080000080000080000080028
:103C700004080807FFF807FFF80400080000000028
:103C8000000004000804000804000807FFF807FF0C
:103C9000F804000804000804000800000000000008
:103CA00000000000000600000700000104000104FD
:103CB000000104000307FFFE07FFFC0400000400EE
:103CC0000004000004000807FFF807FFF8040C08D0
:103CD000001800003E0004C7800503C80600F80471
:103CE000003804001800000804000807FFF807FF68
:103CF000F8040008000008000008000008000008A0
:103D00000000080000180000600000000400080720
:103D1000FFF807800807FC00007FC00003F80007D9
:103D2000C000780007800807FFF807FFF8040008C4
:103D300004000807FFF807000803C00000E00000C7
:103D40003800001E000007000001C00400F007FF5B
:103D5000F8040000000000007F8001FFE003807095
:103D600006001804000804000806001803003001CB
:103D7000FFE0007F8000000004000807FFF807FF55
:103D8000F80404080404000404000404000404000B
:103D9000060C0003F80001F0000000000000000025
:103DA0007F8001FFE0038070060088040088040023
:103DB000C806003C03003E01FFE6007F84000000CF
:103DC00004000807FFF807FFF804080804080004C7
:103DD0000C00040F00040BC00610F003F03801E0E3
:103DE0000800000800000001E0F803F03006301081
:103DF000041808041808040C08040C080206180229
:103E000007F00781E00000000180000600000400C8
:103E10000004000004000807FFF807FFF80400088A
:103E200004000004000006000001800004000007F8
:103E3000FFE007FFF0040018000008000008000081
:103E40000800000800000804001007FFE00400005C
:103E500004000006000007E00007FE00041FE00069
:103E600001F80000380001E0043E0007C000060031
:103E70000004000004000007E00007FFC0041FF872
:103E80000007C007F80007FF80043FF80007C004E0
:103E9000F80007000004000000000004000806000D
:103EA0001807C07805F1C8003E00001F800463E8D1
:103EB0000780F8060018040008000000040000064F
:103EC000000007800007E008047C08001FF80007D6
:103ED000F800180804E008070000060000040000CD
:103EE0000000000100080600380400F80403E8049C
:103EF0000F08047C0805F00807C008070018040034
:103F00006000000000000000000000000000000051
:103F10000000003FFFFE20000220000220000220DF
:103F20000002200002000000000000000000080065
:103F30000007000000C0000038000006000001C0BB
:103F400000003000000E0000010000000000000032
:103F500000002000022000022000022000022000B9
:103F6000023FFFFE00000000000000000000000013
:103F700000000000000000000008000010000030F9
:103F800000002000003000001000000800000000C9
:103F9000000000000000010000010000010000011D
:103FA000000001000001000001000001000001000C
:103FB00000010000010000010000000000000000FE
:103FC0000020000020000010000010000000000091
:103FD00000000000000000000000000000000000E1
:103FE00000F00019F8001B18002208002608002421
:103FF00008002410003FF8001FF800000800001817
:1040000000000004000007FFF80FFFF00018180080
:104010001008002008002008003018001FF0000FD2
:10402000C00000000000000007C0001FF0001830B2
:10403000002008002008002008003C08001C100098
:1040400000600000000000000000000007C0001F2A
:10405000F000381800200800200800200804101084
:1040600007FFF80FFFF00000100000000000000044
:1040700000000007C0001FF00012300022180022CC
:1040800008002208003208001E10000E2000000068
:1040900000000000200000200800200801FFF803B5
:1040A000FFF8062008042008042008072000030069
:1040B0000000000000000000000E000E6E001FF364
:1040C0000031B10020B10020B1003191001F130078
:1040D0002E1E00200E00300000000004000807FF24
:1040E000F80FFFF800100800200000200000200852
:1040F000003FF8001FF8000008000000000000006A
:104100000000002008002008002008063FF8063FB5
:10411000F80000080000080000080000000000008F
:104120000000000000000000030000030020010068
:104130002001002003063FFE063FFC0000000000B7
:104140000000000000000004000807FFF80FFFF85F
:10415000000188000300002FC00038F8002038005C
:10416000200800000800000000000000000004001B
:104170000804000804000807FFF80FFFF800000813
:1041800000000800000800000000000000200800F7
:104190003FF8003FF8001008002000003FF8003F03
:1041A000F8001008002000003FF8003FF800000869
:1041B000000000002008003FF8003FF80010080051
:1041C0001000002000002008003FF8001FF8000049
:1041D000080000000000000007C0000FF0001830C9
:1041E00000300800200800200800300800183000C7
:1041F0000FF00007C0000000000000002001003F99
:10420000FF003FFF001011002009002008002008D7
:10421000003038001FF0000FC00000000000000058
:1042200007C0001FF00038180020080020080020F8
:1042300009001011001FFF003FFF000001000000F7
:10424000002008002008002008003FF8003FF80088
:10425000080800100800200800200000300000308E
:1042600000000000000000000000000C78001E1894
:10427000003308002308002108002188002198004D
:1042800030F0003860000000000000002000002036
:104290000000200000FFF003FFF8002008002008C5
:1042A00000200800003000000000000000000000B6
:1042B0002000003FF0007FF8000018000008000018
:1042C00008002010003FF8007FF000001000000000
:1042D000000000002000003000003C00003F800093
:1042E00023F0000078000070002380003C000030C4
:1042F00000002000002000003C00003FE00023F808
:104300000000E0002700003E00003FE00021F80030
:1043100001E0003E00002000000000002008002016
:1043200008003838003E680027800003C8002CF8D9
:1043300000383800201800200800000000000000AD
:104340002000003003003C01003F830023EC00000C
:1043500070002380003C00002000002000000000CE
:104360000000000000000038080020380020F8009D
:1043700023E8002F88003E080038080020180000BD
:1043800070000000000000000000000000000000BD
:104390000000000008000014001FF7FC3000062099
:1043A000000200000000000000000000000000000B
:1043B00000000000000000000000FFFFFF00000000
:1043C00000000000000000000000000000000000ED
:1043D00000002000023000061FF7FC001400000857
:1043E00000000000000000000000000000000000CD
:1043F00000000018000060000040000040000020A5
:1044000000001000000800000400000400000C0080
:1044100000100000C6D50000000000E03800007861
:104420003C00003C7800003C70C0001CE1E01FFF35
:10443000FFF0001CE3000E1CE7C0079CE78003DCD4
:10444000EF0003DCEE0001DCFC60009CF9F07FFF74
:10445000FFF80000000001C00E0001FFFF0001C0D6
:104460000E0001C00E0001C00E0001FFFE0001C0E1
:104470000E0001C00E0001C00E0001FFFE0001C0D1
:104480000E0001C00E0000000000D6D000000000A9
:104490000007000000078000000700000007000080
:1044A00000070000000701801FFFFFE01FFFFFE083
:1044B0001E0701C01E0701C01E0701C01E0701C064
:1044C0001E0701C01E0701C01FFFFFC01FFFFFC066
:1044D0001E0701C01C070180000700000007000044
:1044E00000070000000700000007000000070000B0
:1044F00000070000000700000007000000000000A7
:10450000BFC60000000000000780003C07C001FC9F
:1045100007803FE0078039C1C78001C0E78001C044
:10452000F78001C0778001DE77807FFE078001C0C1
:10453000078003C3C78003E1E78003F8F78007FC27
:10454000E7F00FDE67F80FDC07F81FC0FF801DDF04
:10455000E78039CC078071C0078061C0078001C047
:10456000078001C0078001E0078001E0078001C0EB
:10457000070000000000BCBC000000000380300009
:1045800003C03C0003C03C0003C0380003C0380037
:1045900003C0386003F838F07FFFFFF003C0380035
:1045A00003C0380003C0380003DC39C003FFFFE05C
:1045B00007E383C03FC183C07FC1C3803BC1C780C5
:1045C00003C0EF0003C0EF0003C07E0003C07C0007
:1045D00003C07C0003C0FE003BC3EF803F8787F829
:1045E0000FBF03F8077800E000000000C4EA0000F5
:1045F000000000C0000001F0000001E0000003C066
:1046000000C003C001E007FFFFF00703C0000E0376
:10461000C0001E03C0003C03C3007303C78063FFD8
:10462000FFC00383C0000383C0000383C000038373
:10463000C0000383C0600383C0F07FFFFFF8000366
:10464000C0000003C0000003C0000003C00000035E
:10465000C0000003C0000003C0000003C000000051
:104660000000D4C2000000000000000000E00700CD
:1046700000FFFF8000F0078000F0070000F0070057
:1046800000F0070000F0070000FFFF0000FFFF0040
:1046900000F0070000F0070000F0070000F007003E
:1046A00000E0070000FFFF0000E0070000E0070057
:1046B00000E0070001E0070001C0070001C007009B
:1046C000038007000780F7000F007F001E001F0017
:1046D00038001C0000000000C8D5000000000000E9
:1046E00000000300030003FFFF8003FFFF8003803F
:1046F0000700038007000380070003800700038092
:10470000070003800700038007000380070003FF02
:10471000FF00038007000380070003800700038079
:104720000700038007000380070003800700038061
:1047300007000380070003FFFF00038007000380DA
:104740000700038007000300000000000000D0C73E
:1047500000000000000000000380070003FFFF804E
:1047600003800700038007000380070003FFFF00AA
:10477000038007000380070003FFFF0003FFFF0023
:10478000038707000387C00003C7810003C7838036
:1047900007FFFFC0070780000F0780001E07860085
:1047A0001C078F003BFFFF80700780000007800020
:1047B000000780E0000781F07FFFFFF800000000A5
:1047C00000000000C6DA0000000006000000079E9E
:1047D0000000079E7FF0079E7FF0079FF8F03FFFE5
:1047E000F8F01F9E78F0079E78F0079E78F007FE9D
:1047F0007FF0079E78F0079E78F0079E70F007FE26
:1048000070F0079E70F0079E7FF0079FFFF03FFF5C
:10481000F0F0119070F003DCF0F003DEE0F0078FB1
:10482000E0F00F0FE0F00E07C0F01C038FF0380F20
:1048300003E0201C01C00000000000005C480008EC
:104840000000002018000000202300087448000821
:1048500018000020B0040000302300080000000011
:104860000000000000000000100000000100000037
:044870000024F4002C
:0400000508000131BD
:00000001FF
