:020000040800F2
:100000007006002045010008830D0008650C0008FB
:10001000810D000853020008250E000800000000B2
:10002000000000000000000000000000870D000834
:100030005502000800000000850D0008890D000829
:100040005F0100085F0100085F0100085F01000810
:100050005F0100085F0100085F0100085F01000800
:100060005F0100085F0100085F0100085F010008F0
:100070005F0100085F0100085F0100085F010008E0
:100080005F0100085F0100085F0100085F010008D0
:100090005F0100085F0100085F0100085F010008C0
:1000A0005F0100085F0100085F0100085F010008B0
:1000B0005F0100085F0100085F0100085F010008A0
:1000C0005F0100085F0100085F0100085F01000890
:1000D0005F0100085F0100085F0100085F01000880
:1000E0005F0100085F0100085F0100085F01000870
:1000F0005F0100085F0100085F0100085F01000860
:100100005F0100085F0100085F0100085F0100084F
:100110005F0100085F0100085F0100085F0100083F
:100120005F0100085F0100085F0100085F0100082F
:10013000DFF80CD000F06CF80048004715130008F9
:10014000700600200648804706480047FEE7FEE7A5
:10015000FEE7FEE7FEE7FEE7FEE7FEE7FEE7FEE777
:10016000DD0D000831010008202A04DB203A21FAC5
:1001700002F00021704721FA02F3D040C2F12002C0
:100180009140084319467047D2B201E000F8012BB4
:10019000491EFBD270470022F6E710B513460A4607
:1001A00004461946FFF7F0FF204610BD2DE9F05F29
:1001B0000546002092469B468846064681464024D6
:1001C0001BE02846414647462246FFF7CDFF5346EF
:1001D0005A46C01A914110D311461846224600F0E3
:1001E00029F82D1A67EB01084F462246012000210D
:1001F00000F020F817EB00094E41201EA4F1010485
:10020000DFDC484631462A464346BDE8F09F000001
:10021000064C074D06E0E06840F0010394E8070053
:1002200098471034AC42F6D3FFF786FF68140008F5
:1002300088140008202A04DB203A00FA02F100208A
:1002400070479140C2F1200320FA03F31943904014
:100250007047FEE77047704730B5B3F5804F05D063
:100260006FF0704140F82210002030BD8C690B689F
:100270008D6823434C688989240144EA052423437B
:1002800043EA014150F82230014C23401943E9E789
:100290000000F0CF10B50A6850F8223023F00103B7
:1002A00040F822308C68082C23D000234A6822436F
:1002B000CC681C430B6922431A434B691A438B6970
:1002C0001A43CB691A430B6A1A434B6A1A438B6A67
:1002D0001A43CB6A1A430B6B1A434B6B09681A43D8
:1002E00050F82130044C23401A4340F821200020CC
:1002F00010BD4023DAE700008000F0FF30B5D1E9FF
:10030000003443EA04138C688D89240244EA0544CE
:1003100023430C8A094D00EB820005EB0454234370
:100320000C7D6D0105EB0464896923430B4341682F
:1003300001F040410B434360002030BD0000F0FF5E
:1003400006E000BF4FF0D0431B5C01F8013B401CAE
:10035000521EF7D2704710B505E04FF0D04311F8A8
:10036000014B1C54401C521EF7D210BD30B585B055
:10037000002000900190029003901B480168002922
:1003800030D1012101601948416941F48071416116
:100390004069022400F4807004904FF23F00CDE9E0
:1003A0000004032569460395114800F029F840F23E
:1003B0003F40CDE90004694603950E4800F020F85F
:1003C0004FF68370CDE90004694603950A4800F0B2
:1003D00017F84FF63370CDE90004694603950748D6
:1003E00000F00EF805B030BD000000200010024003
:1003F000001C014000200140001801400014014091
:100400002DE9F84FDFF8C891002409F1040A0AF138
:10041000040B23460F270BF1040ED1E00125A54064
:1004200006EA0502AA4276D1DFF8A8C14E68A6EB1B
:100430000C0866452BD00DDC032E34D005DC36B31A
:10044000012E19D0022E2FD11BE0112E16D0122E04
:100450002AD119E0B8F5881F19D006DCB8F5803F1D
:1004600015D0B8F5801F1FD111E0B8F5001F0ED0D0
:10047000B8F5041F18D10AE0CB6815E0CB681B1D46
:1004800012E0CB6808330FE0CB680C330CE08B68CC
:100490002BB1012B4FF0080303D0456104E0042386
:1004A00002E0056100E00023FF2A01D8064601E0D2
:1004B00000F104064FEA840501D9A5F12005D6F81C
:1004C000008007FA05FC28EA0C0803FA05F548EA5B
:1004D0000508C6F800804D68ED0070D53E4DAE6948
:1004E00046F00106AE61AD6924F0030605F0010592
:1004F00000953A4D06EB050CDCF80850A607360FC0
:1005000007FA06F825EA0805DFF8D480404503D14C
:100510004FF0000825E052E0DFF8C880404502D1E6
:100520004FF001081DE0DFF8C080404502D14FF0D8
:10053000020816E0DFF8B480404502D14FF003080E
:100540000FE0DFF8AC80404502D14FF0040808E02E
:10055000DFF8A080404502D14FF0050801E04FF0E0
:10056000060808FA06F848EA0508CCF808804D683D
:10057000D9F80060ED034D4601D5164300E09643DF
:100580002E604D68DAF80060AD03554601D516437C
:1005900000E096432E604D68DBF80060ED025D469A
:1005A00001D5164300E096432E604D68DEF80060EA
:1005B000AD02754601D5164300E096432E60641CDB
:1005C0000A681646E2407FF429AFBDE8F88F0000C4
:1005D0000004014000001110001002400000014022
:1005E00000080140000C01400010014000140140CF
:1005F00000180140001C01400AB101617047090464
:10060000FBE70000014880687047000008000020F8
:100610000248816802781144816070470800002018
:10062000074810B5016841F010010160032000F097
:1006300067F8002000F006F800F024F8002010BD54
:100640000020024070B50D4D04464FF47A712878B1
:10065000B1FBF0F00A490968B1FBF0F000F0EEFAE6
:1006600048B9102C07D200222146501E00F028F86D
:1006700000206C6070BD012070BD000008000020EB
:10068000140000200C4808B5816941F00101816126
:10069000816901F001010091C16941F08051C1619E
:1006A000C06900F0805000900448416821F0E0618A
:1006B00041F00071416008BD00100240000001409F
:1006C000F0B40E4B1B680C46C3F30223C3F10705BD
:1006D000042D00D90425191D072901D2002300E0AB
:1006E000DB1E012606FA05F1491E214099409E4075
:1006F000761E16403143F0BC00F0A6BB0CED00E0C6
:10070000064900F0070208684FF6FF03184040EA68
:100710000220034A10430860704700000CED00E01F
:100720000000FA052DE9F0470F46050061D0434E61
:10073000306800F00700B84209D2306820F00700A6
:1007400038433060306800F00700B84251D1286863
:100750003B4C810712D5400703D5606840F4E06048
:1007600060602878000703D5606840F460506060DE
:100770006068A96820F0F000084360602878C0072E
:1007800028D06868012810D02168022810D0890775
:1007900000292EDA616821F0030101436160FFF74F
:1007A00031FF804641F288390DE021688903EFE787
:1007B0008901EDE7FFF726FFA0EB0801494502D9C3
:1007C0000320BDE8F0876068696800F00C00B0EBBA
:1007D000810FEFD1306800F00700B8420BD93068C4
:1007E00020F0070038433060306800F00700B8425E
:1007F00001D00120E5E72878400705D56068E96861
:1008000020F4E060084360602878000706D560683F
:10081000296920F4605040EAC100606000F018F8D7
:100820006168084AC1F30311515CC8400649086079
:1008300006480068FFF706FF0020C2E700200240DC
:100840000010024058140008140000200C00002082
:1008500012A185B00FC98DE80F0014A0144A0068DA
:1008600004905168134801F00C03042B10D0082B9E
:100870000ED1C1F38343C9031DF803000AD55168A3
:1008800004AAC1F34041515C0A4A5043B0FBF1F065
:1008900005B0704708494843FAE700000203040521
:1008A000060708090A0B0C0D0E0F101001020000BC
:1008B0000010024000127A0000093D002DE9F84FB7
:1008C000040070D02078C04DC00749D06868C0F3DC
:1008D0008100012807D06868C0F38100022809D18F
:1008E0006868C00306D52868800339D56068002889
:1008F000E7D035E06068B0F5803F0BD010B1B0F5BF
:10090000A02F11D0286820F480302860286820F4B7
:10091000802002E0286840F480302860606890B150
:10092000FFF770FE06460AE0286840F48020286041
:10093000F0E700BFFFF766FE801B642873D82868C5
:100940008003F7D50CE0FFF75DFE064605E000BF2B
:10095000FFF758FE801B6428F0D828688003F7D47E
:1009600020789A4E80074FF001094FF0000839D5E2
:10097000686810F00C0F07D06868C0F38100022887
:1009800009D16868C00306D42868800714D5206997
:10099000012808D110E02069B0B1C6F80090FFF737
:1009A00031FE074605E00AE1FFF72CFEC01B0228D6
:1009B000C4D828688007F7D52868616920F0F80056
:1009C00040EAC10028600DE0C6F80080FFF71AFE7B
:1009D000074604E0FFF716FEC01B022823D828684C
:1009E0008007F7D4207800072CD57948A169D9B1C0
:1009F000C0F80090FFF706FE074604E0FFF702FE8E
:100A0000C01B02280FD8686A8007F7D571484FF4D9
:100A1000FA510068B0FBF1F0009000BF0098411E51
:100A20000091FAD20EE080E0C0F80080FFF7EAFD06
:100A3000074604E0FFF7E6FDC01B022875D8686A88
:100A40008007F7D42078400760D5E8690027C00008
:100A500008D4E86940F08050E861E869012700F0B7
:100A6000805000905C480168C90513D40168834632
:100A700041F480710160FFF7C5FD824606E000BFCA
:100A8000FFF7C0FDA0EB0A0064284ED8DBF8000099
:100A9000C005F5D5E06801280AD008B1052813D0B3
:100AA000286A20F001002862286A20F0040002E091
:100AB000286A40F001002862E06841F2883B98B162
:100AC000FFF7A0FD82460BE0286A40F00400286290
:100AD000EEE700BFFFF796FDA0EB0A0159455AD893
:100AE000286A8007F6D50CE0FFF78CFD824605E00A
:100AF000FFF788FDA0EB0A0159454CD8286A80070A
:100B0000F6D41FB1E86920F08050E861E06988B34D
:100B10006968C1F38101022944D00228C6F86080C7
:100B200004D0FFF76FFD044638E034E0FFF76AFDBC
:100B3000074604E0FFF766FDC01B02282BD8286893
:100B40008001F7D4206AB0F5803F05D16868A168BC
:100B500020F4003008436860D4E90801084369685C
:100B600021F4741108436860C6F86090FFF74AFDED
:100B7000044606E025E000BFFFF744FD001B022805
:100B800009D828688001F7D51BE000BFFFF73AFDC0
:100B9000001B022802D90320BDE8F88F28688001D5
:100BA000F4D40EE00128F7D06868226A00F480319E
:100BB000914204D1616A00F47010884201D0012092
:100BC000EAE70020E8E7000000100240000042428F
:100BD00080044242140000200070004070B51546A9
:100BE0000E46040003D094F8410010B107E0012044
:100BF00070BD002084F84000204600F01DF804F18C
:100C000008012068FFF746FB3146A2682068FFF71D
:100C100075FBD4E901022946236BFFF71DFB216810
:100C2000A06851F8202042F0010241F82020012064
:100C300084F84100002070BDFFF798BB10B5401E3E
:100C4000B0F1807F01D3012010BD4FF0E02460613E
:100C50000F21601700F0F8F80020A0610720206144
:100C6000002010BDFEE7000000B587B01C216846DB
:100C7000FFF791FA17484FF0204110220160164902
:100C80004160042181600021C160C0E904128161DA
:100C9000C16113020162C0E90913C16201634163CA
:100CA00081630F20CDE9001002AB032083E8070029
:100CB0001120CDE90501002269460648FFF78EFFA5
:100CC00008B1FFF7C8FA0548C16941F48061C16104
:100CD00007B000BD24000020040100A00000014076
:100CE00030B585B000242448009401940294039404
:100CF000816941F080018161816901F08001049185
:100D0000816941F010018161816901F01001049154
:100D1000816941F480718161816901F4807104917C
:100D2000816941F040018161816901F040010491D4
:100D3000816941F020018161816901F02001049104
:100D4000816941F00401816180690C4D00F004006B
:100D5000049001220F212846FFF74EFC0F2000903F
:100D60000120CDE901040220039069462846FFF7DF
:100D700047FB05B030BD00000010024000100140EC
:100D8000FEE7704770477047FFF742BC30B58FB041
:100D900028216846FFF7FFF914210AA8FFF7FBF99D
:100DA00001210804CDE900100024029402250491D9
:100DB000CDE907504FF4E01009906846FFF77EFD3B
:100DC0000F20CDE90A056802CDE90C4002210AA8EE
:100DD0000E94FFF7A7FC0FB030BD00000D4801686E
:100DE00041F00101016041680B4A11404160016816
:100DF0000A4A11400160016821F4802101604168C4
:100E000021F4FE0141604FF41F0181600449C003D9
:100E100008607047001002400000FFF8FFFFF6FE78
:100E200008ED00E0FEE700000FB4054B10B503A984
:100E3000044A029800F028F810BC5DF814FB00008A
:100E4000ED120008180000200907090E002804DB35
:100E500000F1E02080F80014704700F00F0000F16E
:100E6000E02080F8141D704702E008C8121F08C176
:100E7000002AFAD170477047002001E001C1121F1B
:100E8000002AFBD1704700002DE9FF4F8DB00F46BF
:100E90000546002606E025280BD0DDE90F12904715
:100EA0006D1C761C28780028F5D111B03046BDE8BD
:100EB000F08F0024A246A1460122EC4900E0044341
:100EC00015F8013F203B02FA03F00842F7D12878D9
:100ED0002A2810D06FF02F022878A0F130010929BC
:100EE00014D80AEB8A0102EB410144F0020400EB42
:100EF000010A6D1CF0E701CF5FEA000A03D544F454
:100F00000054CAF1000A44F002046D1C28782E280F
:100F100017D115F8010F44F004042A280ED06FF001
:100F20002F022878A0F1300109290AD809EB89019C
:100F300002EB410100EB01096D1CF2E757F8049B3D
:100F40006D1C28786C280FD006DC4C2817D0682838
:100F50000DD06A2814D104E0742810D07A280FD15B
:100F60000DE044F400140AE044F4801401E044F479
:100F700040146978814202D104F580146D1C6D1C07
:100F80002A786E2A1FD00CDC632A31D004DC002AB8
:100F90008BD0582A11D1A3E0642A68D0692A0CD1D9
:100FA00065E0732A2ED004DC6F2A73D0702A04D136
:100FB0009BE0752A6FD0782A6ED01046DDE90F12BB
:100FC0009047761C50E1C4F30250022806D0032853
:100FD00009D0042801CF09D0066045E101CFF117FF
:100FE000C0E9006140E101CF06803DE106703BE1D0
:100FF00017F8040B8DF8000000208DF80100EB4677
:10100000012003E057F804BB4FF0FF3061074FF0B9
:10101000000102D40DE008F10101884649450FDACC
:101020008045F8DB1BF808100029F4D108E008F12E
:10103000010188468142FADB1BF808100029F6D12D
:10104000DDE90F23AAEB08008146214600F036F9BE
:10105000304400EB080604E0DDE90F121BF8010B39
:101060009047B8F10108F7D221464846F7E00A2137
:10107000C4F302534FF0000B0891022B04D001CFB0
:10108000C117032B09D00AE0FF1D27F00707F7E877
:10109000020108E032E01FE020E000B2C117042B9B
:1010A00001D140B2C117031E71F1000307DA4FF0FE
:1010B000000CD0EB0C006CEB01012D2302E02305AA
:1010C00004D52B238DF82430012303E0E30701D05E
:1010D0002023F7E7984658E00A2110E010210EE09F
:1010E00010204FF0000B08900CE010214FF0000B87
:1010F00044F004044FF00809089103E008214FF080
:10110000000B0891C4F30253022B04D001CF00213D
:10111000032B06D006E0FF1D27F00707F7E80201C2
:1011200003E080B2042B00D1C0B24FF000082307C7
:101130002BD5702A07D0DDF820C08CF0100C5CEAAB
:101140000B0C05D00EE040238DF82430012308E07D
:1011500050EA010306D030238DF824308DF8252085
:1011600002239846DDF820C08CF0080C5CEA0B0CDA
:101170000BD150EA010301D1630706D530238DF866
:1011800024304FF00108A9F10109582A04D038A2EF
:101190000B9208AA0A920BE03AA2F9E75B46089A7A
:1011A000FFF704F80B9B9B5C0A9A521E0A9213707D
:1011B00050EA0102F2D10A98ADEB000000F1200BD9
:1011C000600702D524F4803401E04FF00109D945CD
:1011D00002DDA9EB0B0000E0002000EB0B01414415
:1011E0000890AAEB010AE00306D4DDE90F232146AB
:1011F000504600F063F806444FF0000908E009A9E2
:1012000011F80900DDE90F12904709F10109761C78
:10121000C145F4DBE0030CD5DDE90F232146504640
:1012200000F04CF8064404E0DDE90F12302090474E
:10123000761C0899481E08900029F5DC08E00A98F9
:101240000A990078491C0A91DDE90F129047761C33
:10125000BBF10001ABF1010BF1DC21465046DDE9A9
:101260000F2300F019F806446D1C1BE60928010045
:10127000303132333435363738396162636465660C
:1012800000000000303132333435363738394142CE
:1012900043444546000000002DE9F0410446002586
:1012A0001E461746880404D405E039462020B0477E
:1012B0006D1C641EF9D52846BDE8F0812DE9F0418A
:1012C000044600251E469046C80301D5302700E09D
:1012D0002027880404D505E041463846B0476D1CF8
:1012E000641EF9D52846BDE8F08100000849096868
:1012F000C90706D0064980390968CA074FF060411E
:1013000001D1704700BF0A68002AFBD008707047FF
:10131000800E00E086B0FFF783F9FFF737FDFFF797
:10132000DFFCFFF7A1FC122019A28DF8000007CA0C
:1013300002AB0C2483E80700012269460020FFF776
:101340000AF8224602A96420FFF705F800208DF86C
:101350000400204600F04AF80546012201A90020B9
:10136000FEF7EEFF224629466420FEF7E9FF9DF8CE
:1013700004209DF8001009A0FFF756FD02A90FA058
:10138000FFF752FD294613A0FFF74EFDFEE70000D0
:1013900068656C6C6F20776F726C64003D3D3D3DFD
:1013A0003D31363D3D3E613A30782530327820621D
:1013B0003A3078253032780A000000003D3D3D3D4E
:1013C0003D3D3D3D3D3D3E6275666665725F613AFD
:1013D00025730A003D3D3D3D3D3D3D3D3D3D3E6269
:1013E00075666665725F623A25730A00F0B50B3068
:1013F000154D20F007010024144A0FE003688B42CA
:101400000BD38B4205D95E1A43184768C3E90067BE
:1014100000E04368136002C004E0021D1068002869
:10142000ECD12046002802D1286808B10020F0BD88
:10143000064A07481060074A121A22F00702C0E95C
:10144000002401202860D7E7200000201C00002095
:101450007400002070020020000000000000000066
:101460000102030406070809881400080000002090
:1014700024000000680E0008AC14000824000020BE
:101480004C060000780E000800000000000000007C
:101490000100000010000000000000000024F40023
:0C14A00000000000000000000000000040
:0400000508000131BD
:00000001FF
