:020000040800F2
:1000000078060020450100080B1300081B120008A9
:100010000913000853020008BD1400080000000086
:100020000000000000000000000000001F14000895
:1000300055020008000000000D13000821140008FC
:100040005F0100085F0100085F0100085F01000810
:100050005F0100085F0100085F0100085F01000800
:100060005F0100085F0100085F0100085F010008F0
:100070005F0100085F0100085F0100085F010008E0
:100080005F0100085F0100085F0100085F010008D0
:100090005F0100085F0100085F0100085F010008C0
:1000A0005F0100085F0100085F0100085F010008B0
:1000B0005F0100085F0100085F0100085F010008A0
:1000C0005F0100085F0100085F0100085F01000890
:1000D0005F0100085F0100085F0100085F01000880
:1000E0005F0100085F0100085F0100085F01000870
:1000F0005F0100085F0100085F0100085F01000860
:100100005F0100085F0100085F0100085F0100084F
:100110005F0100085F0100085F0100085F0100083F
:100120005F0100085F0100085F0100085F0100082F
:10013000DFF80CD000F06CF800480047FD1900080B
:10014000780600200648804706480047FEE7FEE79D
:10015000FEE7FEE7FEE7FEE7FEE7FEE7FEE7FEE777
:100160007514000831010008202A04DB203A21FA26
:1001700002F00021704721FA02F3D040C2F12002C0
:100180009140084319467047D2B201E000F8012BB4
:10019000491EFBD270470022F6E710B513460A4607
:1001A00004461946FFF7F0FF204610BD2DE9F05F29
:1001B0000546002092469B468846064681464024D6
:1001C0001BE02846414647462246FFF7CDFF5346EF
:1001D0005A46C01A914110D311461846224600F0E3
:1001E00029F82D1A67EB01084F462246012000210D
:1001F00000F020F817EB00094E41201EA4F1010485
:10020000DFDC484631462A464346BDE8F09F000001
:10021000064C074D06E0E06840F0010394E8070053
:1002200098471034AC42F6D3FFF786FFDC1A00087B
:10023000FC1A0008202A04DB203A00FA02F1002010
:1002400070479140C2F1200320FA03F31943904014
:100250007047FEE7704770472DE9104000F07EF8C8
:10026000C007FBD110BD000001B54FF47A73012225
:100270006946024800F01EFE08BD00001C00002078
:100280000A4601464FF47A73014800F06BBD000046
:100290001C0000200A4601464FF47A73014800F022
:1002A00009BE00001C0000207CB50020114DADF8F7
:1002B000000002464FF4005401902146284600F009
:1002C000E7F99020FFF7D0FF032101A8FFF7E2FF35
:1002D00002216846FFF7D4FF01222146284600F09C
:1002E000D7F9BDF8001004A001F0EAF8BDF800004D
:1002F0007CBD0000002001402D2D3E4465766963E1
:100300006549643A253034780A000000F7B50C4698
:100310000099154601F47F40CAB240EA0240C1F399
:10032000074108430C4F4FF400560090002231461D
:10033000384600F0ADF90320FFF796FF0321684629
:10034000FFF7A8FF29462046FFF79AFF0122314612
:10035000384600F09DF9FEBD0020014038B5002070
:100360000C4D8DF8000002464FF4005421462846FB
:1003700000F08EF90520FFF777FF01216846FFF7AF
:100380007FFF01222146284600F082F99DF80000F7
:1003900038BD00000020014031B50098000B0090EE
:1003A00000F034F8FFF758FF0C4D4FF400540022D2
:1003B0002146284600F06CF92020FFF755FF032165
:1003C0006846FFF767FF01222146284600F060F9E2
:1003D000FFF742FF00F004F838BD000000200140A4
:1003E00070B5094D4FF4005400222146284600F014
:1003F0004FF90420FFF738FF21462846BDE870403A
:10040000012200F045B900000020014070B5094DFF
:100410004FF4005400222146284600F039F9062006
:10042000FFF722FF21462846BDE87040012200F078
:100430002FB9000000200140F7B50C460099154681
:1004400001F47F40CAB240EA0240C1F307410843C9
:100450000090FFF7DBFFFFF7FFFE0E4F4FF4005653
:1004600000223146384600F013F90220FFF7FCFE67
:1004700003216846FFF70EFF29462046FFF700FFDD
:1004800001223146384600F003F9FFF7E5FEFFF799
:10049000A7FFFEBD002001402DE9F84FDFF8C8910D
:1004A000002409F1040A0AF1040B23460F270BF17B
:1004B000040ED1E00125A54006EA0502AA4276D144
:1004C000DFF8A8C14E68A6EB0C0866452BD00DDC02
:1004D000032E34D005DC36B3012E19D0022E2FD1D5
:1004E0001BE0112E16D0122E2AD119E0B8F5881F64
:1004F00019D006DCB8F5803F15D0B8F5801F1FD1A4
:1005000011E0B8F5001F0ED0B8F5041F18D10AE0AD
:10051000CB6815E0CB681B1D12E0CB6808330FE0F9
:10052000CB680C330CE08B682BB1012B4FF0080328
:1005300003D0456104E0042302E0056100E00023EC
:10054000FF2A01D8064601E000F104064FEA8405BF
:1005500001D9A5F12005D6F8008007FA05FC28EAA4
:100560000C0803FA05F548EA0508C6F800804D684E
:10057000ED0070D53E4DAE6946F00106AE61AD6945
:1005800024F0030605F0010500953A4D06EB050C35
:10059000DCF80850A607360F07FA06F825EA080522
:1005A000DFF8D480404503D14FF0000825E052E049
:1005B000DFF8C880404502D14FF001081DE0DFF8A8
:1005C000C080404502D14FF0020816E0DFF8B48049
:1005D000404502D14FF003080FE0DFF8AC80404502
:1005E00002D14FF0040808E0DFF8A080404502D1B6
:1005F0004FF0050801E04FF0060808FA06F848EA4F
:100600000508CCF808804D68D9F80060ED034D4628
:1006100001D5164300E096432E604D68DAF800607D
:10062000AD03554601D5164300E096432E604D6854
:10063000DBF80060ED025D4601D5164300E096430D
:100640002E604D68DEF80060AD02754601D5164398
:1006500000E096432E60641C0A681646E2407FF470
:1006600029AFBDE8F88F0000000401400000111020
:10067000001002400000014000080140000C014051
:10068000001001400014014000180140001C01400E
:100690000AB1016170470904FBE700000148806866
:1006A0007047000000000020024881680278114471
:1006B0008160704700000020074810B5016841F0D4
:1006C00010010160032000F067F8002000F006F838
:1006D00000F024F8002010BD0020024070B50D4D40
:1006E00004464FF47A712878B1FBF0F00A490968A2
:1006F000B1FBF0F000F07DFD48B9102C07D20022CC
:100700002146501E00F028F800206C6070BD0120CA
:1007100070BD0000000000200C0000200C4808B54F
:10072000816941F001018161816901F0010100915C
:10073000C16941F08051C161C06900F080500090F2
:100740000448416821F0E06141F00071416008BD5A
:100750000010024000000140F0B40E4B1B680C4634
:10076000C3F30223C3F10705042D00D90425191D85
:10077000072901D2002300E0DB1E012606FA05F15D
:10078000491E214099409E40761E16403143F0BCE0
:1007900000F0A6BE0CED00E0064900F00702086874
:1007A0004FF6FF03184040EA0220034A1043086056
:1007B000704700000CED00E00000FA052DE9F0475D
:1007C0000F46050061D0434E306800F00700B84284
:1007D00009D2306820F0070038433060306800F0FC
:1007E0000700B84251D128683B4C810712D5400719
:1007F00003D5606840F4E06060602878000703D5A6
:10080000606840F4605060606068A96820F0F000A3
:10081000084360602878C00728D06868012810D095
:100820002168022810D0890700292EDA616821F09A
:10083000030101436160FFF731FF804641F28839CF
:100840000DE021688903EFE78901EDE7FFF726FF57
:10085000A0EB0801494502D90320BDE8F087606894
:10086000696800F00C00B0EB810FEFD1306800F048
:100870000700B8420BD9306820F0070038433060D9
:10088000306800F00700B84201D00120E5E7287881
:10089000400705D56068E96820F4E06008436060BF
:1008A0002878000706D56068296920F4605040EA7E
:1008B000C100606000F018F86168084AC1F30311D4
:1008C000515CC8400649086006480068FFF706FF0B
:1008D0000020C2E70020024000100240CC1A0008AD
:1008E0000C0000200400002012A185B00FC98DE883
:1008F0000F0014A0144A006804905168134801F0D6
:100900000C03042B10D0082B0ED1C1F38343C90371
:100910001DF803000AD5516804AAC1F34041515C97
:100920000A4A5043B0FBF1F005B07047084948430C
:10093000FAE7000002030405060708090A0B0C0D7C
:100940000E0F1010010200000010024000127A0089
:1009500000093D002DE9F84F040070D02078C04D0B
:10096000C00749D06868C0F38100012807D06868D3
:10097000C0F38100022809D16868C00306D5286841
:10098000800339D560680028E7D035E06068B0F5AD
:10099000803F0BD010B1B0F5A02F11D0286820F403
:1009A00080302860286820F4802002E0286840F425
:1009B00080302860606890B1FFF770FE06460AE05C
:1009C000286840F480202860F0E700BFFFF766FE4B
:1009D000801B642873D828688003F7D50CE0FFF7E4
:1009E0005DFE064605E000BFFFF758FE801B642849
:1009F000F0D828688003F7D420789A4E80074FF00B
:100A000001094FF0000839D5686810F00C0F07D0C5
:100A10006868C0F38100022809D16868C00306D461
:100A20002868800714D52069012808D110E02069C2
:100A3000B0B1C6F80090FFF731FE074605E00AE1C5
:100A4000FFF72CFEC01B0228C4D828688007F7D502
:100A50002868616920F0F80040EAC10028600DE0D4
:100A6000C6F80080FFF71AFE074604E0FFF716FEFF
:100A7000C01B022823D828688007F7D420780007F5
:100A80002CD57948A169D9B1C0F80090FFF706FECE
:100A9000074604E0FFF702FEC01B02280FD8686A71
:100AA0008007F7D571484FF4FA510068B0FBF1F0B8
:100AB000009000BF0098411E0091FAD20EE080E045
:100AC000C0F80080FFF7EAFD074604E0FFF7E6FD07
:100AD000C01B022875D8686A8007F7D420784007C1
:100AE00060D5E8690027C00008D4E86940F080506C
:100AF000E861E869012700F0805000905C480168D7
:100B0000C90513D40168834641F480710160FFF781
:100B1000C5FD824606E000BFFFF7C0FDA0EB0A005E
:100B200064284ED8DBF80000C005F5D5E068012840
:100B30000AD008B1052813D0286A20F001002862E5
:100B4000286A20F0040002E0286A40F001002862D0
:100B5000E06841F2883B98B1FFF7A0FD82460BE0C8
:100B6000286A40F004002862EEE700BFFFF796FD18
:100B7000A0EB0A0159455AD8286A8007F6D50CE03F
:100B8000FFF78CFD824605E0FFF788FDA0EB0A0128
:100B900059454CD8286A8007F6D41FB1E86920F07F
:100BA0008050E861E06988B36968C1F38101022976
:100BB00044D00228C6F8608004D0FFF76FFD0446D9
:100BC00038E034E0FFF76AFD074604E0FFF766FD12
:100BD000C01B02282BD828688001F7D4206AB0F502
:100BE000803F05D16868A16820F400300843686040
:100BF000D4E908010843696821F474110843686066
:100C0000C6F86090FFF74AFD044606E025E000BF05
:100C1000FFF744FD001B022809D828688001F7D59A
:100C20001BE000BFFFF73AFD001B022802D903209A
:100C3000BDE8F88F28688001F4D40EE00128F7D0D1
:100C40006868226A00F48031914204D1616A00F43C
:100C50007010884201D00120EAE70020E8E7000098
:100C60000010024000004242800442420C0000207A
:100C70000070004070B5040005D00025A56294F80E
:100C8000510010B106E0012070BD84F8505020469C
:100C900000F02EF8022084F851002068016821F04D
:100CA00040010160D4E901010843D4E90312114372
:100CB000084361690843218B01F400710843E1692D
:100CC0000843216A0843A16A084321680860A069B3
:100CD000042101EA1040216848602068C16921F4BC
:100CE0000061C1616565012084F85100002070BD7C
:100CF00030B585B0002400940194029403940068F8
:100D00001549884225D11548C16941F48041C16126
:100D1000C16901F480410491816941F00801816158
:100D200080690F4D00F0080004904FF420400090BF
:100D3000022001900320039069462846FFF7ACFB90
:100D40004FF48040CDE90004694628460294FFF73D
:100D5000A3FB05B030BD0000003800400010024089
:100D6000000C01402DE9F84F0446406800259846E4
:100D700016460F464FF0040BB0F5827F01D1A068F4
:100D800088B194F85000012818D0012084F8500050
:100D9000FFF784FC814694F851004FF0000A0128C7
:100DA0000ED002257DE084F851B013460A46204655
:100DB000CDF8008000F02CF9BDE8F88F0220FBE7A9
:100DC000002F6DD0002E6BD084F851B0C4F854A021
:100DD000A763A687E687C4F830A0A4F834A0A4F8D7
:100DE00036A0C4F840A0C4F844A0A068B0F5004FF5
:100DF00004D12068016821F4804101602068016805
:100E0000490603D4016841F040010160E068D8B1AF
:100E100039E020688168C90709D0007BA16B0870A0
:100E2000A06B401CA063E08F401EE0870CE0FFF742
:100E300035FCA0EB0901414503D3B8F1FF3F03D0D6
:100E400036E0B8F1000F33D0E08F0028E1D11DE08B
:100E500020688168C90709D0C068A16B0880A06BB1
:100E6000801CA063E08F401EE0870CE0FFF716FCBB
:100E7000A0EB0901414503D3B8F1FF3F03D017E0D0
:100E8000B8F1000F14D0E08F0028E1D14A46414666
:100E9000204600F03CFA08B120206065606D00B18A
:100EA0000125012084F8510084F850A0284683E7EA
:100EB0000325F6E72DE9F84F044690F85000002787
:100EC0001D461646894601280DD04FF0010B84F8C7
:100ED00050B0FFF7E3FB804694F85100BA46012872
:100EE00004D002278EE00220BDE8F88FB9F1000F90
:100EF0007DD0002E7BD0032084F85100C4F854A08C
:100F0000C4F83090A686E686C4F838A0A4F83CA0C1
:100F1000A4F83EA0C4F844A0C4F840A0A068B0F56E
:100F2000004F04D12068016841F4804101602068CD
:100F30000168490603D4016841F040010160E0689E
:100F4000B0F5006F606803D030B3012E24D040E0CC
:100F500008B1012E1CD1206B21680088C86006E012
:100F600020688168890709D5216B0988C160206BD9
:100F7000801C2063E08E401EE08609E0FFF78EFBB8
:100F8000A0EB0800A84202D3681C01D031E07DB379
:100F9000E08E0028E4D11FE0206B21680078087300
:100FA00006E020688168890709D5216B09780173FB
:100FB000206B401C2063E08E401EE08609E0FFF7B6
:100FC0006DFBA0EB0800A84202D3681C01D010E022
:100FD00075B1E08E0028E4D142462946204600F053
:100FE000C4F908B120206065A06820B107E008E0DE
:100FF000FFE7032706E02068C16880680090606D05
:1010000000B1012784F851B084F850A038466BE74E
:101010002DE9F84F044690F8500000270A9E1D461F
:1010200092468B464FF0010901280ED0012084F82A
:101030005000FFF733FB804694F8510061680128A7
:101040000CD0B1F5827F07D102E00220BDE8F88F15
:10105000A16809B9042801D00227C2E0BBF1000F42
:1010600027D0BAF1000F24D01DB394F85100042802
:1010700002D0052084F8510000206065C4F838A033
:10108000E587A587C4F830B0E586A586206460644E
:1010900020680168490603D4016841F040010160FD
:1010A000E068B0F5006F606805D0E8B3012D46D068
:1010B0007FE0012795E008B1012D39D1206B21682F
:1010C0000088C860206B801C2063E08E401EE08694
:1010D0002EE02068816889070FD5E18E69B1B9F1EA
:1010E000010F0AD1216B0988C160206B801C20632D
:1010F000E08E401EE0864FF0000920688168C90735
:101100000CD0E18F51B1C068A16B0880A06B801C2E
:10111000A063E08F401EE0874FF00109FFF7BEFAA1
:10112000A0EB0800B04200E009E001D3701C50D1F0
:10113000E08E0028CDD1E08F0028CAD13FE0206B9F
:10114000216800780873206B401C2063E08E401EED
:10115000E0862EE02068816889070FD5E18E69B1AD
:10116000B9F1010F0AD1216B09780173206B401C82
:101170002063E08E401EE0864FF000092068816801
:10118000C9070CD0E18F51B1C068A16B0870A06B8A
:10119000401CA063E08F401EE0874FF00109FFF77D
:1011A0007DFAA0EB0800B04202D3701C01D010E021
:1011B0007EB1E08E0028CDD1E08F0028CAD1424612
:1011C0003146204600F0D1F828B101272020606583
:1011D00007E0032705E0A06818B92068C1688068A7
:1011E0000090012084F85100002084F85000384617
:1011F0002CE710B5401EB0F1807F01D3012010BD57
:101200004FF0E02460610F21601700F069F90020C1
:10121000A06107202061002010BDFEE72DE9F0410C
:1012200086B00024244800940194029403948169B8
:1012300041F010018161816901F01001049181691F
:1012400041F008018161816901F00801049181691F
:1012500041F004018161816901F004010491816917
:1012600041F4807181618069144F00F480700490B2
:1012700001220F213846FFF70BFA0122DFF84080E8
:10128000560331464046FFF703FA0F200125CDE90A
:1012900000050220CDE9024069463846FFF7FCF818
:1012A0000320CDE90240CDE9006569464046FFF7DD
:1012B000F3F806B0BDE8F0810010024000100140D4
:1012C000002001400F4810B50D4901604FF48271B4
:1012D000416000218160C1604FF400720161C0E98A
:1012E0000512C1610162416281620A21C162FFF798
:1012F000C1FC002803D0BDE81040FEF7ACBF10BD14
:10130000003800401C000020FEE770477047F8B529
:10131000044640684FF48273984217D1A0684FF496
:101320008065B0F5004F01D0A8420FD12068066853
:1013300026F0400606606068984207D1A068A8427F
:1013400004D100920B460022012103E000920B46DB
:1013500000228021204600F018F8002804D0606D9B
:1013600040F0200060650320F8BD38B50B460092C0
:1013700004460022802100F008F8002804D0606DA7
:1013800040F020006065032038BD2DE9F0411D4686
:1013900017460E460446DDF8188008E0681C06D0A3
:1013A000FFF77CF9A0EB0800A8420BD255B12068EA
:1013B000806836EA000030D00020B842EED100202C
:1013C000BDE8F0812068416821F0E001416060687B
:1013D000B0F5827F0BD1A068B0F5004F02D0B0F518
:1013E000806F04D12068016821F040010160A06A8B
:1013F000B0F5005F09D12068016821F40051016057
:101400002068016841F400510160012084F8510016
:10141000002084F850000320D2E70120CDE7704778
:10142000FFF742B930B58FB028216846FEF7B3FE0A
:1014300014210AA8FEF7AFFE01210804CDE900102F
:101440000024029402250491CDE907504FF4E010E6
:1014500009906846FFF77EFA0F20CDE90A05680279
:10146000CDE90C4002210AA80E94FFF7A7F90FB0AE
:1014700030BD00000D48016841F001010160416884
:101480000B4A1140416001680A4A1140016001683D
:1014900021F480210160416821F4FE0141604FF494
:1014A0001F0181600449C0030860704700100240BA
:1014B0000000FFF8FFFFF6FE08ED00E0FEE7000089
:1014C0000FB4054B10B503A9044A029800F028F8A0
:1014D00010BC5DF814FB0000851900081000002006
:1014E0000907090E002804DB00F1E02080F8001451
:1014F000704700F00F0000F1E02080F8141D7047E5
:1015000002E008C8121F08C1002AFAD170477047CC
:10151000002001E001C1121F002AFBD1704700002A
:101520002DE9FF4F8DB00F460546002606E0252821
:101530000BD0DDE90F1290476D1C761C287800282F
:10154000F5D111B03046BDE8F08F0024A246A14687
:101550000122EC4900E0044315F8013F203B02FA68
:1015600003F00842F7D128782A2810D06FF02F0214
:101570002878A0F13001092914D80AEB8A0102EB7E
:10158000410144F0020400EB010A6D1CF0E701CFB9
:101590005FEA000A03D544F40054CAF1000A44F09B
:1015A00002046D1C28782E2817D115F8010F44F07D
:1015B00004042A280ED06FF02F022878A0F1300101
:1015C00009290AD809EB890102EB410100EB010965
:1015D0006D1CF2E757F8049B6D1C28786C280FD01F
:1015E00006DC4C2817D068280DD06A2814D104E0F6
:1015F000742810D07A280FD10DE044F400140AE0CA
:1016000044F4801401E044F440146978814202D12A
:1016100004F580146D1C6D1C2A786E2A1FD00CDC1A
:10162000632A31D004DC002A8BD0582A11D1A3E0E0
:10163000642A68D0692A0CD165E0732A2ED004DCB4
:101640006F2A73D0702A04D19BE0752A6FD0782A54
:101650006ED01046DDE90F129047761C50E1C4F3BE
:101660000250022806D0032809D0042801CF09D04F
:10167000066045E101CFF117C0E9006140E101CF0B
:1016800006803DE106703BE117F8040B8DF8000081
:1016900000208DF80100EB46012003E057F804BB61
:1016A0004FF0FF3061074FF0000102D40DE008F168
:1016B0000101884649450FDA8045F8DB1BF8081020
:1016C0000029F4D108E008F1010188468142FADBE3
:1016D0001BF808100029F6D1DDE90F23AAEB08005A
:1016E0008146214600F036F9304400EB080604E05C
:1016F000DDE90F121BF8010B9047B8F10108F7D292
:1017000021464846F7E00A21C4F302534FF0000B8C
:101710000891022B04D001CFC117032B09D00AE096
:10172000FF1D27F00707F7E8020108E032E01FE09D
:1017300020E000B2C117042B01D140B2C117031E33
:1017400071F1000307DA4FF0000CD0EB0C006CEBEA
:1017500001012D2302E0230504D52B238DF824302D
:10176000012303E0E30701D02023F7E7984658E080
:101770000A2110E010210EE010204FF0000B08901D
:101780000CE010214FF0000B44F004044FF0080966
:10179000089103E008214FF0000B0891C4F30253B5
:1017A000022B04D001CF0021032B06D006E0FF1D41
:1017B00027F00707F7E8020103E080B2042B00D10D
:1017C000C0B24FF0000823072BD5702A07D0DDF8F0
:1017D00020C08CF0100C5CEA0B0C05D00EE040230E
:1017E0008DF82430012308E050EA010306D03023AD
:1017F0008DF824308DF8252002239846DDF820C08E
:101800008CF0080C5CEA0B0C0BD150EA010301D1FF
:10181000630706D530238DF824304FF00108A9F175
:101820000109582A04D038A20B9208AA0A920BE0A8
:101830003AA2F9E75B46089AFEF7B8FC0B9B9B5C63
:101840000A9A521E0A92137050EA0102F2D10A98C3
:10185000ADEB000000F1200B600702D524F48034CA
:1018600001E04FF00109D94502DDA9EB0B0000E0D2
:10187000002000EB0B0141440890AAEB010AE003B1
:1018800006D4DDE90F232146504600F063F80644F4
:101890004FF0000908E009A911F80900DDE90F126D
:1018A000904709F10109761CC145F4DBE0030CD532
:1018B000DDE90F232146504600F04CF8064404E0D1
:1018C000DDE90F1230209047761C0899481E0890D9
:1018D0000029F5DC08E00A980A990078491C0A9169
:1018E000DDE90F129047761CBBF10001ABF1010B53
:1018F000F1DC21465046DDE90F2300F019F80644DB
:101900006D1C1BE60928010030313233343536377F
:10191000383961626364656600000000303132333B
:1019200034353637383941424344454600000000DB
:101930002DE9F041044600251E461746880404D4CC
:1019400005E039462020B0476D1C641EF9D52846B5
:10195000BDE8F0812DE9F041044600251E46904681
:10196000C80301D5302700E02027880404D505E00E
:1019700041463846B0476D1C641EF9D52846BDE87F
:10198000F081000008490968C90706D00649803976
:101990000968CA074FF0604101D1704700BF0A686B
:1019A000002AFBD008707047800E00E010B50028B8
:1019B00021D0114B0022001F196803E0814203D897
:1019C0000A4649680029F9D152B11368841A9C4229
:1019D00004D1006818441060104602E0506000E036
:1019E000186039B102680B1A934203D10B681A448C
:1019F00002604968416010BD140000200EB5FEF77A
:101A00005BFEFFF70FFDFFF709FCFFF75BFC10A281
:101A10000C2407CA8DE80700FEF746FC0120FEF7FC
:101A2000BBFC224669460120FEF706FD204600F079
:101A300017F80546014622460120FEF767FC2946B5
:101A400006A0FFF73DFD2846FFF7B0FFEEE70000D8
:101A500068656C6C6F20776F726C640025730A0088
:101A6000F0B50B30154D20F007010024144A0FE0AB
:101A700003688B420BD38B4205D95E1A4318476823
:101A8000C3E9006700E04368136002C004E0021D80
:101A900010680028ECD12046002802D1286808B13F
:101AA0000020F0BD064A07481060074A121A22F0CB
:101AB0000702C0E9002401202860D7E718000020B1
:101AC000140000207C0000207802002000000000AC
:101AD000000000000102030406070809FC1A0008C0
:101AE000000000201C00000000150008181B000862
:101AF0001C0000205C06000010150008010000001A
:101B000010000000000000000024F40000000000AD
:081B10000000000000000000CD
:0400000508000131BD
:00000001FF
